:020000040800F2
:10000000305F0020F5D30008ED090008EF09000873
:10001000F3090008F7090008FB09000800000000C8
:10002000000000000000000000000000990200082D
:10003000FF09000800000000ED0200081935000863
:100040000FD400080FD400080FD400080FD4000804
:100050000FD400080FD400080FD400080FD40008F4
:100060000FD400080FD400080FD400080FD40008E4
:100070000FD400080FD400080FD400080FD40008D4
:100080000FD400080FD400080FD400080FD40008C4
:100090000FD400080FD400080FD400080FD40008B4
:1000A0000FD400080FD400080FD400080FD40008A4
:1000B0000FD400080FD40008D15200080FD4000854
:1000C0000FD400080FD400080FD400080FD4000884
:1000D0000FD40008C53600084D3800080FD40008BA
:1000E0000FD400080FD400080FD400080FD4000864
:1000F0000FD400080FD400080FD400080FD4000854
:100100000FD400080FD40008DF5800080FD40008EF
:100110000FD400080FD40008B97B00080FD40008E2
:100120000FD400080FD400080FD400080FD4000823
:100130000FD400080FD400080FD400080FD4000813
:100140000FD400080FD400080FD400080FD4000803
:100150000FD400080FD400080FD400080FD40008F3
:100160000FD400080FD400080FD400080FD40008E3
:100170000FD400080FD400080FD400080FD40008D3
:100180000FD400080FD4000800F002F800F075F852
:100190000AA090E8000C82448344AAF10107DA45E2
:1001A00001D100F06AF8AFF2090EBAE80F0013F0BF
:1001B000010F18BFFB1A43F0010318471025010077
:1001C000302501000A444FF0000C10F8013B13F0F9
:1001D000070408BF10F8014B1D1108BF10F8015BA0
:1001E000641E05D010F8016B641E01F8016BF9D193
:1001F00013F0080F1EBF10F8014BAD1C0C1B09D1EA
:100200006D1E58BF01F801CBFAD505E014F8016B5B
:1002100001F8016B6D1EF9D59142D6D370470000ED
:100220000023002400250026103A28BF78C1FBD8FF
:10023000520728BF30C148BF0B607047662910F0D5
:10024000028564290DF00C8475290DF00984632959
:100250000DF0F18773290DF0F687002070471FB568
:1002600010F0E7FC0EF05AF80400002000210FF017
:1002700001FFE0601FBD10B510BD0EF079F9114609
:10028000FFF7EDFF00F0AEFA0EF097F903B4FFF7B9
:10029000F2FF03BC03F0B6F92A4B19680868B0E80E
:1002A000F04F80F30988BFF36F8F4FF0000080F3A9
:1002B000118870470000000006480068006880F35D
:1002C000088862B661B6BFF34F8FBFF36F8F00DF50
:1002D00000BF00BF08ED00E0DFF80C00016841F44A
:1002E00070010160704700BF88ED00E0EFF3098006
:1002F000BFF36F8F134B1A681EF0100F08BF20ED6D
:10030000108A20E9F04F106008B44FF0500080F3DD
:100310001188BFF34F8FBFF36F8F0BF0B4FD4FF019
:10032000000080F3118808BC19680868B0E8F04F35
:100330001EF0100F08BFB0EC108A80F30988BFF3DD
:100340006F8F704734010020EFF305807047000085
:1003500010B52DED068B9CB000249FEDFD0AFD48E5
:1003600080ED000A9FEDFA0A80ED010A9FEDF80A80
:1003700080ED020A9FEDF60A80ED040A9FEDF40A73
:1003800080ED050A9FEDF20A80ED060A9FEDF00A66
:100390008DED110A9FEDEE0A8DED120A9FEDEC0A2C
:1003A0008DED130A9FEDEA0A8DED150A9FEDE80A1F
:1003B0008DED160A9FEDE60A8DED170AC82483E03D
:1003C00006A806F081F89DED110ADDED060A30EE73
:1003D000200A8DED110A9DED120ADDED070A30EEBF
:1003E000200A8DED120A9DED130ADDED080A30EEAC
:1003F000200A8DED130A9DED150ADDED0A0A30EE97
:10040000200A8DED150A9DED160ADDED0B0A30EE82
:10041000200A8DED160A9DED170ADDED0C0A30EE6F
:10042000200A8DED170A9DED080A10EE101A0846F5
:1004300010F08EFB41EC180B9DED070A10EE101A20
:10044000084610F085FB41EC190B9DED060A10EEF5
:10045000101A084610F07CFB41EC1A0B8DED028B54
:100460008DED009B53EC1A2BBBA00DF0AFFA9DED68
:100470000C0A10EE101A084610F06AFB41EC180B3B
:100480009DED0B0A10EE101A084610F061FB41ECCE
:10049000190B9DED0A0A10EE101A084610F058FBD1
:1004A00041EC1A0B8DED028B8DED009B53EC1A2B5A
:1004B000ACA00DF08BFA2146AEA00DF087FA0A2011
:1004C00003F071F8601EC4B2002C3FF779AF9DEDC8
:1004D000110ADFEDAA0A80EE201A9E4880ED001A6C
:1004E0009DED120ADFEDA50A80EE201A80ED011ABB
:1004F0009DED130ADFEDA10A80EE201A80ED021AAD
:100500009DED150ADFED9D0A80EE201A80ED041A9C
:100510009DED160ADFED990A80EE201A80ED051A8E
:100520009DED170ADFED950A80EE201A80ED061A80
:1005300090ED020A10EE101A084610F009FB41EC8B
:10054000180B844890ED010A10EE101A084610F0BE
:10055000FFFA41EC190B7F4890ED000A10EE101ADB
:10056000084610F0F5FA41EC1A0B8DED028B8DED7B
:10057000009B53EC1A2B82A00DF028FA754890EDE1
:10058000060A10EE101A084610F0E2FA41EC180BB9
:10059000704890ED050A10EE101A084610F0D8FACF
:1005A00041EC190B6B4890ED040A10EE101A084646
:1005B00010F0CEFA41EC1A0B8DED028B8DED009B05
:1005C00053EC1A2B72A00DF001FA624890ED023A3A
:1005D000F0EE432A90ED013AB0EE432A90ED003A56
:1005E000F0EE431A90ED063AB0EE431A90ED053A5C
:1005F000F0EE430A90ED043AB0EE430A04A807F087
:1006000029FB9DED050A10EE101A084610F0A0FA1D
:1006100041EC180B9DED040A10EE101A084610F07C
:1006200097FA41EC190B8DED008B53EC192B5CA064
:100630000DF0CCF91CB0BDEC068B10BD30B52DED26
:10064000088B85B0002401259FED410AB0EE408A59
:10065000C1E003F025FE554890ED000ADFED540A95
:10066000B4EEE00AF1EE10FA04D8B1EE040AB0EEEE
:10067000408A13E04D4890ED000AF2EE030AB4EE12
:10068000E00AF1EE10FA04DBB2EE040AB0EE408AA2
:1006900004E0464890ED000AB0EE408A9FED450A1E
:1006A00028EE000ADFED440A80EE201ABCEEC10AF3
:1006B00010EE100A84B20121204603F06AFC0221E8
:1006C000204603F066FC0321204603F062FC04216F
:1006D000204603F05EFC354890ED030A10EE101A38
:1006E000084610F035FA41EC190B304890ED000A3D
:1006F00010EE101A084610F02BFA41EC1A0B2B489A
:1007000090ED020ADFED2D0A20EE200A10EE101AFD
:10071000084610F01DFA41EC1B0B8DED029B8DED90
:1007200000AB53EC1B2B0CA00DF050F9C82002F0CD
:100730003AFF022005F074FC48B10025002108466C
:1007400005F03BFC01201E49086032203AE042E0FF
:100750000000000058050020256620202566202086
:1007600025660A0025662020256620202566202093
:100770000000000025640A0A000000000000484351
:1007800025662020256620202566200A000000001E
:100790002566202025662020256620202020200098
:1007A000252E316620252E31660A0A00D804002045
:1007B0009A99A94000401C470000C84200803B466F
:1007C0009C02434202F0EFFE00207149C1F89C02F6
:1007D000012105F0F2FB002D7FF43BAF05B0BDEC2D
:1007E000088B30BD08B501244FF4407007F0F0FECF
:1007F000A82002F099FE4FF4E13002F010FF4FF410
:10080000165002F0D1FF04F011FC05F0C7FB0120E7
:1008100005F092FC05F0EEFB03F0DDFB05F0A0FD1A
:1008200006F0D9FB07F08CF9002006F0AAF90020A9
:1008300006F0F9F806F0D6F8012005F0F1FBC8B192
:10084000322005F093FC53A30C223221084607F016
:100850002EF952A30C224621322007F028F9FFF787
:10086000EDFE4FF6FF705223F02232210090084631
:1008700006F0F6FE05F074FD20B94BA00DF0A6F8C9
:1008800000BFFEE74BA00DF0A1F8FFF761FD4BA301
:100890000C220A21084607F00AF94AA30C22642117
:1008A000322007F004F949A30C227821322007F006
:1008B000FEF81BE0012005F0B3FB60B141A30C2260
:1008C0000A21502007F0F3F80024322005F04EFCF6
:1008D000012043490870022005F0A2FB30B100243A
:1008E000322005F043FC00203D490870002CE1D186
:1008F0004FF6FF708423F02232210090084606F064
:10090000AFFE38A30C223221084607F0D0F801F0E0
:100910008BF90BF02EFC00BFFEE72DED028B8EB0A5
:1009200007F064F932E03048007878B303A805F0A6
:100930003CFE9DED053AF0EE432A9DED043AB0EE03
:10094000432A9DED033AF0EE431A9DED093AB0EECD
:10095000431A9DED083AF0EE430A9DED073AB0EEDA
:10096000430A01A807F076F99DED010A10EE101A6E
:10097000084610F0EDF841EC180B53EC182BAFF2D1
:10098000F8100DF023F8002017490870CBE700009D
:10099000000043425365742050574D004B45593277
:1009A00020455849540000004D5055204552520AE8
:1009B000000000004D5055204F4B0A005265616405
:1009C0007900000044656275670000007965732056
:1009D0004B455931206E6F204B45593200000000C5
:1009E00000000020474F000003000020704700BFB8
:1009F000FEE700BFFEE700BFFEE700BFFEE770476F
:100A00000CB50020019000907648006840F48030DA
:100A10007449086000BF7348006800F4003000901B
:100A20000198401C0190009818B90198B0F5A04FAA
:100A3000F1D16C48006800F4003010B10120009042
:100A400001E0002000900098012846D16548403020
:100A5000006840F080506349403108606248006897
:100A600040F44040604908605E48083000685D49D5
:100A7000083108600846006840F4004008600846F5
:100A8000006840F4A05008605848091F0860081F1B
:100A9000006840F08070091F086000BF514800687E
:100AA00000F000700028F9D040F20570504908604D
:100AB0004C480830006820F003004A4908310860BB
:100AC0000846006840F00200086000BF4548083052
:100AD000006800F00C000828F8D10CBD10B545489E
:100AE000006840F47000434908603E48006840F0E8
:100AF00001003C49086000203A4908310860394843
:100B000000683D490840374908603C48091D0860B5
:100B1000081F006820F48020091F08600020314968
:100B20000C310860FFF76CFF4FF0006031498039ED
:100B3000086010BD70B500200022022300240221AD
:100B4000284D08352D6805F00C0020B1042806D08A
:100B5000082834D107E02A4D2A4E356033E02A4D6B
:100B6000284E35602FE01F4D2D1D2D68C5F3805494
:100B70001C4D2D1D2D6805F03F0154B1224DB5FBD4
:100B8000F1F5184E361D3668C6F3881605FB06F2D9
:100B900009E01B4DB5FBF1F5124E361D3668C6F364
:100BA000881605FB06F20F4D2D1D2D68C5F3014576
:100BB0006D1C6B00B2FBF3F5124E356003E0104D77
:100BC000104E356000BF00BF064D08352D68C5F3D7
:100BD00003150E4E705D0B4D2D68C540094E3560F6
:100BE00070BD00000038024000700040085440070B
:100BF000003C024088ED00E0FFFFF6FE10300024CC
:100C00000024F4000400002000127A0008000020F4
:100C10000020FE490870FE490870FE490870FE4930
:100C20000870FE490870FE4908709FEDFE0AFE48F4
:100C300080ED000A9FEDFB0AFC4880ED000A70473A
:100C40001CB5012500260124F7E00CF00EFE012161
:100C50004FF4FA6001F047F902214FF4FA6001F015
:100C600042F903214FF4FA6001F03DF904214FF4F9
:100C7000FA6001F038F9EE4800680BF03DF9ED48F4
:100C800000680BF039F9EC4800680BF035F9EB48D7
:100C900000680BF031F906F0B0FF0020E849087059
:100CA0000120E8490870FFF7B3FF4FF6FF704FF4DB
:100CB0009673F022962100900A2006F0D1FC4FF6A0
:100CC000FF703E23C822322100905A2006F0C8FC53
:100CD000DDA30C2232215A2006F0E9FE4FF6FF7008
:100CE000F023782264210090502006F0B9FCD8A3AC
:100CF0000C2264211E2006F0DAFE00200C210123C4
:100D00002246CDE900106421782006F041FE0CF067
:100D1000CFFD642002F047FC01258BE0322002F079
:100D200042FC012001F096F838B101F0D3F8601CC4
:100D3000C4B2062C00D101240126BEB100260CF05D
:100D400094FD4FF6FF7078238222642100901846AC
:100D500006F086FC00200C2101232246CDE900107C
:100D60006421782006F014FE0CF0A2FD032001F0AF
:100D700071F800285ED001F0ADF80CF076FDB048B7
:100D800004704FF6FF703E23C822322100905A2093
:100D900006F066FC012C06D0022C0BD0032C10D0E0
:100DA000042C1CD114E0AEA30C2232215A2006F0F0
:100DB0007EFE14E0ACA30C2232215A2006F077FE0E
:100DC0000DE0ABA30C2232215A2006F070FE06E0A3
:100DD000A9A30C2232215A2006F069FE00BF00BFF1
:100DE000012C06D0022C09D0032C0CD0042C14D1D9
:100DF0000EE08F4800680BF004F90EE08D480068A3
:100E00000BF0FFF809E08C4800680BF0FAF804E0FA
:100E10008A4800680BF0F5F800BF00BF06F0E6FE58
:100E2000002088490870964800680BF065F8002596
:100E30000CF03EFD002D7FF471AF06E710E00023BB
:100E40005A1E19468F48006809F0C4FF00208E49D9
:100E50000860322002F0A7FB01208C49C1F8900203
:100E6000EDE70AE08848001F0068C0438749C1F8E1
:100E70008C024FF47A700AF0DDFEF3E708B54EE01D
:100E800000235A1E19468248006809F0A3FF0CF09F
:100E9000ECFC01F01FF86A480078F8B16848007867
:100EA000012806D0022809D003280CD0042814D128
:100EB0000EE05F4800680BF01FF80EE05D48006828
:100EC0000BF01AF809E05C4800680BF015F804E034
:100ED0005A4800680BF010F800BF00BF00205849C6
:100EE00008705848007818B9654800680BF089F810
:100EF0000120544908704FF6FF703E23C82232216A
:100F000000905A2006F0ACFB4FA30C2232215A204D
:100F100006F0CDFD0CF0CCFC642002F044FBAFE702
:100F200009E000235A1E19465A48006809F052FF8A
:100F3000322005F01BF9F4E736E0012005F070F8E7
:100F400040B100231A4619465348006809F0FAFDDB
:100F500000F0B7FF022005F063F840B100231A4605
:100F600019464E48006809F0EDFD00F0AAFF032085
:100F700005F056F840B100231A4619464848006863
:100F800009F0E0FD00F09DFF042005F049F840B1B4
:100F900000231A4619463E48006809F0D3FD00F0C8
:100FA00090FF14200AF046FEC7E700240BE0002360
:100FB0005A1E19463B48006809F00CFF0446012CF4
:100FC00001D100F0B2FFF2E72DED0A8B86B00024CC
:100FD0009FED140AB0EE408A9FED120AF0EE408AAF
:100FE00000BFF1E300235A1E19462F48006809F09C
:100FF000F1FE0446012CF4D12C48008800F4004096
:1010000000287DD000202949088051E0710000208F
:10101000700000207D0000207C000020890000205E
:1010200088000020000000000801002020010020AE
:101030006C00002078000020840000208C0000203C
:101040000100002018000020537461727420000019
:1010500053656C656374205461736B20000000005D
:101060005461736B203100005461736B20320000B7
:101070005461736B203300005461736B20340000A3
:10108000580000203C0000209002424200004242F2
:101090003400002038000020280000202C00002010
:1010A00030000020200000201C00002098000020BC
:1010B000F9480078582857D1F74840785028FAD195
:1010C000F54840794928F6D1F348807A4428F2D18E
:1010D000F14880783038002848D1EF48C07830385F
:1010E000002843D1EC480079303800283ED1EA4846
:1010F00080793038C8BBE848C0793038A8BB00E0F8
:1011000061E3E548007A303878BBE348407A30380C
:1011100058BBE148C07A303838BBDF48007B3038F4
:1011200018BBDD48407B3038F8B9DB48807B30386D
:10113000D8B9DA4800680FF00BFD41EC1A0BD8481B
:1011400000680FF005FD41EC1B0BD64800680FF05E
:10115000FFFC41EC1C0B8DED02AB8DED00BB53ECA5
:101160001C2BD1A00CF032FC9FE0FFE7CA4880782E
:101170003038642110FB01F1C748C078303800EBEB
:10118000800001EB4001C44800793038084400EE8B
:10119000100AB8EEC08AC048C079303800EE100A94
:1011A000B8EEC00AB2EE041AC0EE010ABA4880795D
:1011B000303800EE100AB8EEC00A70EE800AB64869
:1011C000007A303800EE100AB8EEC00A9FEDBD1A62
:1011D000C0EE011A70EEA10AAF48407A303800EE36
:1011E000100AB8EEC00A9FEDB81AC0EE011A70EEF0
:1011F000A18AA948407B303800EE100AB8EEC00A38
:10120000F2EE040A80EE201AA348007B303800EE8C
:10121000100AB8EEC00AA048C07A303800EE900A32
:10122000F8EEE00AF2EE041A00EEA10A71EE000AEE
:101230009948807B303800EE100AB8EEC00A9FED66
:10124000A11AC0EE011A70EEA10A9348C07B303893
:1012500000EE100AB8EEC00A9FED9B1AC0EE011A0C
:1012600030EEA19A8F4880ED008A8D48C0ED008A4B
:101270008A4880ED009A00680FF06AFC41EC1A0B76
:10128000874800680FF064FC41EC1B0B8548006840
:101290000FF05EFC41EC1C0B8DED02AB8DED00BB45
:1012A00053EC1C2B89A00CF091FB7B48007859284B
:1012B00054D1794840785028FAD177484079492864
:1012C000F6D17548807A4428F2D173488078303856
:1012D000F0BB7148C0783038D0BB6F4800793038E7
:1012E000B0BB6D488079303890BB6B48C0793038DE
:1012F00070BB6948007A303850BB6748407A303854
:1013000030BB6548C07A303810BB6348007B30384A
:10131000F0B96148407B3038D0B95F48807B3038C5
:10132000B0B9714800680FF013FC41EC1A0B6F481C
:1013300000680FF00DFC41EC1B0B6D4800680FF0CE
:1013400007FC41EC1C0B8DED02AB8DED00BB00E00A
:1013500005E053EC1C2B67A00CF038FBDBE04E489B
:1013600080783038642110FB01F14B48C078303868
:1013700000EB800001EB4001474800793038084419
:1013800000EE100AB8EEC08A4348C079303800EE4B
:10139000100AB8EEC00AB2EE041AC0EE010A3E48C6
:1013A0008079303800EE100AB8EEC00A70EE800A7C
:1013B0003948007A303800EE100AB8EEC00A9FEDC6
:1013C000411AC0EE011A70EEA10A3348407A303853
:1013D00000EE100AB8EEC00A9FED3B1AC0EE011AEB
:1013E00070EEA18A2C48407B303800EE100AB8EE2F
:1013F000C00AF2EE040A80EE201A2748007B30383B
:1014000000EE100AB8EEC00A2348C07A303800EE69
:10141000900AF8EEE00AF2EE041A00EEA10A71EE6C
:10142000000A1D48807B303800EE100AB8EEC00A72
:101430009FED241AC0EE011A70EEA10A1648C07B77
:10144000303800EE100AB8EEC00A9FED1F1AC0EE49
:10145000011A30EEA19A264880ED008A2348C0ED9B
:10146000008A214880ED009A00680FF071FB41EC82
:101470001A0B1E4800680FF06BFB41EC1B0B1C485D
:1014800000680FF065FB41EC1C0B8DED02AB8DEDA0
:1014900000BB53EC1C2B3BE0A8010020FC0000200B
:1014A000F8000020F40000206E6F7758503D252E84
:1014B00031662020493D252E34662020443D252ECE
:1014C00035660A000000C84200007A4458503D25A5
:1014D0002E31662020493D252E34662020443D25AE
:1014E0002E35660A000000001401002010010020C3
:1014F0000C0100206E6F7759503D252E316620205B
:10150000493D252E34662020443D252E35660A00AF
:10151000F8A00CF05BFAFE480078412836D1FC4870
:101520004078502832D1FA48407949282ED1F848DD
:101530008078303858BBF648C078303838BBF4482B
:101540000079303818BBF24880793038F8B9F04863
:10155000C0793038D8B9EE48007A3038B8B9EC489C
:10156000407A303898B9EB4800680FF0F1FA41EC56
:101570001A0BE94800680FF0EBFA41EC1B0B8DEDFC
:1015800000AB53EC1B2BE5A00CF020FA68E0E04820
:101590000079303800EE100AB8EEC00AF2EE040A04
:1015A00080EE201ADA48C078303800EE100AB8EE23
:1015B000C00AD7488078303800EE900AF8EEE00A8A
:1015C000F2EE041A00EEA10A31EE000AB0EE408AF3
:1015D000CF48C079303800EE100AB8EEC00AB2EE3B
:1015E000041AC0EE010ACA488079303800EE100AA9
:1015F000B8EEC00A70EE800AC548007A303800EEB6
:10160000100AB8EEC00A1FED511AC0EE011A70EEB2
:10161000A10ABF48407A303800EE100AB8EEC00A7E
:101620001FED571AC0EE011A30EEA10AF0EE408A03
:10163000B94880ED008AB748C0ED008A00680FF015
:1016400087FA41EC1A0BB44800680FF081FA41ECBC
:101650001B0B8DED00AB53EC1B2BB0A00CF0B6F9BF
:10166000AB480078492828D1A9484078452824D19A
:10167000A7488078303802280BD1AC4800680FF0BA
:1016800067FA41EC1A0B53EC1A2BA9A00CF09EF947
:1016900013E09F488078303800EE100AB8EEC00A98
:1016A000A24880ED000A00680FF052FA41EC1A0BD4
:1016B00053EC1A2B9EA00CF089F995480078592814
:1016C0001CD1934840784F2818D1914880784E28F3
:1016D00014D18F48C0783038022805D19648017857
:1016E00096A00CF073F909E08948C0783038924927
:1016F00008700846017891A00CF068F984480078D9
:1017000058281CD1824840784F2818D180488078CA
:101710004E2814D17E48C0783038022805D1894837
:10172000017889A00CF052F909E07948C078303886
:10173000844908700846017883A00CF047F9744882
:101740000078652827D172484078782823D17048DE
:101750008078303809280BD16D48C0783038092896
:1017600006D17B4890F900107AA00CF02FF912E016
:101770006748C078303866498978303901EB810193
:1017800000EB410040B272490870084690F9001021
:1017900070A00CF01BF95E480078652828D15C48E1
:1017A0004078792824D15A488078303809280CD1DB
:1017B0005748C0783038092807D1684890F9001098
:1017C00067A00CF003F913E092E05148C07830387C
:1017D0004F498978303901EB810100EB410040B27B
:1017E0005E490870084690F900105DA00CF0EEF814
:1017F0005D48008800F40040002879D000205A4954
:1018000008805A48007865284AD158484078782896
:1018100046D100F05FFB554880783038092824D144
:101820005248C078303809281FD1494890F9000043
:101830000A2190FBF1F03030C0B20590444890F995
:10184000000090FBF1F201FB12003030C0B20490B6
:10185000012105A802F049F8012104A802F045F889
:10186000012131A002F041F81AE04048C078303838
:101870003E498978303901EB810100EB410040B2EB
:101880003349087001213948801C02F02EF80121EB
:101890003648C01C02F029F8012123A002F025F8E7
:1018A00032480078652824D130484078792820D102
:1018B0002E4880783038092866D12C48C0783038D6
:1018C000092861D1224890F900000A2190FBF1F02B
:1018D0003030C0B205901E4890F9000090FBF1F244
:1018E00001FB12003030C0B20490012105A83FE096
:1018F00082E165E059503D252E31662020493D2585
:101900002E34662020443D252E35660A0000000056
:10191000A8010020C8000020C40000204B703D2515
:101920006620204B693D25660A000000EC0000207F
:10193000493D25660A00000072000020594F4E3DC7
:1019400025640A0073000020584F4E3D25640A00AC
:101950008A00002065783D25640A00008B00002085
:1019600065793D25640A00009A000020700200207D
:1019700001F0BBFF012104A801F0B7FF0121AFF284
:10198000580001F0B2FF1BE0FD48C0783038FC4938
:101990008978303901EB810100EB410040B2F9490F
:1019A00008700121F648801C01F09FFF0121F448D6
:1019B000C01C01F09AFF0121AFF2940001F095FFE5
:1019C000EF48007858287DD1ED484078502879D1EB
:1019D000EB484079492875D1E948807A442871D18B
:1019E000E74880783038642110FB01F1E448C07882
:1019F000303800EB800001EB4001E14800793038DD
:101A0000084400EE100AB8EEC08ADD48C0793038CC
:101A100000EE100AB8EEC00AB2EE041AC0EE010AD7
:101A2000D7488079303800EE100AB8EEC00A70EE60
:101A3000800AD348007A303800EE100AB8EEC00AA7
:101A40009FEDD11AC0EE011A70EEA10ACC48407A7F
:101A5000303800EE100AB8EEC00A9FEDCC1AC0EE86
:101A6000011A70EEA18AC648407B303800EE100A99
:101A7000B8EEC00AF2EE040A80EE201AC048007BDD
:101A8000303800EE100AB8EEC00ABD48C07A3038CF
:101A900000EE900AF8EEE00AF2EE041A00EEA10A57
:101AA00071EE000AB648807B303800EE100AB8EEBE
:101AB000C00A9FEDB51AC0EE011A70EEA10AB04837
:101AC000C07B00E015E0303800EE100AB8EEC00A26
:101AD0009FEDAE1AC0EE011A30EEA19AAC4880ED2F
:101AE000008AAC48C0ED008AAB4880ED009A00F057
:101AF000E8F9A348007859287ED1A14840785028B9
:101B00007AD19F484079492876D19D48807A4428E7
:101B100072D19B4880783038642110FB01F19848DD
:101B2000C078303800EB800001EB40019448007928
:101B30003038084400EE100AB8EEC08A9048C079E8
:101B4000303800EE100AB8EEC00AB2EE041AC0EE49
:101B5000010A8B488079303800EE100AB8EEC00ACE
:101B600070EE800A8648007A303800EE100AB8EE2F
:101B7000C00A9FED851AC0EE011A70EEA10A8048D6
:101B8000407A303800EE100AB8EEC00A9FED7F1A96
:101B9000C0EE011A70EEA18A7948407B303800EE21
:101BA000100AB8EEC00AF2EE040A80EE201A744859
:101BB000007B303800EE100AB8EEC00A7048C07AD8
:101BC000303800EE900AF8EEE00AF2EE041A00EE69
:101BD000A10A71EE000A6A48807B303800EE100AD4
:101BE000B8EEC00A9FED681AC0EE011A70EEA10AA5
:101BF0006348C07B303800E014E000EE100AB8EE15
:101C0000C00A9FED621AC0EE011A30EEA19A634835
:101C100080ED008A6248C0ED008A624880ED009A3B
:101C200000F04FF9FFF7DEB91CB501240021C820F0
:101C300009F0CCF95C4908600021C82009F0C6F918
:101C40005A4908600021C82009F0C0F958490860C5
:101C50000021C82009F0BAF9564908600021C820BF
:101C600009F0B4F9544908600021C82009F0AEF920
:101C70005249086003220021012008F068FE504903
:101C8000086003220021012008F061FE4D49086030
:101C90004548006870B14548006858B1444800683C
:101CA00040B14448006828B14348006810B1434837
:101CB000006818B944A00BF089FE002447480921A8
:101CC0000023FA22CDE9001045A1AFF6035009F038
:101CD00031FD464809210023FA22CDE9001044A134
:101CE000AFF6395009F026FD44480A210023FA22B4
:101CF000CDE9001042A1AFF6BF5009F01BFD4248EC
:101D00000A2100233222CDE9001040A1AFF6EF50A6
:101D100009F010FD40480B210023FA22CDE9001004
:101D20003EA1AFF6A76009F005FD3E480A21002359
:101D30003222CDE900103CA1AFF6D96009F0FAFCDF
:101D40003B480A2100233222CDE9001039A1AFF629
:101D5000137009F0EFFC3A480B210023FA22CDE979
:101D6000001038A13A4809F0E5FC00F02FFD01F021
:101D70009AF801F09AFA01F0A6FB20461CBD00007B
:101D8000700200208B0000200000C84200007A444E
:101D9000F4000020F8000020FC0000200C010020CE
:101DA0001001002014010020280000202C00002039
:101DB0003000002034000020380000203C000020CB
:101DC0001C00002020000020BCC6CAFDD0C5BAC53A
:101DD000C1BFB4B4BDA8CAA7B0DC0A00400000204F
:101DE00044617461494E7461736B000044000020CB
:101DF000446174614F55547461736B004800002056
:101E00004B45597461736B005000002042454550AA
:101E10007461736B000000004C000020454E447458
:101E200061736B00240000204C45447461736B00A7
:101E3000540000204C4544317461736B0000000075
:101E40005800002053746172747461736B00000059
:101E5000410C000870B504460025012C06D0022C68
:101E60000ED0032C16D0042C28D11DE00023022212
:101E700019468648006808F0ADFF00B101251DE055
:101E80000023022219468248006808F0A3FF00B12F
:101E9000012513E00023022219467E48006808F05D
:101EA00099FF00B1012509E00023022219467A4872
:101EB000006808F08FFF00B1012500BF00BF284671
:101EC00070BD10B500231A4619467448006808F022
:101ED00039FE10BD10B500231A4619467048006837
:101EE00008F030FE10BD70B504460D4640F6AC500B
:101EF000844200DD0446B4F5FA6F01DA4FF4FA6467
:101F00002946204602F045F870BD70B5044600250C
:101F10000BF0ABFC204604F048FB05460BF0C8FC78
:101F20000DB1012070BD0020FCE72DE9F0412DED41
:101F3000048B86B0044603200590FC200490002505
:101F4000002600274FF00008564890ED000AF2EEF8
:101F5000040A20EE200ABDEEC00A10EE100A05B2F7
:101F6000504890ED010AF2EE040A20EE200ABDEE80
:101F7000C00A10EE100A06B24B4890ED000AF2EECD
:101F8000040A20EE200ABDEEC00A10EE100A07B2C5
:101F9000454890ED010AF2EE040A20EE200ABDEE5B
:101FA000C00A10EE100A0FFA80F8002C45D001216B
:101FB00005A801F0D6FB012104A801F0D2FBC5F36E
:101FC00007200390E8B20290012102A801F0C9FBAA
:101FD000012103A801F0C5FBC6F307200390F0B26E
:101FE0000290012102A801F0BCFB012103A801F02D
:101FF000B8FBC7F307200390F8B20290012102A8B2
:1020000001F0AFFB012103A801F0ABFBC8F30720EF
:10201000039008F0FF000290012102A801F0A1FB4B
:10202000012103A801F09DFB012104A801F099FB07
:10203000012105A801F095FB1AE01A4890ED010A6C
:1020400010EE101A08460EF083FD41EC180B1548EF
:1020500090ED000A10EE101A08460EF079FD41ECE2
:10206000190B8DED008B53EC192B10A00BF0AEFC6F
:1020700006B0BDEC048BBDE8F08110B500231A4614
:1020800019460D48006808F05DFD10BD28000020CD
:102090002C000020300000203400002038000020F8
:1020A0003C000020640000205C000020252E3266E9
:1020B00020252E32660A0000200000202DED0E8B18
:1020C00094B09FEDFE0AB0EE408A002400BF9FED61
:1020D000FB0A10EE107A9FEDF90A10EE108A9FEDC0
:1020E000F70A10EE10AA9FEDF50A10EE106A01250E
:1020F000A3460020029068E30BF0B7FB9FEDEF0AC8
:10210000F0EE409A9FEDED0AB0EE40EA01214FF467
:10211000FA60FFF7E8FE02214FF4FA60FFF7E3FEF2
:1021200003214FF4FA60FFF7DEFE04214FF4FA605A
:10213000FFF7D9FE4FF6FF70A2237622962100907A
:10214000642005F08DFA4FF6FF70F0231A469621B1
:1021500000900A2005F084FAD9A30C2296210A20C7
:1021600005F0A5FCD7A30C2296211E2005F09FFCAC
:1021700000200C21B2EE040A28EE000ABCEEC00AD0
:1021800010EE102A0323CDE900109621422005F01D
:10219000FFFBCEA30C22A2211E2005F088FC00200C
:1021A0000C2103232246CDE90010A221422005F094
:1021B000EFFB4FF6FF70A2231022962100900A2019
:1021C00005F04EFA4FF6FF70AE231022A2210090C8
:1021D0000A2005F045FABAA30C2296210A2005F040
:1021E00066FC0BF065FB05F008FD0120B94908709D
:1021F0000020B949087083469EE1322001F0D3F9EE
:102200000120FFF727FE60B3012D1DD1B0EE040AB7
:1022100038EE000AB0EE408A9FEDB00AB4EEC08AF4
:10222000F1EE10FA03DD9FEDA50AB0EE408A18EE3C
:10223000100A0EF08DFC41EC1A0B53EC1A2BA8A0DF
:102240000BF0C4FB4FF0010B022D0AD1601D04B24C
:10225000B42C00DD00242146A3A00BF0B7FB4FF007
:10226000010B0220FFF7F6FD50B3012D1BD1B0EE9C
:10227000040A38EE400AB0EE408AB5EEC08AF1EEAC
:1022800010FA03D29FED950AB0EE408A18EE100ABC
:102290000EF05EFC41EC1A0B53EC1A2B90A00BF0E5
:1022A00095FB4FF0010B022D0AD1601F04B2002CE8
:1022B00000DAB42421468CA00BF088FB4FF0010B10
:1022C000BBF1000F32D00BF0D0FA4FF6FF70A22313
:1022D000782296210090422005F0C2F94FF6FF7057
:1022E000AE237822A2210090422005F0B9F9002007
:1022F0000C21B2EE040A28EE000ABCEEC00A10EE71
:10230000102A0323CDE900109621422005F040FB5E
:1023100000200C2103232246CDE90010A2214220F7
:1023200005F036FB0BF0C4FA4FF0000B0320FFF76B
:1023300091FD00287DD0681CC5B2022D12D10BF092
:1023400094FA4FF6FF70A2231022962100900A20E3
:1023500005F086F95AA30C22A2210A2005F0A7FB5A
:102360000BF0A6FA032D64D10BF07FFA4FF6FF7045
:10237000A2231022962100900A2005F071F94FF651
:10238000FF70AE231022A22100900A2005F068F908
:102390005AA30C229621642005F089FB0BF088FAE1
:1023A00000EE104AB8EEC00ADFED550A20EE200A12
:1023B00010EE101A08460EF0CBFB41EC1D0BB0EEF0
:1023C0004D0AF0EE6D0A0DF033F9B0EE40BAF0EEC2
:1023D00060BA18EE100A0EF0BBFB41EC1C0B53EC7C
:1023E0001B2B0EF0F5F841EC1A0B0DF065FE08EE14
:1023F000900A00EE104AB8EEC00ADFED410A20EE66
:10240000200A10EE101A08460EF0A2FB41EC1D0B3C
:10241000B0EE4D0AF0EE6D0A0DF076F9B0EE40BA6E
:10242000F0EE60BA18EE100A0EF092FB41EC1C0BB5
:1024300000E081E053EC1B2B0EF0CAF841EC1A0BC4
:102440000DF03AFE09EE100A9FED2E0AC8EE800A42
:1024500010EE909A48460EF07BFB41EC1C0BB0EE60
:102460004C0AF0EE6C0A0CF07BFEB0EE40BAF0EED7
:1024700060BA9FED250B53EC102B51EC1B0B0EF0AB
:10248000A7F841EC1A0B0DF017FE07469FED1D0A49
:10249000C9EE000A10EE909A48460EF059FB41EC46
:1024A0001C0BB0EE4C0AF0EE6C0A0CF059FEB0EECC
:1024B00040BAF0EE60BA9FED140B29E00000000076
:1024C0002A0000002053203D202000004465673D85
:1024D0002020000070000020710000200000204239
:1024E000533D2025660A00006F66667365745F645D
:1024F00065677265653D2025640A000052554E00EF
:1025000021F98E3C0000B042000000C0DCA54C4028
:1025100053EC102B51EC1B0B0EF05AF841EC1A0B3C
:102520000DF0CAFD804601250020AF49087001204A
:10253000AE49087005F05AFBAB48007800287FF4DC
:102540005CAEAB4908601FED230AAA4880ED000A83
:102550001FED260AA84880ED000A31E100235A1E2B
:102560001946A648006808F035FC02900298012838
:10257000F3D109A8FFF7C9FC9DED0B3AF0EE432A11
:102580009DED0A3AB0EE432A9DED093AF0EE431A6A
:102590009DED0F3AB0EE431A9DED0E3AF0EE430A70
:1025A0009DED0D3AB0EE430A07A805F053FB9DEDF3
:1025B000070ADDED030A30EE200ADDED040A30EEF5
:1025C000200AF0EE080A80EE201A8D4880ED001AED
:1025D0009DED080ADDED050A30EE200ADDED060A64
:1025E00030EE200AF0EE080A80EE201A80ED011A83
:1025F0009DED030A8DED040A9DED070A8DED030A9A
:102600009DED050A8DED060A9DED080A8DED050A82
:10261000774800680A3076490860084690ED000A5D
:10262000B8EE400ADFED770A80EE201A11EE10AA0C
:1026300050460EF08DFA41EC1B0B9FED730B53ECE3
:10264000102B0DF0C5FF41EC1A0B0DF035FD0646C1
:102650006B4890ED000ADFED6E0AB4EEE00AF1EE91
:1026600010FA1ADA90ED000ADFED6A0AB4EEE00A19
:10267000F1EE10FA11D990ED010ADFED650AB4EE22
:10268000E00AF1EE10FA08DA90ED010ADFED610AD6
:10269000B4EEE00AF1EE10FA1ED81FED780A5548A4
:1026A00080ED000A1FED7B0A534880ED000A0121EE
:1026B0004FF4FA60FFF717FC02214FF4FA60FFF7BE
:1026C00012FC03214FF4FA60FFF70DFC04214FF4D4
:1026D000FA60FFF708FC63E04F48007858B33046D3
:1026E0000EF036FA41EC1D0BB0EE4D0AF0EE6D0A1D
:1026F0000DF00AF8B0EE40BAF0EE60BA38460EF0CF
:1027000027FA41EC1C0B53EC1B2B0DF061FF41EC45
:102710001A0B0DF0D1FC41490860084690ED001AF3
:10272000F0EE410A364890ED001AB0EE410A05F08D
:10273000DDFCF0EE409A3A48007858B330460EF08F
:1027400007FA41EC1D0BB0EE4D0AF0EE6D0A0CF0ED
:10275000DBFFB0EE40BAF0EE60BA40460EF0F8F99A
:1027600041EC1C0B53EC1B2B0DF032FF41EC1A0B10
:102770000DF0A2FC29494860084690ED011AF0EEE0
:10278000410A1F4890ED011AB0EE410A05F069FDBB
:10279000B0EE40EAF0EE4E0AB0EE690A05F01BFE1C
:1027A0002048007808B1FFF768FC0320FFF752FBD0
:1027B00030B105F022FA00200C4908700A4908706F
:1027C0000A48007800287FF4C9AE95E41CB5164885
:1027D0000A210023FA22CDE9001014A1AFF22370E0
:1027E00008F0A8FF1CBD0000700000207100002050
:1027F000740000200801002020010020C0000020FB
:102800006400002000E0CE446E861BF0F9211940E0
:1028100000004842000048C2730000205C00002015
:1028200072000020000000206C0000205461736BD7
:10283000317461736B0000002DED0E8B94B09FED31
:10284000FE0AB0EE408A9FEDFC0AF0EE408A00BF1F
:102850009FEDF90A10EE105A9FEDF70A10EE108A5C
:102860009FEDF50AB0EE409A01240027002619E3F7
:102870000AF0FBFF9FEDF00AF0EE409A9FEDEE0AA2
:10288000B0EE40EA01214FF4FA60FFF72CFB022181
:102890004FF4FA60FFF727FB03214FF4FA60FFF7CC
:1028A00022FB04214FF4FA60FFF71DFB4FF6FF7087
:1028B000A223762296210090642004F0D1FE4FF6E8
:1028C000FF70F0231A46962100900A2004F0C8FEFB
:1028D000DAA30C2296210A2005F0E9F8D8A30C22ED
:1028E00096211E2005F0E3F800200C21B2EE040A28
:1028F00028EE000ABCEEC00A10EE102A0323CDE930
:1029000000109621422005F043F8CFA30C22AE21FF
:102910001E2005F0CCF800200C210323BCEEE80AB1
:1029200010EE102ACDE90010AE21422005F030F85B
:102930004FF6FF70A2231022962100900A2004F087
:102940008FFE4FF6FF70AE231022A22100900A20C6
:1029500004F086FEB9A30C2296210A2005F0A7F800
:102960000AF0A6FF05F049F90120BA4908700020D5
:10297000B9490870002728E1322000F014FE012038
:10298000FFF768FAD0B3012C1CD1B0EE040A38EE80
:10299000000AB0EE408A9FEDB10AB4EEC08AF1EEB3
:1029A00010FA03DD9FEDA40AB0EE408A18EE100A7B
:1029B0000EF0CEF841EC1A0B53EC1A2BA8A00BF03A
:1029C00005F80127022C1ED1B1EE040A38EE800A68
:1029D000F0EE408A9FEDA40AF4EEC08AF1EE10FA00
:1029E00003DD9FED950AF0EE408A18EE900A0EF096
:1029F000AFF841EC1A0B53EC1A2B00E003E09BA05C
:102A00000AF0E4FF01270220FFF724FAC8B3012CE3
:102A10001AD1B0EE040A38EE400AB0EE408AB5EEA4
:102A2000C08AF1EE10FA03D29FED8C0AB0EE408A14
:102A300018EE100A0EF08CF841EC1A0B53EC1A2B1E
:102A400087A00AF0C3FF0127022C1AD1B1EE040AB5
:102A500038EEC00AF0EE408AF5EEC08AF1EE10FAC8
:102A600003D29FED810AF0EE408A18EE900A0EF034
:102A70006FF841EC1A0B53EC1A2B7CA00AF0A6FF5E
:102A80000127A7B30AF0F1FE4FF6FF70A2237822C8
:102A900096210090422004F0E3FD4FF6FF70AE2334
:102AA0007822194600905A2004F0DAFD00200C210B
:102AB000B2EE040A28EE000ABCEEC00A10EE102A9C
:102AC0000323CDE900109621422004F061FF00208D
:102AD0000C210323BCEEE80A10EE102ACDE9001009
:102AE000AE21422004F054FF0AF0E2FE002703204A
:102AF000FFF7B0F9002868D0601CC4B2022C12D1D4
:102B00000AF0B3FE4FF6FF70A22310229621009028
:102B10000A2004F0A5FD49A30C22B0210A2004F0EC
:102B2000C6FF0AF0C5FE032C4FD10AF09EFE4FF6F9
:102B3000FF70A2231022962100900A2004F090FD3D
:102B40004FF6FF70AE231022A22100900A2004F05D
:102B500087FD4FF6FF70BA231022AE2100900A20A5
:102B600004F07EFD44A30C229621642004F09FFF14
:102B70000AF09EFE9FED410AC8EE000A10EE909A00
:102B800048460DF0E5FF41EC1C0BB0EE4C0AF0EEB0
:102B90006C0A0CF0E5FAB0EE40BAF0EE60BA9FEDC8
:102BA000380B53EC102B51EC1B0B0DF011FD41ECCD
:102BB0001A0B0DF081FA0546012400202549087002
:102BC00001202549087005F011F8224800780028F6
:102BD0007FF4D2AE9FED180A2B4880ED000A9FEDDE
:102BE000160A2A4880ED000A57E100235A1E1946AA
:102BF0002748006808F0EEF80646012EF4D109A82F
:102C0000FFF783F99DED0B3AF0EE432A9DED0A3A6A
:102C1000B0EE432A9DED093AF0EE431A9DED0F3ACE
:102C2000B0EE431A9DED0E3AF0EE430A9DED0D3ADB
:102C3000B0EE430A07A82DE0000000002A000000C3
:102C40002053203D2020000070686173653D2020E6
:102C5000000000007C0000207D00002000002042D9
:102C6000533D2025660A00000000B443706861737C
:102C7000653D2025660A000052554E000000B04216
:102C8000000000C0DCA54C4008010020200100200D
:102C9000C000002004F0DEFF9DED070ADDED030A11
:102CA00030EE200ADDED040A30EE200AF0EE080ACC
:102CB00080EE201A824880ED001A9DED080ADDEDB5
:102CC000050A30EE200ADDED060A30EE200AF0EEAD
:102CD000080A80EE201A80ED011A9DED030A8DEDA1
:102CE000040A9DED070A8DED030A9DED050A8DEDA1
:102CF000060A9DED080A8DED050A724800680A3043
:102D000070490860084690ED000AB8EE400ADFED11
:102D10006E0A80EE201A11EE108A40460DF018FF60
:102D200041EC1B0B9FED690B53EC102B0DF050FC8D
:102D300041EC1A0B0DF0C0F909EE100A604890ED55
:102D4000000ADFED640AB4EEE00AF1EE10FA08DAE8
:102D500090ED000ADFED600AB4EEE00AF1EE10FA41
:102D60001ED81FED4B0A5D4880ED000A1FED4E0A8C
:102D70005B4880ED000A01214FF4FA60FFF7B3F8D9
:102D800002214FF4FA60FFF7AEF803214FF4FA6026
:102D9000FFF7A9F804214FF4FA60FFF7A4F86CE0FC
:102DA0005048007860B319EE100A0DF0D1FE41ECE6
:102DB0001D0BB0EE4D0AF0EE6D0A0CF0A5FCB0EE66
:102DC00040BAF0EE60BA28460DF0C2FE41EC1C0B92
:102DD00053EC1B2B0DF0FCFB41EC1A0B0DF06CF9C6
:102DE00041490860084690ED001AF0EE410A344867
:102DF00090ED001AB0EE410A05F078F9F0EE409A35
:102E00003A48007898B3DFED3A0AB0EE490A08EE86
:102E1000A00A10EE101A08460DF09AFE41EC1D0BA8
:102E2000B0EE4D0AF0EE6D0A0CF06EFCB0EE40BA5A
:102E3000F0EE60BA28460DF08BFE41EC1C0B53EC13
:102E40001B2B0DF0C5FB41EC1A0B0DF035F9264993
:102E50004860084690ED011AF0EE410A184890EDDE
:102E6000011AB0EE410A05F0FCF9B0EE40EAF0EECE
:102E70004E0AB0EE690A05F0AEFA1E48007808B1B5
:102E8000FFF7FBF80320FEF7E5FF30B104F0B5FED5
:102E9000002019490870194908701748007800285F
:102EA0007FF4A3AEE4E41CB515480A210023FA22FE
:102EB000CDE9001013A1AFF27F6008F03BFC1CBD10
:102EC000640000208000002000E0CE446E861BF0ED
:102ED000F921194000004842000048C208010020C2
:102EE00020010020730000205C0000207200002000
:102EF00021F98E3C000000207D0000207C00002095
:102F0000780000205461736B327461736B000000B1
:102F100010B592B00024322458E0142000F043FB96
:102F200007A8FEF7F2FF9DED093AF0EE432A9DED6A
:102F3000083AB0EE432A9DED073AF0EE431A9DEDB4
:102F40000D3AB0EE431A9DED0C3AF0EE430A9DEDBA
:102F50000B3AB0EE430A05A804F07CFE9DED050A8D
:102F6000DDED010A30EE200ADDED020A30EE200A26
:102F7000F0EE080A80EE201AD24880ED001A9DED8E
:102F8000060ADDED030A30EE200ADDED040A30EE1C
:102F9000200AF0EE080A80EE201A80ED011A9DED5D
:102FA000010A8DED020A9DED050A8DED010A9DEDE8
:102FB000030A8DED040A9DED060A8DED030AC24851
:102FC000007808B1FFF759F8601E84B2002CA4DC29
:102FD00012B010BD2DED028B92B000241420BB491D
:102FE00008700020BA4908705EE10AF03EFC9FEDCF
:102FF000B90AB0EE408A9FEDB70AF0EE408A01218F
:103000004FF4FA60FEF76FFF02214FF4FA60FEF70B
:103010006AFF03214FF4FA60FEF765FF04214FF4C5
:10302000FA60FEF760FF4FF6FF70A223F0229621B0
:103030000090642004F014FBA7A30C2296216420C6
:1030400004F035FDFDF7E4FD0AF032FC04F0D5FD97
:103050000120A34908700020A24908702AE014202A
:1030600000F0A1FA0120FEF7F5FE08B1FFF750FFCE
:103070000320FEF7EFFEE8B10AF0F7FB4FF6FF7012
:10308000A223F02296210090642004F0E9FA96A38E
:103090000C229621642004F00AFD0AF009FC32207B
:1030A00000F081FA00208E49087001208D490870D7
:1030B00004F09CFD8A4800780028D0D19FED850A55
:1030C0008A4880ED000A9FED830A894880ED000A56
:1030D000E5E000235A1E19468648006807F07AFE8C
:1030E0000446012CF4D107A8FEF70FFF9DED093A25
:1030F000F0EE432A9DED083AB0EE432A9DED073AE3
:10310000F0EE431A9DED0D3AB0EE431A9DED0C3AE8
:10311000F0EE430A9DED0B3AB0EE430A05A804F029
:1031200099FD9DED050ADDED010A30EE200ADDED89
:10313000020A30EE200AF0EE080A80EE201A6148FA
:1031400080ED001A9DED060ADDED030A30EE200A3F
:10315000DDED040A30EE200AF0EE080A80EE201AB7
:1031600080ED011A9DED010A8DED020A9DED050A23
:103170008DED010A9DED030A8DED040A9DED060A11
:103180008DED030A90ED000ADFED5B0AB4EEE00A74
:10319000F1EE10FA1ADA90ED000ADFED580AB4EEFB
:1031A000E00AF1EE10FA11D990ED010ADFED520AB2
:1031B000B4EEE00AF1EE10FA08DA90ED010ADFED64
:1031C0004F0AB4EEE00AF1EE10FA1ED89FED410A64
:1031D000464880ED000A9FED3F0A454880ED000A11
:1031E00001214FF4FA60FEF77EFE02214FF4FA60EF
:1031F000FEF779FE03214FF4FA60FEF774FE042116
:103200004FF4FA60FEF76FFE39E03D480078B0B148
:103210002E4890F9000000EE100AB8EEC00A3948B6
:1032200080ED000A90ED001AF0EE410A254890ED7D
:10323000001AB0EE410A04F059FFB0EE408A32485D
:103240000078B0B1224890F9000000EE100AB8EE04
:10325000C00A2C4880ED010A90ED011AF0EE410AF7
:10326000184890ED011AB0EE410A04F0FAFFF0EEB2
:10327000408AF0EE680AB0EE480A05F0ACF8124851
:10328000007808B1FEF7F9FE0320FEF7E3FD30B148
:1032900004F0B3FC0020134908701149087011486C
:1032A000007800287FF415AF9FE61CB517480A2167
:1032B0000023FA22CDE9001015A1AFF2E72008F0B3
:1032C00039FA1CBD64000020000000208A000020A4
:1032D0008B0000200000000053544F5000000000FD
:1032E000880000208900002052554E00080100206F
:1032F00020010020C000002000004842000048C219
:10330000730000205C000020720000208400002078
:103310005461736B337461736B0000002DED028B8D
:1033200092B00024CEE0042005F0BCF800235A1E21
:1033300019466B48006807F04DFD0446012CF1D199
:1033400007A8FEF7E2FD9DED093AF0EE432A9DED58
:10335000083AB0EE432A9DED073AF0EE431A9DED90
:103360000D3AB0EE431A9DED0C3AF0EE430A9DED96
:103370000B3AB0EE430A05A804F06CFC9DED050A7B
:10338000DDED010A30EE200ADDED020A30EE200A02
:10339000F0EE080A80EE201A524880ED001A9DEDEA
:1033A000060ADDED030A30EE200ADDED040A30EEF8
:1033B000200AF0EE080A80EE201A80ED011A9DED39
:1033C000010A8DED020A9DED050A8DED010A9DEDC4
:1033D000030A8DED040A9DED060A8DED030A90EDBA
:1033E000000ADFED410AB4EEE00AF1EE10FA1ADA53
:1033F00090ED000ADFED3D0AB4EEE00AF1EE10FABE
:1034000011D990ED010ADFED380AB4EEE00AF1EED1
:1034100010FA08DA90ED010ADFED340AB4EEE00AA2
:10342000F1EE10FA1ED89FED320A324880ED000A04
:103430009FED2F0A304880ED000A01214FF4FA6019
:10344000FEF751FD02214FF4FA60FEF74CFD032117
:103450004FF4FA60FEF747FD04214FF4FA60FEF7DF
:1034600042FD2FE02548007888B19FED210A2448CD
:1034700080ED000A90ED001AF0EE410A194890ED37
:10348000001AB0EE410A04F031FEF0EE408A1D4809
:10349000007888B19FED160A194880ED010A90ED79
:1034A000011AF0EE410A0F4890ED011AB0EE410A00
:1034B00004F0D7FEB0EE408AF0EE480AB0EE680A9B
:1034C00004F089FF2FE71CB50F480A210023FA22D8
:1034D000CDE900100DA1AFF2BB1008F02BF91CBD17
:1034E000C00000206400002000004842000048C2E4
:1034F00000000000080100202001002073000020CF
:103500005C000020720000208C0000205461736B6E
:10351000347461736B00000010B509F0DCF8012809
:1035200001D00AF0DDF910BD70B50446042005F0A5
:10353000A1F83248047025464FF47A7045430120C3
:103540002F4908804FF0E020006940F002004FF062
:10355000E021086108464561006940F0010008610A
:1035600070BD70B5034600224FF0E0267569234E0A
:10357000367803FB06F44FF0E026B16910E04FF017
:10358000E026B06988420BD0884202D20E1A32443B
:1035900002E02E1A0E4432440146A24200D300E05B
:1035A000EDE700BF70BD70B5044609F094F801283E
:1035B00010D013480088844206D311480088B4FB19
:1035C000F0F5284608F036FB0D480088B4FBF0F112
:1035D00000FB11444FF47A7104FB01F0FFF7C1FFC7
:1035E00070BD30B50446002504E04FF47A70FFF753
:1035F000B8FF6D1CA542F8D330BD0000900000203C
:103600009200002000BF704700BF604A128802F09D
:103610004002002AF9D0C2B25C4B9A80704710B5C4
:1036200088B004460121084605F0D2FE0121102091
:1036300005F028FF07220921554805F0B6FC0722AE
:103640000A21534805F0B1FC4FF4C06006900220F7
:103650008DF81C008DF81D0000208DF81E00012043
:103660008DF81F0006A94A4805F014FC02940020BA
:10367000ADF80C00ADF80E00ADF81000ADF8140078
:103680000C20ADF8120002A9404806F0F8FE012116
:103690003E4806F07CFF012240F225513B4807F0EE
:1036A0002CF825208DF804000A208DF80500002054
:1036B0008DF8060001208DF8070001A804F08DFFA9
:1036C00008B010BD38B540F22551304807F050F829
:1036D00010B32E4806F08AFFC4B22E48008800F4CA
:1036E0000040C8B92B48008800F4804060B10A2C23
:1036F00003D000202749088020E02648008840F4B5
:1037000000402449088019E00D2C06D1214800888A
:1037100040F480401F49088010E01E480088C0F334
:103720000D001D490C541B480088401C1949088095
:1037300008460088C72801DD002008801748007867
:1037400070B169461648006807F0E6FC009838B189
:103750004FF0805013490860BFF34F8FBFF36F8F56
:1037600038BD70B505460E4600240CE0295D0748BB
:1037700006F038FF00BF4021044806F0E3FF0028B0
:10378000F9D0601CC4B2B442F0DB70BD001001403F
:103790000000024098000020A80100200200002044
:1037A0001C00002004ED00E010B588B004460121A3
:1037B000084605F00DFE0121480405F052FE0722DF
:1037C0000221544805F0F1FB07220321514805F07E
:1037D000ECFB0C20069002208DF81C008DF81D00DB
:1037E00000208DF81E0001208DF81F0006A9494811
:1037F00005F050FB02940020ADF80C00ADF80E006F
:10380000ADF81000ADF814000C20ADF8120002A9BC
:10381000414806F034FE01213F4806F0B8FE01227F
:1038200040F225513C4806F068FF26208DF8040040
:103830000B208DF8050000208DF8060001208DF882
:10384000070001A804F0C9FE08B010BD38B540F269
:103850002551314806F08CFF10B32F4806F0C6FE04
:10386000C4B22E48008800F40040C8B92B48008834
:1038700000F4804060B10A2C03D000202749088062
:1038800020E02648008840F400402449088019E0E0
:103890000D2C06D12148008840F480401F49088043
:1038A00010E01E480088C0F30D001D490C541B4851
:1038B0000088401C1949088008460088C72801DD97
:1038C000002008801748007870B1694616480068E3
:1038D00007F022FC009838B14FF08050134908607F
:1038E000BFF34F8FBFF36F8F38BD70B505460E46DF
:1038F00000240CE0295D084806F074FE00BF40215A
:10390000054806F01FFF0028F9D0601CC4B2B4427D
:10391000F0DB70BD00000240004400409A0000202F
:1039200070020020020000201C00002004ED00E0D6
:103930002DE9FC4105460E462F46072F2FD2DFE822
:1039400007F0040A10161C222800BA4C0121084670
:1039500005F03EFD23E0B84C0121022005F038FDC2
:103960001DE0B64C0121042005F032FD17E0B44CF7
:103970000121082005F02CFD11E0B24C012110209E
:1039800005F026FD0BE0B04C0121202005F020FDC4
:1039900005E0AE4C0121402005F01AFD00BF00BF3C
:1039A00001208DF8040000208DF80600009601200B
:1039B0008DF8070003208DF80500B1B2204605F010
:1039C000E5FA6946204605F065FABDE8FC812DE977
:1039D000FC4705460E461746B946A846B8F1070FFC
:1039E0002FD2DFE808F0040A10161C222800914CA0
:1039F0000121084605F0ECFC23E08F4C0121022058
:103A000005F0E6FC1DE08D4C0121042005F0E0FCF2
:103A100017E08B4C0121082005F0DAFC11E0894CFD
:103A20000121102005F0D4FC0BE0874C012120205F
:103A300005F0CEFC05E0854C0121402005F0C8FCD6
:103A400000BF00BF00208DF804000096B9F1000F00
:103A500003D001208DF8070002E002208DF8070056
:103A600003208DF805006946204605F013FABDE8ED
:103A7000FC872DE9FE4F81460F4616469846DDF835
:103A800030A02EB1002239464846FFF7A0FF04E0DF
:103A9000012239464846FFF79AFF0121880305F0C5
:103AA000F1FCB7F5807F63D012DC102F44D008DC26
:103AB000012F25D0022F2AD0042F2FD0082F25D157
:103AC00033E0202F3FD0402F44D0802FF7D148E063
:103AD000B7F5805F6CD009DCB7F5007F50D0B7F543
:103AE000806F55D0B7F5006FE9D159E0B7F5005FA9
:103AF00066D0B7F5804F6BD0B7F5004F78D16FE047
:103B00000021484605F0C9FD0124062570E0012189
:103B1000484605F0C2FD0224072569E00221484617
:103B200005F0BBFD0424082562E00321484605F0AA
:103B3000B4FD082409255BE00421484605F0ADFDED
:103B400010240A2554E00521484605F0A6FD20244E
:103B500017254DE00621484605F09FFD4024172516
:103B600046E00721484605F098FD802417253FE0F0
:103B70000821484605F091FD4FF48074172537E081
:103B80000921484605F089FD4FF4007417252FE000
:103B90000A21484605F081FD4FF48064282527E07E
:103BA0000B21484605F079FD4FF4006428251FE0FD
:103BB0000C21484605F071FD4FF48054282517E08C
:103BC0000D21484605F069FD4FF4005428250FE00B
:103BD0000E21484605F061FD4FF48044282507E09A
:103BE0000F21484605F059FD4FF40044282500BF39
:103BF00000BF019401208DF80A0000208DF8080014
:103C00001EB108208DF8090002E00C208DF8090093
:103C100001A804F05BFD8DF8005001208DF8030031
:103C20008DF801808DF802A0684604F0D6FCBDE84E
:103C3000FE8F000000000240000402400008024025
:103C4000000C024000100240001402400018024024
:103C500030B58BB004460025B4F5AF6F02D84FF4F1
:103C6000AF6403E0EC48844200D30446EB48B0FB69
:103C7000F4F085B2EA4805800121102005F0A8FB88
:103C800001220921E74805F090F901220B21E548BE
:103C900005F08BF901220D21E24805F086F9012299
:103CA0000E21E04805F081F902208DF8280000205F
:103CB0008DF82A004FF4D440099001208DF82B0094
:103CC00003208DF8290009A9D64805F0E3F8012161
:103CD000084605F0D7FB0020ADF82000ADF81A002B
:103CE000CF480088401E07900120ADF8180006A9B3
:103CF000CD4805F0B8FD6020ADF804000020ADF817
:103D000010000120ADF806000020039001A9C6486C
:103D100005F03EFE0020039001A9C34805F071FEA6
:103D20000020039001A9C04805F0B8FE00200390D0
:103D300001A9BD4805F018FF0121BB4805F0B5FFFA
:103D40000121B94805F0FAFD0121B74806F005FA4E
:103D50000121B54805F010FE0BB030BD30B58BB079
:103D600004460025B4F5AF6F02D84FF4AF6403E00A
:103D7000A948844200D30446A848B0FBF4F085B2B9
:103D8000AA4805800121084605F022FB01210220F6
:103D900005F01EFB02220621A54805F006F90222C5
:103DA0000721A34805F001F902220021A14805F0EE
:103DB000FCF8022201219F4805F0F7F802208DF857
:103DC000280000208DF82A00C020099001208DF8DD
:103DD0002B0003208DF8290009A9954805F05AF811
:103DE0000320099009A9934805F054F80121022005
:103DF00005F037FB0020ADF82000ADF81A008B4825
:103E00000088401E07900020ADF8180006A98A48D7
:103E100005F029FD6020ADF804000020ADF8100089
:103E20000120ADF8060049F64040039001A9824800
:103E300005F0AEFD49F64040039001A97E4805F02B
:103E4000E0FD49F64040039001A97B4805F026FEBD
:103E500049F64040039001A9774805F085FE01210D
:103E6000754805F022FF0121734805F067FD012127
:103E7000714805F081FD0BB030BD10B50246002041
:103E8000674B1B885343642493FBF4F398B20129D6
:103E900006D0022907D0032908D004290CD108E054
:103EA000614B586308E0604B986305E05E4BD86354
:103EB00002E05D4B186400BF00BF10BD10B50246A4
:103EC0000020574B1B885343642493FBF4F398B2B0
:103ED000012906D0022908D003290AD0042910D1CB
:103EE0000BE0554B343318600BE0534B38331860FC
:103EF00007E0514B3C33186003E04F4B40331860F0
:103F000000BF00BF10BD70B504460D461646611EC9
:103F1000454805F0F3FC424804802EB1681E81B28A
:103F20000022414805F0DCFC70BD70B504460D462A
:103F30001646611E404805F0E1FC3C4804802EB165
:103F4000681E81B200223C4805F0CAFC70BD70B505
:103F500004460D46012D06D0022D09D0032D0CD0AC
:103F6000042D14D10EE021462F4805F06AFE0EE024
:103F700021462D4805F067FE09E021462A4805F054
:103F800064FE04E02146284805F061FE00BF00BF42
:103F900070BD70B504460D46012D06D0022D09D026
:103FA000032D0CD0042D14D10EE02146224805F03B
:103FB00048FE0EE02146204805F045FE09E0214676
:103FC0001D4805F042FE04E021461B4805F03FFE77
:103FD00000BF00BF70BD10B542F21070FFF7BEFE0B
:103FE00001222A2149F64040FFF79FFF01214FF4AB
:103FF000FA60FFF7CEFF02214FF4FA60FFF7C9FF26
:1040000003214FF4FA60FFF7C4FF04214FF4FA6074
:10401000FFF7BFFF10BD00004090020000BD01058A
:104020009C00002000100240000001409E00002083
:1040300000000240000402400004004001E0411E74
:1040400088B20028FBDC70471CB50121022005F076
:10405000BFF91820009001208DF8040000208DF891
:10406000060003208DF8050001208DF80700694641
:10407000884804F00FFF0120874908608749C1F88C
:104080008C021CBD00B58348006820F0C000814947
:1040900008600846006840F04000086001207E4942
:1040A000091F08607D49C1F890026420FFF7C6FF30
:1040B00000207949091F08606420FFF7BFFF002036
:1040C0007649C1F8900200BD00B57248006820F042
:1040D000C000704908600846006840F04000086071
:1040E00000206D4908606D49C1F88C026420FFF71B
:1040F000A5FF0120684908606849C1F88C02642066
:10410000FFF79CFF00BD10B500246248006820F056
:10411000C0006049086008460068086001205E49E8
:10412000091F0860FFF71DFA01205C49C1F89002E1
:10413000FFF717FA07E0601CC4B2FA2C03DDFFF7A3
:10414000C3FF012010BD5448843800680028F2D114
:104150005149086000BFF5E700B500204E490860EE
:104160004C48006820F0C0004A49086008460068D2
:1041700040F04000086000204849C1F88C026420EB
:10418000FFF75CFF0120444908606420FFF756FFF9
:1041900000204249C1F8900200BD00B500203E4910
:1041A00008603C48006820F0C0003A4908600846B2
:1041B000006840F04000086001203849C1F88C02D6
:1041C0006420FFF73BFF0120334908606420FFF7BC
:1041D00035FF00203149C1F8900200BD00B502460C
:1041E0002C48006820F0C0002A4908600846006892
:1041F00040F040000860002027490860002317E0D5
:10420000D0092549091F08605006020E6420FFF7F7
:1042100015FF01202149C1F890026420FFF70EFF2D
:1042200000201D4908606420FFF708FF581CC3B236
:10423000082BE5DB00BD70B5054600241548006875
:1042400020F0C00013490860084600680860002696
:1042500016E00020104908606420FFF7EFFE0120FF
:104260000E49C1F890026006040E0B4884380068BD
:1042700008B1601CC4B20120FFF773F9701CC6B20C
:10428000082EE6DB15B9FFF788FF01E0FFF764FFB2
:10429000204670BD000402409082404200804042AF
:1042A00010B52DED048BFE4890F8300028B3FD4882
:1042B000007898B1FA4890F8310000EE100AB8EE94
:1042C000400AF94880ED000AF54890F8310000EE08
:1042D000100AB8EE400AF44880ED010AF04890F860
:1042E000310000EE100AB8EE400AEF4880ED020AF5
:1042F0009FEDEE0A80ED030A73E0E948007E002896
:104300006FD0E74890ED080AD0ED070A30EE600A5A
:10431000D0ED0A0A9FEDE61A00EE810AE24880ED30
:10432000020AE0480078002858D0DD4890ED080ADD
:10433000D0ED070A30EE600AD0ED0A0A9FEDDC1AD4
:1043400000EE810A10EE101A08460CF001FC41EC58
:10435000190B9FEDD80B53EC102B0CF039F941ECF5
:10436000180B0BF0A9FED0498860CD4890ED090AE2
:10437000D0ED070A30EE600AD0ED0B0A9FEDCC1AA3
:1043800000EE810A10EE101A08460CF0E1FB41EC39
:10439000190B9FEDC80B53EC102B0CF019F941ECE5
:1043A000180B0BF089FEC0494860084690ED020AE0
:1043B000DFEDC20A20EE200AD0ED010A9FEDC01AFF
:1043C00070EE810A80EE201A80ED001A90ED010A4D
:1043D000DFEDBC0A80EE801A80ED031A0020B049A0
:1043E0000876B94890F8300028B3AE48007898B104
:1043F000B54890F8310000EE100AB8EE400AB34814
:1044000080ED000AB04890F8310000EE100AB8EED6
:10441000400AAE4880ED010AAB4890F8310000EE4A
:10442000100AB8EE400AA94880ED020A9FED9F0AE3
:1044300080ED030A74E0A448007E002870D0A248F2
:1044400090ED080AD0ED070A30EE600AD0ED0A0AB6
:104450009FED971A00EE810A9C4880ED020A914870
:104460000078E0B3984890ED080AD0ED070A30EEE6
:10447000600AD0ED0A0A9FED8E1A00EE810A10EE56
:10448000101A08460CF064FB41EC190B9FED890BE8
:1044900053EC102B0CF09CF841EC180B0BF00CFEBD
:1044A0008A498860884890ED090AD0ED070A30EE05
:1044B000600AD0ED0B0A9FED7E1A00EE810A10EE25
:1044C000101A08460CF044FB41EC190B9FED790BD8
:1044D00053EC102B0CF07CF841EC180B00E01CE0C6
:1044E0000BF0EAFD79494860084690ED020ADFEDDD
:1044F000730A20EE200AD0ED010A9FED711A70EECA
:10450000810A80EE201A80ED001A90ED010ADFED9D
:104510006D0A80EE801A80ED031A00206A49087641
:104520006B4890F8300028B35E48007898B168482E
:1045300090F8310000EE100AB8EE400A654880EDB0
:10454000000A634890F8310000EE100AB8EE400A05
:10455000604880ED010A5E4890F8310000EE100AD4
:10456000B8EE400A5B4880ED020A9FED500A80EDEC
:10457000030A74E05648007E002870D0544890ED3D
:10458000080AD0ED070A30EE600AD0ED0A0A9FED66
:10459000481A00EE810A4F4880ED020A414800782F
:1045A000F0B34B4890ED080AD0ED070A30EE600AF0
:1045B000D0ED0A0A9FED3E1A00EE810A10EE101AA5
:1045C00008460CF0C5FA41EC190B9FED3A0B53EC81
:1045D000102B0BF0FDFF41EC180B0BF06DFD3D496E
:1045E00088603B4890ED090AD0ED070A30EE600A7A
:1045F000D0ED0B0A9FED2E1A00EE810A10EE101A74
:1046000008460CF0A5FA41EC190B9FED2A0B53EC70
:10461000102B0BF0DDFF41EC180B0BF04DFD00E013
:104620001AE02C494860084690ED020ADFED230AA3
:1046300020EE200AD0ED010A9FED211A70EE810ACA
:1046400080EE201A80ED001A90ED010ADFED1D0AC0
:1046500080EE801A80ED031A00201D4908761E485E
:1046600090F83000E0B30F48007898B11A4890F8FD
:10467000310000EE100AB8EE400A184880ED000A3A
:10468000154890F8310000EE100AB8EE400A1348C1
:1046900080ED010A104890F8310000EE100A20E089
:1046A00038030020A0000020D804002000000000F3
:1046B00000606A47A5E2ECC367D8153F0000C84216
:1046C000BD37863500007A446C030020E8040020E2
:1046D000A0030020F8040020D403002008050020D7
:1046E00009E0B8EE400AFE4880ED020A1FED110A0B
:1046F00080ED030A74E0FB48007E002870D0F94882
:1047000090ED080AD0ED070A30EE600AD0ED0A0AF3
:104710001FED191A00EE810AF14880ED020AF248F5
:104720000078E0B3EF4890ED080AD0ED070A30EECC
:10473000600AD0ED0A0A1FED221A00EE810A10EE7F
:10474000101A08460CF004FA41EC190B1FED270B68
:1047500053EC102B0BF03CFF41EC180B0BF0ACFCB6
:10476000DF498860DF4890ED090AD0ED070A30EE96
:10477000600AD0ED0B0A1FED321A00EE810A10EE2E
:10478000101A08460CF0E4F941EC190B1FED370B39
:1047900053EC102B0BF01CFF41EC180B00E01CE05D
:1047A0000BF08AFCCE494860084690ED020A5FEDA6
:1047B0003D0A20EE200AD0ED010A1FED3F1A70EEEF
:1047C000810A80EE201A80ED001A90ED010A5FED5B
:1047D000430A80EE801A80ED031A0020C149087652
:1047E000C24890F8300028B3BF48007898B1BF485D
:1047F00090F8310000EE100AB8EE400ABC4880ED97
:10480000000ABA4890F8310000EE100AB8EE400AEB
:10481000B74880ED010AB54890F8310000EE100A63
:10482000B8EE400AB24880ED020A1FED600A80ED42
:10483000030A74E0AD48007E002870D0AB4890EDCC
:10484000080AD0ED070A30EE600AD0ED0A0A1FED23
:10485000681A00EE810AA64880ED020AA248007894
:10486000F0B3A24890ED080AD0ED070A30EE600AD6
:10487000D0ED0A0A1FED721A00EE810A10EE101A2E
:1048800008460CF065F941EC190B1FED760B53EC63
:10489000102B0BF09DFE41EC180B0BF00DFC944916
:1048A0008860924890ED090AD0ED070A30EE600A60
:1048B000D0ED0B0A1FED821A00EE810A10EE101ADD
:1048C00008460CF045F941EC190B1FED860B53EC33
:1048D000102B0BF07DFE41EC180B0BF0EDFB00E014
:1048E0001AE083494860084690ED020A5FED8D0AA0
:1048F00020EE200AD0ED010A1FED8F1A70EE810A1A
:1049000080EE201A80ED001A90ED010A5FED930A07
:1049100080EE801A80ED031A0020744908767548ED
:1049200090F8300028B37048007898B1714890F83A
:10493000310000EE100AB8EE400A6F4880ED000A20
:104940006C4890F8310000EE100AB8EE400A6A4850
:1049500080ED010A674890F8310000EE100AB8EEC9
:10496000400A654880ED020A1FEDB00A80ED030A97
:1049700074E06048007EE0B35E4890ED080AD0ED38
:10498000070A30EE600AD0ED0A0A1FEDB71A00EEF2
:10499000810A594880ED020A5348007850B35548BF
:1049A00090ED080AD0ED070A30EE600AD0ED0A0A51
:1049B0001FEDC11A00EE810A10EE101A08460CF025
:1049C000C7F841EC190B1FEDC50B53EC102B0BF086
:1049D000FFFD41EC180B0BF06FFB47498860454821
:1049E00090ED090AD0ED070A30EE600AD0ED0B0A0F
:1049F00001E033E02FE01FEDD21A00EE810A10EE45
:104A0000101A08460CF0A4F841EC190B1FEDD70B57
:104A100053EC102B0BF0DCFD41EC180B0BF04CFBB6
:104A200035494860084690ED020A5FEDDC0A20EE49
:104A3000200AD0ED010A1FEDDE1A70EE810A80EE29
:104A4000201A80ED001A90ED010A5FEDE20A80EE77
:104A5000801A80ED031A002026490876274890F82E
:104A6000300028B32048007898B1244890F83100ED
:104A700000EE100AB8EE400A214880ED000A1F48F7
:104A800090F8310000EE100AB8EE400A1C4880EDA4
:104A9000010A1A4890F8310000EE100AB8EE400AF8
:104AA000174880ED020A9FED170A80ED030A8BE09C
:104AB0001248007E50B3114890ED080AD0ED070A65
:104AC00030EE600AD0ED0A0A9FED0F1A00EE810A5F
:104AD0000B4880ED020A04480078E8B3074816E066
:104AE00008050020D4030020A000002008040020B6
:104AF000180500203C040020280500207004002038
:104B0000380500200000000000606A475CE090ED7E
:104B1000080AD0ED070A30EE600AD0ED0A0A1FED50
:104B2000061A00EE810A10EE101A08460CF010F872
:104B300041EC190B9FEDFE0B53EC102B0BF048FDD5
:104B400041EC180B0BF0B8FAFB498860FB4890ED7C
:104B5000090AD0ED070A00E033E030EE600AD0ED3C
:104B60000B0A1FED171A00EE810A10EE101A084604
:104B70000BF0EEFF41EC190B9FEDED0B53EC102BFE
:104B80000BF026FD41EC180B0BF096FAEA49486051
:104B9000084690ED020ADFEDEA0A20EE200AD0ED89
:104BA000010A9FEDE81A70EE810A80EE201A80ED6E
:104BB000001A90ED010ADFEDE40A80EE801A80ED24
:104BC000031A0020DD490876E04890F8300028B349
:104BD000DF48007898B1DD4890F8310000EE100A07
:104BE000B8EE400ADB4880ED000AD84890F8310062
:104BF00000EE100AB8EE400AD64880ED010AD3480C
:104C000090F8310000EE100AB8EE400AD14880ED6D
:104C1000020A1FED440A80ED030A74E0CB48007ECF
:104C2000F0B3CA4890ED080AD0ED070A30EE600AEA
:104C3000D0ED0A0A1FED4C1A00EE810AC54880ED3E
:104C4000020AC348007860B3C04890ED080AD0ED6E
:104C5000070A30EE600AD0ED0A0A1FED551A00EE81
:104C6000810A10EE101A08460BF072FF41EC190B86
:104C70009FEDAF0B53EC102B0BF0AAFC41EC180B83
:104C80000BF01AFAB3498860B04890ED090AD0EDEC
:104C9000070A30EE600AD0ED0B0A1FED651A01E03D
:104CA00031E02DE000EE810A10EE101A08460BF0FC
:104CB0004FFF41EC190B9FED9E0B53EC102B0BF0AB
:104CC00087FC41EC180B0BF0F7F9A2494860084645
:104CD00090ED020ADFED9A0A20EE200AD0ED010ADB
:104CE0009FED981A70EE810A80EE201A80ED001A6E
:104CF00090ED010ADFED940A80EE801A80ED031A30
:104D0000002092490876BDEC048B10BD00B52DED56
:104D1000108B8FB08F4890ED000A10EE101A0846E5
:104D20000BF016FF41EC180B834890ED000A10EED3
:104D3000101A08460BF00CFF41EC190B864890ED59
:104D4000000A10EE101A08460BF002FF41EC1A0B95
:104D5000824890ED000A10EE101A08460BF0F8FE9B
:104D600041EC1B0B7E4890ED000A10EE101A08462D
:104D70000BF0EEFE41EC1C0B7A4890ED000A10EEB1
:104D8000101A08460BF0E4FE41EC1D0B764890ED3E
:104D9000000A10EE101A08460BF0DAFE41EC1E0B6A
:104DA000724890ED000A10EE101A08460BF0D0FE83
:104DB00041EC1F0B8DED0C8B8DED0A9B8DED08AB3F
:104DC0008DED06BB8DED04CB8DED02DB8DED00EBA3
:104DD00053EC1F2B66A008F0F9FD0FB0BDEC108B53
:104DE00000BD00B52DED108B8FB05A4890ED010A33
:104DF00010EE101A08460BF0ABFE41EC180B4E48B3
:104E000090ED010A10EE101A08460BF0A1FE41ECDD
:104E1000190B514890ED010A10EE101A08460BF0DC
:104E200097FE41EC1A0B4D4890ED010A10EE101A56
:104E300008460BF08DFE41EC1B0B494890ED010A32
:104E400010EE101A08460BF083FE41EC1C0B45488F
:104E500090ED010A10EE101A08460BF079FE41ECB5
:104E60001D0B414890ED010A10EE101A08460BF098
:104E70006FFE41EC1E0B3D4890ED010A10EE101A3A
:104E800008460BF065FE41EC1F0B8DED0C8B8DED94
:104E90000A9B8DED08AB8DED06BB8DED04CB8DED42
:104EA00002DB8DED00EB53EC1F2B31A008F08EFDE3
:104EB0000FB0BDEC108B00BD00B52DED108B8FB089
:104EC000244890ED020A10EE101A08460BF040FE3E
:104ED00041EC180B184890ED020A10EE101A084623
:104EE0000BF036FE41EC190B1B4890ED020A10EE58
:104EF000101A08460BF02CFE41EC1A0B174890EDE7
:104F0000020A10EE101A08460BF022FE41EC1B0BB1
:104F1000134890ED020A10EE101A08460BF018FE26
:104F200041EC1C0B0F4890ED020A10EE101A2FE016
:104F3000A5E2ECC367D8153F3805002070040020B7
:104F40000000C842BD37863500007A44A404002022
:104F5000A00000204805002028050020180500209A
:104F600008050020F8040020E8040020D8040020F0
:104F70002566202025662020256620202566202005
:104F800025662020256620202566202025660A002B
:104F900008460BF0DDFD41EC1D0BFE4890ED020ACA
:104FA00010EE101A08460BF0D3FD41EC1E0BFA4828
:104FB00090ED020A10EE101A08460BF0C9FD41EC04
:104FC0001F0B8DED0C8B8DED0A9B8DED08AB8DEDE0
:104FD00006BB8DED04CB8DED02DB8DED00EB53ECCC
:104FE0001F2BAFF2740008F0F1FC0FB0BDEC108B7A
:104FF00000BD10B50446012C03D0022C01D0032CB7
:1050000010D1012C04D0022C05D0032C09D105E0CD
:10501000FFF752FF00BFFFF7E4FE00BFFFF776FE89
:1050200000BF02E0DDA008F0D1FC10BD00B589B0E2
:105030000121082004F0CCF90121880304F022FAB0
:1050400002220C21D94803F0B0FF02220D21D748DB
:1050500003F0ABFF02220E21D44803F0A6FF022288
:105060000F21D24803F0A1FF02208DF8200000207C
:105070008DF822004FF48050079002208DF8230015
:1050800003208DF821004FF48051C84803F080FFC1
:1050900007A9C64803F0FEFE4FF4005007900146F2
:1050A000C24803F075FF07A9C04803F0F3FE4FF4B0
:1050B000804007900146BD4803F06AFF07A9BB483E
:1050C00003F0E8FE4FF4004007900146B74803F0B4
:1050D0005FFF07A9B54803F0DDFE1E208DF8000034
:1050E00001208DF803008DF8010000208DF80200EA
:1050F000684603F072FA0121042004F0B2F900209E
:10510000ADF81800ADF812004EF65F2005900620AD
:10511000ADF8100004A9A64804F0A5FB0020ADF8E6
:105120000400ADF80C00ADF80600ADF80A0001204F
:10513000ADF8080001A99E4804F06CFF0420ADF80A
:10514000040001A99A4804F065FF0820ADF80400A6
:1051500001A9974804F05EFF0C20ADF8040001A9F6
:10516000934804F057FF01221F21914805F01CF8D5
:1051700001218F4804F000FC1F218D4805F028F81C
:1051800009B000BD00B589B00121084604F020F93E
:105190000121880304F076F902220021854803F0FA
:1051A00004FF02220121834803F0FFFE0222114680
:1051B000804803F0FAFE022203217E4803F0F5FE48
:1051C00002208DF8200000208DF822000120079099
:1051D00002208DF8230003208DF82100012175485D
:1051E00003F0D6FE07A9734803F054FE022007908F
:1051F0000221704803F0CCFE07A96E4803F04AFE76
:105200000420079004216B4803F0C2FE07A96948F7
:1052100003F040FE082007900821664803F0B8FE1E
:1052200007A9644803F036FE32208DF80000012003
:105230008DF803008DF801008DF80200684603F038
:10524000CCF90121082004F00CF90020ADF8180079
:10525000ADF812004EF65F2005900620ADF8100064
:1052600004A9554804F0FFFA0020ADF80400ADF899
:105270000C00ADF80600ADF80A000120ADF80800FA
:1052800001A94D4804F0C6FE0420ADF8040001A9B0
:10529000494804F0BFFE0820ADF8040001A94648C3
:1052A00004F0B8FE0C20ADF8040001A9424804F057
:1052B000B1FE01221F21404804F076FF01213E4843
:1052C00004F05AFB1F213C4804F082FF09B000BDE6
:1052D00010B50221364804F07EFF002877D0374809
:1052E0000078E8B332483430006800EE100AB8EEB7
:1052F000400A334880ED020A90ED030A80ED050A6A
:1053000090ED000A80ED070A90ED010A80ED080A91
:1053100090ED020A80ED090A90ED040A80ED0A0A78
:1053200090ED050A80ED0B0A012025490876002042
:1053300081F830001E483430006800EE100AB8EEE4
:10534000400A084680ED000A9FED1E0A80ED030A20
:1053500000201A4908700221154804F028FD15E0C4
:10536000FFE713483430006800EE100AB8EE400A38
:10537000134880ED010A90ED030A80ED040A002134
:105380000B4804F014FD01200C4908704FF6FD7025
:1053900007491AE0E8040020D804002073686F77FA
:1053A000206572726F72210A00000000000C02403A
:1053B0000008004000000240000C0040A200002055
:1053C000380300200000000001E0103108800421B3
:1053D000FE4804F000FF00285AD0FD484078E8B3AA
:1053E000FA4804F098FE00EE100AB8EE400AF948B8
:1053F00080ED020A90ED030A80ED050A90ED000AA7
:1054000080ED070A90ED010A80ED080A90ED020A8E
:1054100080ED090A90ED040A80ED0A0A90ED050A74
:1054200080ED0B0A0120EB490876002081F830005E
:10543000E64804F070FE00EE100AB8EE400AE548B7
:1054400080ED000A1FED210A80ED030A0020E049EB
:1054500048700221DD4804F0BCFC15E0FFE7DB48A2
:1054600004F059FE00EE100AB8EE400AD94880ED6B
:10547000010A90ED030A80ED040A0021D34804F0EC
:10548000A8FC0120D24948700421D04804F0B4FEA1
:105490000821CE4804F09FFE00285AD0CC488078DE
:1054A000E8B3CA4804F03AFE00EE100AB8EE400A2B
:1054B000C94880ED020A90ED030A80ED050A90EDDF
:1054C000000A80ED070A90ED010A80ED080A90EDD0
:1054D000020A80ED090A90ED040A80ED0A0A90EDB7
:1054E000050A80ED0B0A0120BB490876002081F8EF
:1054F0003000B64804F012FE00EE100AB8EE400A82
:10550000B54880ED000A1FED510A80ED030A002026
:10551000AF4988700221AD4804F075FC15E0FFE743
:10552000AA4804F0FBFD00EE100AB8EE400AAA48B3
:1055300080ED010A90ED030A80ED040A0021A348E2
:1055400004F061FC0120A249887008219F4804F002
:1055500053FE10219D4804F03EFE00285AD09C487E
:10556000C078E8B3994804F0DCFD00EE100AB8EE0C
:10557000400A9A4880ED020A90ED030A80ED050A80
:1055800090ED000A80ED070A90ED010A80ED080A0F
:1055900090ED020A80ED090A90ED040A80ED0A0AF6
:1055A00090ED050A80ED0B0A01208C490876002059
:1055B00081F83000854804F0B4FD00EE100AB8EE22
:1055C000400A864880ED000A1FED820A80ED030A3A
:1055D00000207F49C87002217C4804F02EFC15E0B1
:1055E000FFE77A4804F09DFD00EE100AB8EE400A8D
:1055F0007A4880ED010A90ED030A80ED040A00214B
:10560000724804F01AFC01207149C87010216F48DB
:1056100004F0F2FD01216D4804F0DDFD00287AD090
:105620006F4890ED030AF7EE000A30EE200A80ED95
:10563000030A684890ED030AF7EE000A30EE200AEC
:1056400080ED030A644890ED030AF7EE000A30EE9D
:10565000200A80ED030A614890ED030AF7EE000A84
:1056600030EE200A80ED030A5D4890ED030ADFED7D
:105670005D0AB4EEE00AF1EE10FA3DDB1FEDAF0A71
:1056800080ED030A1FEDB10A80ED0A0A1FEDB30A8F
:1056900080ED0B0A1FEDB50A80ED030A1FEDB70A76
:1056A00080ED040A1FEDB90A80ED050A1FEDBB0A63
:1056B00080ED010A1FEDBD0A80ED000A1FEDBF0A53
:1056C00080ED020A1FEDC10A80ED080A1FEDC30A32
:1056D00080ED070A1FEDC50A80ED090A0020404948
:1056E00008764FF48051404803F036FC3C4981F87D
:1056F0003100012081F83000364890ED030ADFEDDB
:10570000390AB4EEE00AF1EE10FA3FDB1FEDD30ADE
:1057100080ED030A00E0E1E01FEDD60A80ED0A0A01
:105720001FEDD80A80ED0B0A1FEDDA0A80ED030A9F
:105730001FEDDC0A80ED040A1FEDDE0A80ED050A8C
:105740001FEDE00A80ED010A1FEDE20A80ED000A7C
:105750001FEDE40A80ED020A1FEDE60A80ED080A5B
:105760001FEDE80A80ED070A1FEDEA0A80ED090A3D
:105770000020184908764FF400511B4803F0ECFB59
:10578000144981F83100012081F83000124890ED71
:10579000030ADFED140AB4EEE00AF1EE10FA51DB71
:1057A0001FEDF80A80ED030A1FEDFA0A80ED0A0AE0
:1057B0001FEDFC0A80ED0B0A9FED0C0A80ED030A39
:1057C0009FED0A0A80ED040A12E000000008004084
:1057D000A20000206C030020A0030020D4030020BE
:1057E000380300200000C842000C02400000000006
:1057F0001FED020A80ED050A1FED040A80ED010A83
:105800001FED060A80ED000A1FED080A80ED020A6E
:105810001FED0A0A80ED080A1FED0C0A80ED070A49
:105820001FED0E0A80ED090A0020FE4908764FF4AC
:105830008041FD4803F090FBFA4981F831000120D6
:1058400081F83000F94890ED030A5FED1A0AB4EED2
:10585000E00AF1EE10FA3DDB1FED1C0A80ED030AB1
:105860001FED1E0A80ED0A0A1FED200A80ED0B0ACB
:105870001FED220A80ED030A1FED240A80ED040AC1
:105880001FED260A80ED050A1FED280A80ED010AAA
:105890001FED2A0A80ED000A1FED2C0A80ED020A96
:1058A0001FED2E0A80ED080A1FED300A80ED070A71
:1058B0001FED320A80ED090A0020DC4908764FF41A
:1058C0000041D94803F048FBD84981F83100012054
:1058D00081F830000121D64804F08EFC10BD10B5CF
:1058E0000221D44804F077FC00285AD0D24800782E
:1058F00000283DD0CF4804F00BFC00EE100AB8EEB3
:10590000400ACE4880ED020A90ED030A80ED050AB8
:1059100090ED000A80ED070A90ED010A80ED080A7B
:1059200090ED020A80ED090A90ED040A80ED0A0A62
:1059300090ED050A80ED0B0A0120C0490876002091
:1059400081F83000BB4804F0E3FB00EE100AB8EE2B
:10595000400ABA4880ED000A1FED5C0A80ED030A98
:105960000020B54908700221B24804F020FA14E082
:10597000B04804F0CDFB00EE100AB8EE400AAF4884
:1059800080ED010A90ED030A80ED040A0021A94888
:1059900004F00DFA0120A84908700221A54804F07E
:1059A0002BFC0421A34804F016FC00285AD0A2487E
:1059B0004078E8B39F4804F0AEFB00EE100AB8EE62
:1059C000400A9F4880ED020A90ED030A80ED050A27
:1059D00090ED000A80ED070A90ED010A80ED080ABB
:1059E00090ED020A80ED090A90ED040A80ED0A0AA2
:1059F00090ED050A80ED0B0A012091490876002000
:105A000081F830008B4804F086FB00EE100AB8EEF7
:105A1000400A8B4880ED000A1FED8C0A80ED030AD6
:105A20000020854948700221824804F0D2F915E02F
:105A3000FFE7804804F06FFB00EE100AB8EE400A62
:105A40007F4880ED010A90ED030A80ED040A0021F1
:105A5000784804F0BEF90120774948700421754860
:105A600004F0CAFB0821734804F0B5FB00285AD0A3
:105A700071488078E8B36F4804F050FB00EE100ADC
:105A8000B8EE400A6F4880ED020A90ED030A80EDFF
:105A9000050A90ED000A80ED070A90ED010A80EDFD
:105AA000080A90ED020A80ED090A90ED040A80EDE3
:105AB0000A0A90ED050A80ED0B0A0120614908767B
:105AC000002081F830005B4804F028FB00EE100A4B
:105AD000B8EE400A5B4880ED000A1FEDBC0A80ED7D
