:020000040800F2
:10000000405F0020C9D90008ED090008EF09000889
:10001000F3090008F7090008FB09000800000000C8
:10002000000000000000000000000000990200082D
:10003000FF09000800000000ED020008ED3A00088A
:10004000E3D90008E3D90008E3D90008E3D90008A0
:10005000E3D90008E3D90008E3D90008E3D9000890
:10006000E3D90008E3D90008E3D90008E3D9000880
:10007000E3D90008E3D90008E3D90008E3D9000870
:10008000E3D90008E3D90008E3D90008E3D9000860
:10009000E3D90008E3D90008E3D90008E3D9000850
:1000A000E3D90008E3D90008E3D90008E3D9000840
:1000B000E3D90008E3D90008A5580008E3D90008EF
:1000C000E3D90008E3D90008E3D90008E3D9000820
:1000D000E3D90008993C0008213E0008E3D9000854
:1000E000E3D90008E3D90008E3D90008E3D9000800
:1000F000E3D90008E3D90008E3D90008E3D90008F0
:10010000E3D90008E3D90008B35E0008E3D900088A
:10011000E3D90008E3D900088D810008E3D900087D
:10012000E3D90008E3D90008E3D90008E3D90008BF
:10013000E3D90008E3D90008E3D90008E3D90008AF
:10014000E3D90008E3D90008E3D90008E3D900089F
:10015000E3D90008E3D90008E3D90008E3D900088F
:10016000E3D90008E3D90008E3D90008E3D900087F
:10017000E3D90008E3D90008E3D90008E3D900086F
:10018000E3D90008E3D9000800F002F800F075F8A0
:100190000AA090E8000C82448344AAF10107DA45E2
:1001A00001D100F06AF8AFF2090EBAE80F0013F0BF
:1001B000010F18BFFB1A43F001031847E82A01009A
:1001C000082B01000A444FF0000C10F8013B13F01B
:1001D000070408BF10F8014B1D1108BF10F8015BA0
:1001E000641E05D010F8016B641E01F8016BF9D193
:1001F00013F0080F1EBF10F8014BAD1C0C1B09D1EA
:100200006D1E58BF01F801CBFAD505E014F8016B5B
:1002100001F8016B6D1EF9D59142D6D370470000ED
:100220000023002400250026103A28BF78C1FBD8FF
:10023000520728BF30C148BF0B607047662910F0D5
:10024000EE8764290DF0F68675290DF0F386632993
:100250000EF0DB8273290EF0E082002070471FB59C
:1002600010F0D3FF0EF044FB04000020002110F03A
:10027000EDF9E0601FBD10B510BD0EF063FC114636
:10028000FFF7EDFF00F0AEFA0EF081FC03B4FFF7CC
:10029000F2FF03BC03F0A0FC2A4B19680868B0E821
:1002A000F04F80F30988BFF36F8F4FF0000080F3A9
:1002B000118870470000000006480068006880F35D
:1002C000088862B661B6BFF34F8FBFF36F8F00DF50
:1002D00000BF00BF08ED00E0DFF80C00016841F44A
:1002E00070010160704700BF88ED00E0EFF3098006
:1002F000BFF36F8F134B1A681EF0100F08BF20ED6D
:10030000108A20E9F04F106008B44FF0500080F3DD
:100310001188BFF34F8FBFF36F8F0CF09EF84FF033
:10032000000080F3118808BC19680868B0E8F04F35
:100330001EF0100F08BFB0EC108A80F30988BFF3DD
:100340006F8F704740010020EFF305807047000079
:1003500010B52DED068B9CB000249FEDFD0AFD48E5
:1003600080ED000A9FEDFA0A80ED010A9FEDF80A80
:1003700080ED020A9FEDF60A80ED040A9FEDF40A73
:1003800080ED050A9FEDF20A80ED060A9FEDF00A66
:100390008DED110A9FEDEE0A8DED120A9FEDEC0A2C
:1003A0008DED130A9FEDEA0A8DED150A9FEDE80A1F
:1003B0008DED160A9FEDE60A8DED170AC82483E03D
:1003C00006A806F06BFB9DED110ADDED060A30EE86
:1003D000200A8DED110A9DED120ADDED070A30EEBF
:1003E000200A8DED120A9DED130ADDED080A30EEAC
:1003F000200A8DED130A9DED150ADDED0A0A30EE97
:10040000200A8DED150A9DED160ADDED0B0A30EE82
:10041000200A8DED160A9DED170ADDED0C0A30EE6F
:10042000200A8DED170A9DED080A10EE101A0846F5
:1004300010F07AFE41EC180B9DED070A10EE101A31
:10044000084610F071FE41EC190B9DED060A10EE06
:10045000101A084610F068FE41EC1A0B8DED028B65
:100460008DED009B53EC1A2BBBA00DF099FD9DED7B
:100470000C0A10EE101A084610F056FE41EC180B4C
:100480009DED0B0A10EE101A084610F04DFE41ECDF
:10049000190B9DED0A0A10EE101A084610F044FEE2
:1004A00041EC1A0B8DED028B8DED009B53EC1A2B5A
:1004B000ACA00DF075FD2146AEA00DF071FD0A2037
:1004C00003F05BFB601EC4B2002C3FF779AF9DEDDB
:1004D000110ADFEDAA0A80EE201A9E4880ED001A6C
:1004E0009DED120ADFEDA50A80EE201A80ED011ABB
:1004F0009DED130ADFEDA10A80EE201A80ED021AAD
:100500009DED150ADFED9D0A80EE201A80ED041A9C
:100510009DED160ADFED990A80EE201A80ED051A8E
:100520009DED170ADFED950A80EE201A80ED061A80
:1005300090ED020A10EE101A084610F0F5FD41EC9D
:10054000180B844890ED010A10EE101A084610F0BE
:10055000EBFD41EC190B7F4890ED000A10EE101AEC
:10056000084610F0E1FD41EC1A0B8DED028B8DED8C
:10057000009B53EC1A2B82A00DF012FD754890EDF4
:10058000060A10EE101A084610F0CEFD41EC180BCA
:10059000704890ED050A10EE101A084610F0C4FDE0
:1005A00041EC190B6B4890ED040A10EE101A084646
:1005B00010F0BAFD41EC1A0B8DED028B8DED009B16
:1005C00053EC1A2B72A00DF0EBFC624890ED023A4E
:1005D000F0EE432A90ED013AB0EE432A90ED003A56
:1005E000F0EE431A90ED063AB0EE431A90ED053A5C
:1005F000F0EE430A90ED043AB0EE430A04A807F087
:1006000013FE9DED050A10EE101A084610F08CFD41
:1006100041EC180B9DED040A10EE101A084610F07C
:1006200083FD41EC190B8DED008B53EC192B5CA075
:100630000DF0B6FC1CB0BDEC068B10BD30B52DED39
:10064000088B85B0002401259FED410AB0EE408A59
:10065000C1E004F00FF9554890ED000ADFED540AAF
:10066000B4EEE00AF1EE10FA04D8B1EE040AB0EEEE
:10067000408A13E04D4890ED000AF2EE030AB4EE12
:10068000E00AF1EE10FA04DBB2EE040AB0EE408AA2
:1006900004E0464890ED000AB0EE408A9FED450A1E
:1006A00028EE000ADFED440A80EE201ABCEEC10AF3
:1006B00010EE100A84B20121204603F054FF0221FB
:1006C000204603F050FF0321204603F04CFF042195
:1006D000204603F048FF354890ED030A10EE101A4B
:1006E000084610F021FD41EC190B304890ED000A4E
:1006F00010EE101A084610F017FD41EC1A0B2B48AB
:1007000090ED020ADFED2D0A20EE200A10EE101AFD
:10071000084610F009FD41EC1B0B8DED029B8DEDA1
:1007200000AB53EC1B2B0CA00DF03AFCC82003F0DF
:1007300024FA022005F05EFF48B10025002108469A
:1007400005F025FF01201E49086032203AE042E012
:10075000000000006405002025662020256620207A
:1007600025660A0025662020256620202566202093
:100770000000000025640A0A000000000000484351
:1007800025662020256620202566200A000000001E
:100790002566202025662020256620202020200098
:1007A000252E316620252E31660A0A00E404002039
:1007B0009A99A94000401C470000C84200803B466F
:1007C0009C02434203F0D9F900207149C1F89C0210
:1007D000012105F0DCFE002D7FF43BAF05B0BDEC40
:1007E000088B30BD08B501244FF4407008F0DAF9E9
:1007F000A82003F083F94FF4E13003F0FAF94FF445
:10080000165003F0BBFA04F0FBFE05F0B1FE012028
:1008100005F07CFF05F0D8FE03F0C7FE06F08AF86D
:1008200006F0C3FE07F076FC002006F094FC0020E2
:1008300006F0E3FB06F0C0FB012005F0DBFEC8B1CB
:10084000322005F07DFF53A30C223221084607F029
:1008500018FC52A30C224621322007F012FCFFF7AD
:10086000EDFE4FF6FF705223F02232210090084631
:1008700007F0E0F906F05EF820B94BA00DF090FB10
:1008800000BFFEE74BA00DF08BFBFFF761FD4BA314
:100890000C220A21084607F0F4FB4AA30C2264212B
:1008A000322007F0EEFB49A30C227821322007F01A
:1008B000E8FB1BE0012005F09DFE60B141A30C2286
:1008C0000A21502007F0DDFB0024322005F038FF1C
:1008D000012043490870022005F08CFE30B100244D
:1008E000322005F02DFF00203D490870002CE1D199
:1008F0004FF6FF708423F02232210090084607F063
:1009000099F938A30C223221084607F0BAFB01F00E
:10091000ADF90BF018FF00BFFEE72DED028B8EB096
:1009200007F04EFC32E03048007878B303A806F0B8
:1009300026F99DED053AF0EE432A9DED043AB0EE1E
:10094000432A9DED033AF0EE431A9DED093AB0EECD
:10095000431A9DED083AF0EE430A9DED073AB0EEDA
:10096000430A01A807F060FC9DED010A10EE101A81
:10097000084610F0D9FB41EC180B53EC182BAFF2E2
:10098000F8100DF00DFB002017490870CBE70000B0
:10099000000043425365742050574D004B45593277
:1009A00020455849540000004D5055204552520AE8
:1009B000000000004D5055204F4B0A005265616405
:1009C0007900000044656275670000007965732056
:1009D0004B455931206E6F204B45593200000000C5
:1009E00000000020474F000003000020704700BFB8
:1009F000FEE700BFFEE700BFFEE700BFFEE770476F
:100A00000CB50020019000907648006840F48030DA
:100A10007449086000BF7348006800F4003000901B
:100A20000198401C0190009818B90198B0F5A04FAA
:100A3000F1D16C48006800F4003010B10120009042
:100A400001E0002000900098012846D16548403020
:100A5000006840F080506349403108606248006897
:100A600040F44040604908605E48083000685D49D5
:100A7000083108600846006840F4004008600846F5
:100A8000006840F4A05008605848091F0860081F1B
:100A9000006840F08070091F086000BF514800687E
:100AA00000F000700028F9D040F20570504908604D
:100AB0004C480830006820F003004A4908310860BB
:100AC0000846006840F00200086000BF4548083052
:100AD000006800F00C000828F8D10CBD10B545489E
:100AE000006840F47000434908603E48006840F0E8
:100AF00001003C49086000203A4908310860394843
:100B000000683D490840374908603C48091D0860B5
:100B1000081F006820F48020091F08600020314968
:100B20000C310860FFF76CFF4FF0006031498039ED
:100B3000086010BD70B500200022022300240221AD
:100B4000284D08352D6805F00C0020B1042806D08A
:100B5000082834D107E02A4D2A4E356033E02A4D6B
:100B6000284E35602FE01F4D2D1D2D68C5F3805494
:100B70001C4D2D1D2D6805F03F0154B1224DB5FBD4
:100B8000F1F5184E361D3668C6F3881605FB06F2D9
:100B900009E01B4DB5FBF1F5124E361D3668C6F364
:100BA000881605FB06F20F4D2D1D2D68C5F3014576
:100BB0006D1C6B00B2FBF3F5124E356003E0104D77
:100BC000104E356000BF00BF064D08352D68C5F3D7
:100BD00003150E4E705D0B4D2D68C540094E3560F6
:100BE00070BD00000038024000700040085440070B
:100BF000003C024088ED00E0FFFFF6FE10300024CC
:100C00000024F4000400002000127A0008000020F4
:100C10000020F7490870F7490870F7490870F7494C
:100C20000870F7490870F7490870F7490870F749E4
:100C300008709FEDF70AF74880ED000A9FEDF40A6F
:100C4000F54880ED000A70471CB5012500260124F7
:100C500003E10DF0F4F801214FF4FA6001F069F9B5
:100C600002214FF4FA6001F064F903214FF4FA60B5
:100C700001F05FF904214FF4FA6001F05AF9E748F6
:100C800000680BF023FCE64800680BF01FFCE54809
:100C900000680BF01BFCE44800680BF017FCE3480D
:100CA00000680BF013FC07F092FA0020E04908708E
:100CB0000120E0490870FFF7ABFF4FF6FF704FF4DB
:100CC0009673F022962100900A2006F0B3FF4FF6AB
:100CD000FF703E23C822322100905A2006F0AAFF5E
:100CE000D5A30C2232215A2007F0CBF94FF6FF7022
:100CF000F023782264210090502006F09BFFD0A3BF
:100D00000C2264211E2007F0BCF900200C210123D5
:100D10002246CDE900106421782007F023F90DF078
:100D2000B1F8642002F029FF012593E0322002F09F
:100D300024FF012001F0B4F838B101F0F1F8601C93
:100D4000C4B2062C00D101240126BEB100260DF04C
:100D500076F84FF6FF7078238222642100901846BF
:100D600006F068FF00200C2101232246CDE9001087
:100D70006421782007F0F6F80DF084F8032001F0E4
:100D80008FF8002866D001F0CBF80DF058F8A8488D
:100D900004704FF6FF703E23C822322100905A2083
:100DA00006F048FF062C27D2DFE804F026030A11DC
:100DB000181FA7A30C2232215A2007F062F91BE06A
:100DC000A5A30C2232215A2007F05BF914E0A4A35A
:100DD0000C2232215A2007F054F90DE0A2A30C2274
:100DE00032215A2007F04DF906E0A1A30C2232214E
:100DF0005A2007F046F900BF00BF062C1DD2DFE8DD
:100E000004F01C03080D1217844800680BF0E3FB84
:100E100013E0834800680BF0DEFB0EE081480068B9
:100E20000BF0D9FB09E0804800680BF0D4FB04E02C
:100E30007E4800680BF0CFFB00BF00BF07F0C0F991
:100E400000207C4908708C4800680BF03FFB0025AF
:100E50000DF018F8002D7FF469AFFAE610E00023DA
:100E60005A1E1946854800680AF09EFA00208449F7
:100E70000860322002F081FE01208249C1F8900210
:100E8000EDE70AE07E48001F0068C0437D49C1F8D5
:100E90008C024FF47A700BF0B7F9F3E708B551E024
:100EA00000235A1E1946784800680AF07DFA0CF0B3
:100EB000C6FF01F035F85E48007810B35C48007852
:100EC00006281DD2DFE800F01C03080D1217534856
:100ED00000680BF0FBFA13E0514800680BF0F6FADB
:100EE0000EE0504800680BF0F1FA09E04E48006847
:100EF0000BF0ECFA04E04D4800680BF0E7FA00BF95
:100F000000BF00204A4908704A48007818B95A487A
:100F100000680BF060FB0120464908704FF6FF7037
:100F20003E23C822322100905A2006F083FE42A3BD
:100F30000C2232215A2007F0A4F80CF0A3FF642001
:100F400002F01BFEACE709E000235A1E19464F4889
:100F500000680AF029FA322005F0F2FBF4E736E0E7
:100F6000012005F047FB40B100231A4619464848C6
:100F700000680AF0D1F800F0CAFF022005F03AFB41
:100F800040B100231A461946424800680AF0C4F8E6
:100F900000F0BDFF032005F02DFB40B100231A46F1
:100FA00019463D4800680AF0B7F800F0B0FF042089
:100FB00005F020FB40B100231A461946324800686C
:100FC0000AF0AAF800F0A3FF14200BF01DF9C7E700
:100FD00000240BE000235A1E1946304800680AF02E
:100FE000E3F90446012C01D100F0C5FFF2E700004F
:100FF00071000020700000207D0000207C00002097
:10100000890000208800002099000020980000201E
:1010100000000000140100202C0100206C000020C2
:101020007800002084000020900000209400002020
:101030000100002018000020537461727420000029
:1010400053656C656374205461736B20000000006D
:101050005461736B203100005461736B20320000C7
:101060005461736B203300005461736B20340000B3
:101070005461736B20350000580000203C000020B4
:10108000900242420000424234000020380000201A
:10109000280000202C00002030000020200000202C
:1010A0002DED0A8B86B000241FED270AB0EE408A92
:1010B0001FED290AF0EE408A00BFFDE300235A1E0F
:1010C0001946FE4800680AF06FF90446012CF4D175
:1010D000FB48008800F4004000287DD00020F8493B
:1010E0000880F8480078582855D1F64840785028AC
:1010F000FAD1F44840794928F6D1F248807A442858
:10110000F2D1F04880783038002846D1ED48C078D8
:101110003038002841D1EB480079303800283CD1E4
:10112000E84880793038B8BBE648C079303898BB99
:10113000E448007A303878BBE248407A303858BB0F
:10114000E048C07A303838BBDE48007B303818BB06
:10115000DC48407B3038F8B9DA48807B3038D8B981
:10116000D94800680FF0E0FF41EC1A0BD74800683F
:101170000FF0DAFF41EC1B0BD54800680FF0D4FFED
:1011800041EC1C0B8DED02AB8DED00BB53EC1C2B29
:10119000D0A00CF005FFA1E0FFE7CA488078303806
:1011A000642110FB01F1C748C078303800EB8000A3
:1011B00001EB4001C34800793038084400EE100AC2
:1011C000B8EEC08ABF48C079303800EE100AB8EED9
:1011D000C00AB2EE041A00E013E3C0EE010AB948F7
:1011E0008079303800EE100AB8EEC00A70EE800A3E
:1011F000B448007A303800EE100AB8EEC00A9FED0D
:10120000BC1AC0EE011A70EEA10AAE48407A30381E
:1012100000EE100AB8EEC00A9FEDB61AC0EE011A31
:1012200070EEA18AA748407B303800EE100AB8EE75
:10123000C00AF2EE040A80EE201AA248007B303881
:1012400000EE100AB8EEC00A9E48C07A303800EEB0
:10125000900AF8EEE00AF2EE041A00EEA10A71EE2E
:10126000000A9848807B303800EE100AB8EEC00AB9
:101270009FED9F1AC0EE011A70EEA10A9148C07B43
:10128000303800EE100AB8EEC00A9FED9A1AC0EE90
:10129000011A30EEA19A8E4880ED008A8B48C0ED8D
:1012A000008A894880ED009A00680FF03DFF41EC0C
:1012B0001A0B864800680FF037FF41EC1B0B84487F
:1012C00000680FF031FF41EC1C0B8DED02AB8DED92
:1012D00000BB53EC1C2B88A00CF062FE7948007810
:1012E000592854D1774840785028FAD17548407928
:1012F0004928F6D17348807A4428F2D17148807821
:101300003038E0BB6F48C0783038C0BB6D480079DA
:101310003038A0BB6B488079303880BB6948C079D1
:10132000303860BB6748007A303840BB6548407A47
:10133000303820BB6348C07A303800BB6148007B3E
:101340003038E0B95F48407B3038C0B95D48807BB9
:101350003038A0B96F4800680FF0E6FE41EC1A0B78
:101360006D4800680FF0E0FE41EC1B0B6B48006815
:101370000FF0DAFE41EC1C0B8DED02AB00E007E054
:101380008DED00BB53EC1C2B65A00CF009FEE0E0DA
:101390004C4880783038642110FB01F14948C0780E
:1013A000303800EB800001EB4001464800793038CE
:1013B000084400EE100AB8EEC08A4248C0793038BE
:1013C00000EE100AB8EEC00AB2EE041AC0EE010A2E
:1013D0003C488079303800EE100AB8EEC00A70EE52
:1013E000800A3848007A303800EE100AB8EEC00A99
:1013F0009FED3F1AC0EE011A70EEA10A3148407A03
:10140000303800EE100AB8EEC00A9FED3A1AC0EE6E
:10141000011A70EEA18A2B48407B303800EE100A8A
:10142000B8EEC00AF2EE040A80EE201A2548007BCE
:10143000303800EE100AB8EEC00A2248C07A3038C0
:1014400000EE900AF8EEE00AF2EE041A00EEA10AAD
:1014500071EE000A1B48807B303800EE100AB8EEAF
:10146000C00A9FED231AC0EE011A70EEA10A1548BA
:10147000C07B303800EE100AB8EEC00A9FED1D1A8E
:10148000C0EE011A30EEA19A244880ED008A22486D
:10149000C0ED008A1F4880ED009A00680FF044FEFE
:1014A00041EC1A0B1C4800680FF03EFE41EC1B0B90
:1014B0001A4800680FF038FE40E000001C000020D1
:1014C000A4000020B4010020080100200401002035
:1014D000000100206E6F7758503D252E3166202088
:1014E000493D252E34662020443D252E35660A00D0
:1014F0000000C84200007A4458503D252E31662035
:1015000020493D252E34662020443D252E35660A8F
:1015100000000000200100201C0100201801002014
:101520006E6F7759503D252E31662020493D252E7E
:1015300034662020443D252E35660A0041EC1C0B04
:101540008DED02AB8DED00BB53EC1C2BF8A00CF025
:1015500027FDFE480078412836D1FC4840785028C5
:1015600032D1FA48407949282ED1F848807830386D
:1015700058BBF648C078303838BBF448007930386A
:1015800018BBF24880793038F8B9F048C079303863
:10159000D8B9EE48007A3038B8B9EC48407A3038DB
:1015A00098B9EB4800680FF0BFFD41EC1A0BE94811
:1015B00000680FF0B9FD41EC1B0B8DED00AB53EC57
:1015C0001B2BE5A00CF0ECFC68E0E048007930381B
:1015D00000EE100AB8EEC00AF2EE040A80EE201AFD
:1015E000DA48C078303800EE100AB8EEC00AD748A2
:1015F0008078303800EE900AF8EEE00AF2EE041A35
:1016000000EEA10A31EE000AB0EE408ACF48C07960
:10161000303800EE100AB8EEC00AB2EE041AC0EE7E
:10162000010ACA488079303800EE100AB8EEC00AC4
:1016300070EE800AC548007A303800EE100AB8EE25
:10164000C00A1FED551AC0EE011A70EEA10ABF487C
:10165000407A303800EE100AB8EEC00A1FED5B1A6F
:10166000C0EE011A30EEA10AF0EE408AB94880EDD2
:10167000008AB748C0ED008A00680FF055FD41ECC4
:101680001A0BB44800680FF04FFD41EC1B0B8DEDB9
:1016900000AB53EC1B2BB0A00CF082FCAB480078E5
:1016A000492828D1A9484078452824D1A7488078DE
:1016B000303802280BD1AC4800680FF035FD41EC02
:1016C0001A0B53EC1A2BA9A00CF06AFC13E09F48EC
:1016D0008078303800EE100AB8EEC00AA24880EDDB
:1016E000000A00680FF020FD41EC1A0B53EC1A2B96
:1016F0009EA00CF055FC9548007859281CD19348C1
:1017000040784F2818D1914880784E2814D18F48BE
:10171000C0783038022805D19648017896A00CF0A0
:101720003FFC09E08948C078303892490870084683
:10173000017891A00CF034FC8448007858281CD122
:10174000824840784F2818D1804880784E2814D19C
:101750007E48C0783038022805D18948017889A0B0
:101760000CF01EFC09E07948C078303884490870D4
:101770000846017883A00CF013FC744800786528B3
:1017800027D172484078782823D170488078303843
:1017900009280BD16D48C0783038092806D17B481C
:1017A00090F900107AA00CF0FBFB12E06748C078BB
:1017B000303866498978303901EB810100EB41000E
:1017C00040B272490870084690F9001070A00CF001
:1017D000E7FB5E480078652827D15C484078792887
:1017E00023D15A488078303809280BD15748C0781F
:1017F0003038092806D1684890F9001067A00CF02D
:10180000CFFB12E05148C0783038504989783039E0
:1018100001EB810100EB410040B25F4908700846CE
:1018200090F900105DA00CF0BBFB5E48008800F44E
:101830000040002840D000205A4908805A480078CB
:1018400078284FD15848007979284BD100F068FBAF
:10185000554880783038092845D15348C078303809
:10186000092840D1494890F900000A2190FBF1F085
:101870003030C0B20590454890F9000090FBF1F27D
:1018800001FB12003030C0B20490012105A802F023
:1018900016FB012104A802F012FB012143A002F073
:1018A0000EFB3A4890F900000A2190FBF1F030302D
:1018B000C0B20590354800E0C0E190F9000090FB0F
:1018C000F1F201FB12003030C0B20490012105A8F2
:1018D00002F0F5FA012104A802F0F1FA012121A099
:1018E00002F0EDFA8EE03048C07830382E49897821
:1018F000303901EB810100EB410040B2234908700F
:101900002948C079303828498979303901EB81017B
:1019100000EB410040B2204908702348407830383D
:1019200020B91A480078404240B241E042E000004D
:1019300059503D252E31662020493D252E34662004
:1019400020443D252E35660A00000000B401002029
:10195000D4000020D00000204B703D256620204B95
:10196000693D25660A000000F8000020493D256613
:101970000A00000072000020594F4E3D25640A0005
:1019800073000020584F4E3D25640A009A00002045
:1019900065783D25640A00009B00002065793D259F
:1019A000640A0000A60000207C0200202020000025
:1019B000FD490870FD484079303828B9FC48007866
:1019C000404240B2FA4908700121F848801C02F0F8
:1019D00076FA0121F548C01C02F071FA0121AFF23C
:1019E000340002F06CFA0121F048801D02F067FA21
:1019F0000121EE48C01D02F062FA0121AFF29C0005
:101A000002F05DFAE948007858287DD1E74840782F
:101A1000502879D1E5484079492875D1E348807A42
:101A2000442871D1E14880783038642110FB01F1FD
:101A3000DE48C078303800EB800001EB4001DB4825
:101A400000793038084400EE100AB8EEC08AD74852
:101A5000C079303800EE100AB8EEC00AB2EE041AAF
:101A6000C0EE010AD1488079303800EE100AB8EE95
:101A7000C00A70EE800ACD48007A303800EE100AB5
:101A8000B8EEC00A9FEDCB1AC0EE011A70EEA10AA3
:101A9000C648407A303800EE100AB8EEC00A9FED12
:101AA000C61AC0EE011A70EEA18AC048407B3038D9
:101AB00000EE100AB8EEC00AF2EE040A80EE201A18
:101AC000BA48007B303800EE100AB8EEC00AB748BA
:101AD000C07A303800EE900AF8EEE00AF2EE041A0E
:101AE00000EEA10A71EE000AB048807B303800EEAB
:101AF000100AB8EEC00A9FEDAF1AC0EE011A70EEE0
:101B0000A10AAA48C07B00E015E0303800EE100AB8
:101B1000B8EEC00A9FEDA81AC0EE011A30EEA19AE5
:101B2000A64880ED008AA648C0ED008AA54880ED51
:101B3000009A00F0ECF99D48007859287ED19B4826
:101B4000407850287AD199484079492876D19748E9
:101B5000807A442872D1954880783038642110FB0F
:101B600001F19248C078303800EB800001EB400171
:101B70008E4800793038084400EE100AB8EEC08A6A
:101B80008A48C079303800EE100AB8EEC00AB2EECA
:101B9000041AC0EE010A85488079303800EE100A38
:101BA000B8EEC00A70EE800A8048007A303800EE45
:101BB000100AB8EEC00A9FED7F1AC0EE011A70EE4F
:101BC000A10A7A48407A303800EE100AB8EEC00A0E
:101BD0009FED791AC0EE011A70EEA18A7348407B1E
:101BE000303800EE100AB8EEC00AF2EE040A80EEB9
:101BF000201A6E48007B303800EE100AB8EEC00A9A
:101C00006A48C07A303800EE900AF8EEE00AF2EE48
:101C1000041A00EEA10A71EE000A6448807B303895
:101C200000EE100AB8EEC00A9FED621AC0EE011A6B
:101C300070EEA10A5D48C07B303800E014E000EE91
:101C4000100AB8EEC00A9FED5C1AC0EE011A30EE21
:101C5000A19A5D4880ED008A5C48C0ED008A5C482E
:101C600080ED009A00F053F9FFF728BA1CB5012463
:101C70000021C82009F094FC564908600021C820C2
:101C800009F08EFC544908600021C82009F088FC46
:101C9000524908600021C82009F082FC50490860C0
:101CA0000021C82009F07CFC4E4908600021C820B2
:101CB00009F076FC4C49086003220021012009F05C
:101CC00030F94A49086003220021012009F029F96E
:101CD000474908603F48006870B13F48006858B104
:101CE0003E48006840B13E48006828B13D48006861
:101CF00010B13D48006818B93EA00CF051F900241D
:101D0000414809210023FA22CDE900103FA1AFF696
:101D10006F4009F0F9FF404809210023FA22CDE97C
:101D200000103EA1AFF6575009F0EEFF3E480A21E1
:101D30000023FA22CDE900103CA1AFF6DD5009F0F6
:101D4000E3FF3C480A2100233222CDE900103AA1EA
:101D5000AFF60D6009F0D8FF3A480B210023FA22B4
:101D6000CDE9001038A1AFF6CB6009F0CDFF3848BF
:101D70000A2100233222CDE9001036A1AFF6FD6022
:101D800009F0C2FF35480A2100233222CDE90010B4
:101D900033A1AFF6377009F0B7FF34480B210023A9
:101DA000FA22CDE9001063E09A0000207C020020B6
:101DB0009B0000200000C84200007A44000100207F
:101DC0000401002008010020180100201C0100204F
:101DD00020010020280000202C00002030000020DE
:101DE00034000020380000203C0000201C000020AF
:101DF00020000020BCC6CAFDD0C5BAC5C1BFB4B45E
:101E0000BDA8CAA7B0DC0A0040000020446174618C
:101E1000494E7461736B000044000020446174619A
:101E20004F55547461736B00480000204B45597442
:101E300061736B0050000020424545507461736B24
:101E4000000000004C000020454E447461736B009C
:101E5000240000204C45447461736B005400002042
:101E60004C4544317461736B000000005800002041
:101E700007A10A4809F048FF00F0D1FC01F03EF844
:101E800001F0CBFA01F01FFC01F0F0FD20461CBD73
:101E900053746172747461736B000000490C000824
:101EA00070B504460025012C06D0022C0ED0032C60
:101EB00016D0042C28D11DE00023022219468648A2
:101EC000006809F071FA00B101251DE0002302222B
:101ED00019468248006809F067FA00B1012513E04D
:101EE0000023022219467E48006809F05DFA00B11D
:101EF000012509E00023022219467A48006809F00A
:101F000053FA00B1012500BF00BF284670BD10B5CF
:101F100000231A4619467448006809F0FDF810BD00
:101F200010B500231A4619467048006809F0F4F805
:101F300010BD70B504460D4640F6AC50844200DD3D
:101F40000446B4F5FA6F01DA4FF4FA6429462046E4
:101F500002F009FB70BD70B5044600250BF06FFF61
:101F6000204604F00CFE05460BF08CFF0DB101205D
:101F700070BD0020FCE72DE9F0412DED048B86B00B
:101F8000044603200590FC2004900025002600272D
:101F90004FF00008564890ED000AF2EE040A20EED9
:101FA000200ABDEEC00A10EE100A05B2504890EDAE
:101FB000010AF2EE040A20EE200ABDEEC00A10EE7D
:101FC000100A06B24B4890ED000AF2EE040A20EE29
:101FD000200ABDEEC00A10EE100A07B2454890ED87
:101FE000010AF2EE040A20EE200ABDEEC00A10EE4D
:101FF000100A0FFA80F8002C45D0012105A801F045
:102000009AFE012104A801F096FEC5F30720039073
:10201000E8B20290012102A801F08DFE012103A87F
:1020200001F089FEC6F307200390F0B2029001216F
:1020300002A801F080FE012103A801F07CFEC7F395
:1020400007200390F8B20290012102A801F073FE6C
:10205000012103A801F06FFEC8F30720039008F0E8
:10206000FF000290012102A801F065FE012103A8F2
:1020700001F061FE012104A801F05DFE012105A827
:1020800001F059FE1AE01A4890ED010A10EE101AFC
:1020900008460FF049F841EC180B154890ED000A7E
:1020A00010EE101A08460FF03FF841EC190B8DEDB9
:1020B000008B53EC192B10A00BF072FF06B0BDEC97
:1020C000048BBDE8F08110B500231A4619460D486F
:1020D000006809F021F810BD280000202C00002025
:1020E0003000002034000020380000203C00002098
:1020F000640000205C000020252E326620252E3250
:10210000660A0000200000202DED0E8B94B09FED9C
:10211000FE0AB0EE408A002400BF9FEDFB0A10EEDD
:10212000107A9FEDF90A10EE108A9FEDF70A10EE73
:1021300010AA9FEDF50A10EE106A0125A3460020B3
:1021400002906BE30BF07BFE9FEDEF0AF0EE409AFE
:102150009FEDED0AB0EE40EA01214FF4FA60FFF77F
:10216000E8FE02214FF4FA60FFF7E3FE03214FF48B
:10217000FA60FFF7DEFE04214FF4FA60FFF7D9FEA4
:102180004FF6FF70A223762296210090642005F07E
:1021900051FD4FF6FF70F0231A46962100900A2059
:1021A00005F048FDD9A30C2296210A2005F069FF0D
:1021B000D7A30C2296211E2005F063FF00200C21DE
:1021C000B2EE040A28EE000ABCEEC00A10EE102A95
:1021D0000323CDE900109621422005F0C3FECEA3D3
:1021E0000C22A2211E2005F04CFF00200C2103230D
:1021F0002246CDE90010A221422005F0B3FE4FF6A1
:10220000FF70A2231022962100900A2005F012FDF3
:102210004FF6FF70AE231022A22100900A2005F095
:1022200009FDBAA30C2296210A2005F02AFF0BF023
:1022300029FE05F0CCFF0120B94908700020B949FA
:10224000087083469EE1322001F097FC0120FFF7E1
:1022500027FE60B3012D1DD1B0EE040A38EE000A4E
:10226000B0EE408A9FEDB00AB4EEC08AF1EE10FAEB
:1022700003DD9FEDA50AB0EE408A18EE100A0EF0BD
:1022800053FF41EC1A0B53EC1A2BA8A00BF088FE5D
:102290004FF0010B022D0AD1601D04B2B42C00DDF9
:1022A00000242146A3A00BF07BFE4FF0010B02207F
:1022B000FFF7F6FD50B3012D1BD1B0EE040A38EE46
:1022C000400AB0EE408AB5EEC08AF1EE10FA03D2B1
:1022D0009FED950AB0EE408A18EE100A0EF024FF2A
:1022E00041EC1A0B53EC1A2B90A00BF059FE4FF057
:1022F000010B022D0AD1601F04B2002C00DAB424B5
:1023000021468CA00BF04CFE4FF0010BBBF1000FEF
:1023100032D00BF094FD4FF6FF70A2237822962165
:102320000090422005F086FC4FF6FF70AE23782225
:10233000A2210090422005F07DFC00200C21B2EE8D
:10234000040A28EE000ABCEEC00A10EE102A03238D
:10235000CDE900109621422005F004FE00200C215A
:1023600003232246CDE90010A221422005F0FAFD08
:102370000BF088FD4FF0000B0320FFF791FD0028C4
:102380007DD0681CC5B2022D12D10BF058FD4FF65E
:10239000FF70A2231022962100900A2005F04AFC2B
:1023A0005AA30C22A2210A2005F06BFE0BF06AFD55
:1023B000032D64D10BF043FD4FF6FF70A2231022D2
:1023C000962100900A2005F035FC4FF6FF70AE23F1
:1023D0001022A22100900A2005F02CFC5AA30C2206
:1023E0009621642005F04DFE0BF04CFD00EE104AE6
:1023F000B8EEC00ADFED550A20EE200A10EE101AE2
:1024000008460EF091FE41EC1D0BB0EE4D0AF0EEC9
:102410006D0A0DF0F9FBB0EE40BAF0EE60BA18EEBE
:10242000100A0EF081FE41EC1C0B53EC1B2B0EF03E
:10243000BBFB41EC1A0B0EF02BF908EE900A00EEF4
:10244000104AB8EEC00ADFED410A20EE200A10EE75
:10245000101A08460EF068FE41EC1D0BB0EE4D0A56
:10246000F0EE6D0A0DF03CFCB0EE40BAF0EE60BA52
:1024700018EE100A0EF058FE41EC1C0B00E081E053
:1024800053EC1B2B0EF090FB41EC1A0B0EF000F9F5
:1024900009EE100A9FED2E0AC8EE800A10EE909AFF
:1024A00048460EF041FE41EC1C0BB0EE4C0AF0EE3B
:1024B0006C0A0DF041F9B0EE40BAF0EE60BA9FED53
:1024C000250B53EC102B51EC1B0B0EF06DFB41EC6C
:1024D0001A0B0EF0DDF807469FED1D0AC9EE000A43
:1024E00010EE909A48460EF01FFE41EC1C0BB0EE29
:1024F0004C0AF0EE6C0A0DF01FF9B0EE40BAF0EEA7
:1025000060BA9FED140B29E0000000002A000000D3
:102510002053203D202000004465673D202000001E
:10252000700000207100002000002042533D202553
:10253000660A00006F66667365745F64656772653E
:10254000653D2025640A000052554E0021F98E3C5D
:102550000000B042000000C0DCA54C4053EC102B42
:1025600051EC1B0B0EF020FB41EC1A0B0EF090F817
:10257000804601250020B04908700120AF4908704D
:1025800005F01EFEAC48007800287FF45CAEAC4934
:1025900008601FED230AAB4880ED000A1FED260AF4
:1025A000A94880ED000A34E1012006F065FA002315
:1025B0005A1E1946A548006808F0F6FE02900298D7
:1025C0000128F0D109A8FFF7C6FC9DED0B3AF0EE0B
:1025D000432A9DED0A3AB0EE432A9DED093AF0EE0A
:1025E000431A9DED0F3AB0EE431A9DED0E3AF0EE10
:1025F000430A9DED0D3AB0EE430A07A805F014FE1C
:102600009DED070ADDED030A30EE200ADDED040A38
:1026100030EE200AF0EE080A80EE201A8C4880ED99
:10262000001A9DED080ADDED050A30EE200ADDED09
:10263000060A30EE200AF0EE080A80EE201A80ED3D
:10264000011A9DED030A8DED040A9DED070A8DED3B
:10265000030A9DED050A8DED060A9DED080A8DED34
:10266000050A774800680A3075490860084690ED09
:10267000000AB8EE400ADFED770A80EE201A11EE6C
:1026800010AA50460EF050FD41EC1B0B9FED720B53
:1026900053EC102B0EF088FA41EC1A0B0DF0F8FFFA
:1026A00006466B4890ED000ADFED6D0AB4EEE00AD5
:1026B000F1EE10FA1ADA90ED000ADFED6A0AB4EED4
:1026C000E00AF1EE10FA11D990ED010ADFED640A8B
:1026D000B4EEE00AF1EE10FA08DA90ED010ADFED4F
:1026E000610AB4EEE00AF1EE10FA1ED81FED7A0A84
:1026F000544880ED000A1FED7C0A534880ED000A23
:1027000001214FF4FA60FFF714FC02214FF4FA6044
:10271000FFF70FFC03214FF4FA60FFF70AFC0421D6
:102720004FF4FA60FFF705FC63E04F48007858B3B8
:1027300030460EF0F9FC41EC1D0BB0EE4D0AF0EE08
:102740006D0A0DF0CDFAB0EE40BAF0EE60BA384640
:102750000EF0EAFC41EC1C0B53EC1B2B0EF024FAA0
:1027600041EC1A0B0DF094FF40490860084690EDCB
:10277000001AF0EE410A364890ED001AB0EE410A18
:1027800005F09EFFF0EE409A3948007858B3304685
:102790000EF0CAFC41EC1D0BB0EE4D0AF0EE6D0AD6
:1027A0000DF09EFAB0EE40BAF0EE60BA40460EF080
:1027B000BBFC41EC1C0B53EC1B2B0EF0F5F941EC70
:1027C0001A0B0DF065FF29494860084690ED011A83
:1027D000F0EE410A1E4890ED011AB0EE410A06F0F3
:1027E0002AF8B0EE40EAF0EE4E0AB0EE690A06F0C2
:1027F000DCF82048007808B1FFF765FC0320FFF7FC
:102800004FFB30B105F0E3FC00200C4908700A4989
:1028100008700A48007800287FF4C6AE92E41CB520
:1028200015480A210023FA22CDE9001013A1AFF2C6
:10283000277009F069FA1CBD7000002071000020AB
:1028400074000020140100202C010020CC00002086
:102850006400002000E0CE446E861BF0F921194090
:1028600000004842000048C2730000205C000020C5
:1028700072000020000000206C0000205461736B87
:10288000317461736B0000002DED0E8B94B09FEDE1
:10289000FE0AB0EE408A9FEDFC0AF0EE408A00BFCF
:1028A0009FEDF90A10EE105A9FEDF70A10EE108A0C
:1028B0009FEDF50AB0EE409A0124002700261CE3A4
:1028C0000BF0BDFA9FEDF00AF0EE409A9FEDEE0A94
:1028D000B0EE40EA01214FF4FA60FFF72AFB022133
:1028E0004FF4FA60FFF725FB03214FF4FA60FFF77E
:1028F00020FB04214FF4FA60FFF71BFB4FF6FF703B
:10290000A223762296210090642005F093F94FF6D9
:10291000FF70F0231A46962100900A2005F08AF9EC
:10292000DAA30C2296210A2005F0ABFBD8A30C22D7
:1029300096211E2005F0A5FB00200C21B2EE040A12
:1029400028EE000ABCEEC00A10EE102A0323CDE9DF
:1029500000109621422005F005FBCFA30C22AE21EA
:102960001E2005F08EFB00200C210323BCEEE80A9C
:1029700010EE102ACDE90010AE21422005F0F2FA47
:102980004FF6FF70A2231022962100900A2005F036
:1029900051F94FF6FF70AE231022A22100900A20B9
:1029A00005F048F9B9A30C2296210A2005F069FB2D
:1029B0000BF068FA05F00BFC0120BA490870002002
:1029C000B9490870002728E1322001F0D6F801202B
:1029D000FFF766FAD0B3012C1CD1B0EE040A38EE32
:1029E000000AB0EE408A9FEDB10AB4EEC08AF1EE63
:1029F00010FA03DD9FEDA40AB0EE408A18EE100A2B
:102A00000EF092FB41EC1A0B53EC1A2BA8A00BF022
:102A1000C7FA0127022C1ED1B1EE040A38EE800A53
:102A2000F0EE408A9FEDA40AF4EEC08AF1EE10FAAF
:102A300003DD9FED950AF0EE408A18EE900A0EF045
:102A400073FB41EC1A0B53EC1A2B00E003E09BA044
:102A50000BF0A6FA01270220FFF722FAC8B3012CD7
:102A60001AD1B0EE040A38EE400AB0EE408AB5EE54
:102A7000C08AF1EE10FA03D29FED8C0AB0EE408AC4
:102A800018EE100A0EF050FB41EC1A0B53EC1A2B07
:102A900087A00BF085FA0127022C1AD1B1EE040AA7
:102AA00038EEC00AF0EE408AF5EEC08AF1EE10FA78
:102AB00003D29FED810AF0EE408A18EE900A0EF0E4
:102AC00033FB41EC1A0B53EC1A2B7CA00BF068FA89
:102AD0000127A7B30BF0B3F94FF6FF70A2237822BA
:102AE00096210090422005F0A5F84FF6FF70AE2326
:102AF0007822194600905A2005F09CF800200C21FD
:102B0000B2EE040A28EE000ABCEEC00A10EE102A4B
:102B10000323CDE900109621422005F023FA00207E
:102B20000C210323BCEEE80A10EE102ACDE90010B8
:102B3000AE21422005F016FA0BF0A4F9002703207D
:102B4000FFF7AEF9002868D0601CC4B2022C12D185
:102B50000BF075F94FF6FF70A2231022962100901A
:102B60000A2005F067F849A30C22B0210A2005F0DD
:102B700088FA0BF087F9032C4FD10BF060F94FF670
:102B8000FF70A2231022962100900A2005F052F82F
:102B90004FF6FF70AE231022A22100900A2005F00C
:102BA00049F84FF6FF70BA231022AE2100900A2098
:102BB00005F040F844A30C229621642005F061FA48
:102BC0000BF060F99FED410AC8EE000A10EE909AF2
:102BD00048460EF0A9FA41EC1C0BB0EE4C0AF0EEA0
:102BE0006C0A0CF0A9FDB0EE40BAF0EE60BA9FEDB1
:102BF000380B53EC102B51EC1B0B0DF0D5FF41ECB7
:102C00001A0B0DF045FD05460124002025490870EA
:102C100001202549087005F0D3FA224800780028E1
:102C20007FF4D2AE9FED180A2B4880ED000A9FED8D
:102C3000160A2A4880ED000A5AE1012005F01CFF1F
:102C400000235A1E19462648006808F0ADFB0646C8
:102C5000012EF1D109A8FFF77EF99DED0B3AF0EEB8
:102C6000432A9DED0A3AB0EE432A9DED093AF0EE73
:102C7000431A9DED0F3AB0EE431A9DED0E3AF0EE79
:102C8000430A9DED0D3A2DE0000000002A000000EF
:102C90002053203D2020000070686173653D202096
:102CA000000000007C0000207D0000200000204289
:102CB000533D2025660A00000000B443706861732C
:102CC000653D2025660A000052554E000000B042C6
:102CD000000000C0DCA54C40140100202C010020A5
:102CE000CC000020B0EE430A07A805F09DFA9DED48
:102CF000070ADDED030A30EE200ADDED040A30EEAE
:102D0000200AF0EE080A80EE201A834880ED001AAF
:102D10009DED080ADDED050A30EE200ADDED060A1C
:102D200030EE200AF0EE080A80EE201A80ED011A3B
:102D30009DED030A8DED040A9DED070A8DED030A52
:102D40009DED050A8DED060A9DED080A8DED050A3B
:102D5000724800680A3071490860084690ED000A20
:102D6000B8EE400ADFED6E0A80EE201A11EE108AEE
:102D700040460EF0D9F941EC1B0B9FED6A0B53EC6A
:102D8000102B0DF011FF41EC1A0B0DF081FC09EE38
:102D9000100A614890ED000ADFED640AB4EEE00A23
:102DA000F1EE10FA08DA90ED000ADFED610AB4EEF8
:102DB000E00AF1EE10FA1ED81FED4D0A5D4880EDD5
:102DC000000A1FED4F0A5C4880ED000A01214FF414
:102DD000FA60FFF7AEF802214FF4FA60FFF7A9F8A6
:102DE00003214FF4FA60FFF7A4F804214FF4FA60CE
:102DF000FFF79FF86CE05148007860B319EE100AB5
:102E00000EF092F941EC1D0BB0EE4D0AF0EE6D0A9A
:102E10000CF066FFB0EE40BAF0EE60BA28460EF055
:102E200083F941EC1C0B53EC1B2B0DF0BDFE41EC68
:102E30001A0B0DF02DFC42490860084690ED001A6F
:102E4000F0EE410A344890ED001AB0EE410A05F068
:102E500037FCF0EE409A3B48007898B3DFED3A0A31
:102E6000B0EE490A08EEA00A10EE101A08460EF05D
:102E70005BF941EC1D0BB0EE4D0AF0EE6D0A0CF063
:102E80002FFFB0EE40BAF0EE60BA28460EF04CF9D3
:102E900041EC1C0B53EC1B2B0DF086FE41EC1A0B86
:102EA0000DF0F6FB26494860084690ED011AF0EE59
:102EB000410A194890ED011AB0EE410A05F0BBFC39
:102EC000B0EE40EAF0EE4E0AB0EE690A05F06DFD94
:102ED0001E48007808B1FFF7F6F80320FEF7E0FF80
:102EE00030B105F074F900201949087019490870CB
:102EF0001748007800287FF4A0AEE1E41CB516481E
:102F00000A210023FA22CDE9001014A1AFF2876054
:102F100008F0FAFE1CBD00006400002080000020C4
:102F200000E0CE446E861BF0F921194000004842B3
:102F3000000048C2140100202C0100207300002072
:102F40005C0000207200002021F98E3C000000206F
:102F50007D0000207C000020780000205461736B0D
:102F6000327461736B0000002DED0E8B92B0002562
:102F70009FEDFE0AF0EE408A9FEDFC0AB0EE409A0B
:102F8000002449E20AF05BFF9FEDF80AB0EE408AA8
:102F90009FEDF60AF0EE409A01214FF4FA60FEF739
:102FA000C8FF02214FF4FA60FEF7C3FF03214FF47C
:102FB000FA60FEF7BEFF04214FF4FA60FEF7B9FF96
:102FC0004FF6FF70A223F02296210090642004F0B7
:102FD00031FEE7A30C229621642005F052F8FDF79C
:102FE00017FE0AF04FFF05F0F2F80120E2490870E1
:102FF0000020E249087024E0142000F0BEFD032008
:10300000FEF74EFFE8B10AF01AFF4FF6FF70A22359
:10301000F02296210090642004F00CFED8A30C222C
:103020009621642005F02DF80AF02CFF322000F0E4
:10303000A4FD0020D04908700120D049087005F097
:10304000BFF8CD4800780028D6D100249FEDC70AEC
:10305000CC4880ED000A9FEDC50ACB4880ED000A00
:103060009FEDC20AC94880ED000AD0E1012005F0B9
:1030700003FD00235A1E1946C548006808F094F95C
:103080000546012DF1D107A8FEF765FF9DED093A30
:10309000F0EE432A9DED083AB0EE432A9DED073A43
:1030A000F0EE431A9DED0D3AB0EE431A9DED0C3A49
:1030B000F0EE430A9DED0B3AB0EE430A05A805F089
:1030C000B3F89DED050ADDED010A30EE200ADDEDD5
:1030D000020A30EE200AF0EE080A80EE201AAD480F
:1030E00080ED001A9DED060ADDED030A30EE200AA0
:1030F000DDED040A30EE200AF0EE080A80EE201A18
:1031000080ED011A9DED010A8DED020A9DED050A83
:103110008DED010A9DED030A8DED040A9DED060A71
:103120008DED030A601CC4B2012C09D1002495481E
:1031300090ED000ADFED980A30EE200A80ED000ADB
:10314000904800680DF0F0FF41EC1D0BB0EE4D0A09
:10315000F0EE6D0A0CF058FDB0EE40BAF0EE60BA39
:10316000884890ED000AF0EE080A20EE200A10EEE2
:10317000101A08460DF0D8FF41EC1E0BB0EE4E0AB7
:10318000F0EE6E0A0CF0ACFDB0EE40DAF0EE60DA74
:103190009FED820B53EC102B51EC1D0B0DF004FD39
:1031A00041EC1C0B53EC1B2B0DF0FEFC41EC1A0BFD
:1031B0000DF06EFA08EE900A724800680DF0B4FF48
:1031C00041EC1D0BB0EE4D0AF0EE6D0A0CF088FDDF
:1031D000B0EE40BAF0EE60BA6A4890ED000AF0EE48
:1031E000080A20EE200A10EE101A08460DF09CFF87
:1031F00041EC1E0BB0EE4E0AF0EE6E0A0CF070FDC4
:10320000B0EE40DAF0EE60DA9FED640B53EC102B79
:1032100051EC1D0B0DF0C8FC41EC1C0B53EC1B2BAF
:103220000DF0C2FC41EC1A0B0DF032FA09EE100A57
:103230009FED5C0AC8EE800A10EE906A30460DF0F1
:1032400073FF41EC1C0BB0EE4C0AF0EE6C0A0CF074
:1032500073FAB0EE40BAF0EE60BA9FED530B53EC48
:10326000102B51EC1B0B0DF09FFC41EC1A0B0DF0D9
:103270000FFA4F4908609FED4B0AC9EE000A10EEA5
:10328000906A30460DF050FF41EC1C0BB0EE4C0A3A
:10329000F0EE6C0A0CF050FAB0EE40BAF0EE60BA04
:1032A0009FED410B53EC102B51EC1B0B0DF07CFCF4
:1032B00041EC1A0B0DF0ECF93D494860354890EDB2
:1032C000000ADFED3C0AB4EEE00AF1EE10FA1ADA79
:1032D00090ED000ADFED380AB4EEE00AF1EE10FAE4
:1032E00011D990ED010ADFED330AB4EEE00AF1EEF8
:1032F00010FA08DA90ED010ADFED2F0AB4EEE00AC9
:10330000F1EE10FA1ED89FED190A1F4880ED000A51
:103310009FED160A1D4880ED000A01214FF4FA6066
:10332000FEF707FE02214FF4FA60FEF702FE0321CA
:103330004FF4FA60FEF7FDFD04214FF4FA60FEF74A
:10334000F8FD54E01D48007868B1194890ED001A66
:10335000F0EE410A0F4890ED001AB0EE410A05F078
:10336000AFF9B0EE408A164800782BE0000000006C
:1033700053544F50000000008800002089000020B6
:1033800052554E008C000020140100202C0100201A
:10339000CC000020640000200AD7233C000000007D
:1033A000000034400000B0420000008013A64C40F2
:1033B0005C00002000004842000048C2730000206A
:1033C0007200002068B14C4890ED011AF0EE410AFD
:1033D0004A4890ED011AB0EE410A05F02CFAF0EEE1
:1033E000409AF0EE690AB0EE480A05F0DEFA444869
:1033F000007808B1FEF767FE0320FEF751FD30B1FB
:1034000004F0E5FE00203F4908703F4908703D4840
:10341000007800287FF42AAEB4E51CB53B480A21A9
:103420000023FA22CDE9001039A1AFF2C34008F021
:103430006BFC1CBD10B592B00024322458E014205F
:1034400000F09BFB07A8FEF786FD9DED093AF0EE24
:10345000432A9DED083AB0EE432A9DED073AF0EE7F
:10346000431A9DED0D3AB0EE431A9DED0C3AF0EE85
:10347000430A9DED0B3AB0EE430A05A804F0D4FED2
:103480009DED050ADDED010A30EE200ADDED020AB0
:1034900030EE200AF0EE080A80EE201A174880ED80
:1034A000001A9DED060ADDED030A30EE200ADDED7F
:1034B000040A30EE200AF0EE080A80EE201A80EDB1
:1034C000011A9DED010A8DED020A9DED050A8DEDB3
:1034D000010A9DED030A8DED040A9DED060A8DEDAE
:1034E000030A0748007808B1FEF7EDFD601E84B2BC
:1034F000002CA4DC12B010BD5C0000206400002091
:1035000000000020890000208800002084000020A6
:103510005461736B337461736B0000002DED028B8B
:1035200092B00024CEE0042005F0A6FA00235A1E33
:1035300019466B48006807F037FF0446012CF1D1AB
:1035400007A8FEF708FD9DED093AF0EE432A9DED30
:10355000083AB0EE432A9DED073AF0EE431A9DED8E
:103560000D3AB0EE431A9DED0C3AF0EE430A9DED94
:103570000B3AB0EE430A05A804F056FE9DED050A8D
:10358000DDED010A30EE200ADDED020A30EE200A00
:10359000F0EE080A80EE201A524880ED001A9DEDE8
:1035A000060ADDED030A30EE200ADDED040A30EEF6
:1035B000200AF0EE080A80EE201A80ED011A9DED37
:1035C000010A8DED020A9DED050A8DED010A9DEDC2
:1035D000030A8DED040A9DED060A8DED030A90EDB8
:1035E000000ADFED410AB4EEE00AF1EE10FA1ADA51
:1035F00090ED000ADFED3D0AB4EEE00AF1EE10FABC
:1036000011D990ED010ADFED380AB4EEE00AF1EECF
:1036100010FA08DA90ED010ADFED340AB4EEE00AA0
:10362000F1EE10FA1ED89FED320A324880ED000A02
:103630009FED2F0A304880ED000A01214FF4FA6017
:10364000FEF777FC02214FF4FA60FEF772FC0321CB
:103650004FF4FA60FEF76DFC04214FF4FA60FEF7B8
:1036600068FC2FE02548007888B19FED210A2448A6
:1036700080ED000A90ED001AF0EE410A194890ED35
:10368000001AB0EE410A05F01BF8F0EE408A1D4822
:10369000007888B19FED160A194880ED010A90ED77
:1036A000011AF0EE410A0F4890ED011AB0EE410AFE
:1036B00005F0C1F8B0EE408AF0EE480AB0EE680AB4
:1036C00005F073F92FE71CB50F480A210023FA22F1
:1036D000CDE900100DA1AFF2BB1008F015FB1CBD29
:1036E000CC0000206400002000004842000048C2D6
:1036F00000000000140100202C01002073000020B5
:103700005C00002072000020900000205461736B68
:10371000347461736B0000002DED088B92B00024AF
:103720000A20D94908700020D84908709DE10AF0A4
:1037300086FB9FEDD70AB0EE408A9FEDD50AF0EEEA
:10374000408A01214FF4FA60FEF7F3FB02214FF4A7
:10375000FA60FEF7EEFB03214FF4FA60FEF7E9FB97
:1037600004214FF4FA60FEF7E4FB4FF6FF70A2234A
:10377000F02296210090642004F05CFAC5A30C228C
:103780009621642004F07DFCFDF742FA0AF07AFBF2
:1037900004F01DFD0120C14908700020C0490870D7
:1037A00024E0142000F0E9F90320FEF779FBE8B1EA
:1037B0000AF045FB4FF6FF70A223F02296210090FD
:1037C000642004F037FAB7A30C229621642004F099
:1037D00058FC0AF057FB322000F0CFF90020AF4927
:1037E00008700120AE49087004F0EAFCAB4800788C
:1037F0000028D6D19FEDA60AAB4880ED000A9FEDC8
:10380000A40AAA4880ED000A2AE1012005F034F953
:1038100000235A1E1946A648006807F0C5FD044655
:10382000012CF1D107A8FEF796FB9DED093AF0EEC9
:10383000432A9DED083AB0EE432A9DED073AF0EE9B
:10384000431A9DED0D3AB0EE431A9DED0C3AF0EEA1
:10385000430A9DED0B3AB0EE430A05A804F0E4FCE0
:103860009DED050ADDED010A30EE200ADDED020ACC
:1038700030EE200AF0EE080A80EE201A8D4880ED26
:10388000001A9DED060ADDED030A30EE200ADDED9B
:10389000040A30EE200AF0EE080A80EE201A80EDCD
:1038A000011A9DED010A8DED020A9DED050A8DEDCF
:1038B000010A9DED030A8DED040A9DED060A8DEDCA
:1038C000030A90ED000ADFED7C0AB4EEE00AF1EEA7
:1038D00010FA1ADA90ED000ADFED780AB4EEE00A89
:1038E000F1EE10FA11D990ED010ADFED730AB4EE92
:1038F000E00AF1EE10FA08DA90ED010ADFED6F0A46
:10390000B4EEE00AF1EE10FA1ED89FED610A6648A7
:1039100080ED000A9FED5E0A644880ED000A0121F7
:103920004FF4FA60FEF705FB02214FF4FA60FEF750
:1039300000FB03214FF4FA60FEF7FBFA04214FF479
:10394000FA60FEF7F6FA7BE05D480078B8B34E48BF
:1039500090F9000000EE100AB8EEC00ADFED590A37
:1039600080EE201A11EE105A28460DF0DDFB41ECD6
:103970001B0BB0EE4B0AF0EE6B0A0BF0DDFEB0EE67
:1039800040AAF0EE60AA9FED500B53EC102B51ECC7
:103990001A0B0DF009F941EC190B0CF079FE4C49AA
:1039A0000860084690ED001AF0EE410A414890ED9B
:1039B000001AB0EE410A04F083FEB0EE408A45489A
:1039C0000078B8B3314890F9000000EE100AB8EE64
:1039D000C00ADFED3C0A80EE201A11EE105A28468C
:1039E0000DF0A2FB41EC1B0BB0EE4B0AF0EE6B0AA4
:1039F0000BF0A2FEB0EE40AAF0EE60AA9FED320BF3
:103A000053EC102B51EC1A0B0DF0CEF841EC190BC6
:103A10000CF03EFE2E494860084690ED011AF0EE8B
:103A2000410A244890ED011AB0EE410A04F003FF68
:103A3000F0EE408AF0EE680AB0EE480A04F0B5FFF6
:103A40002548007808B1FEF73EFB0320FEF728FA70
:103A500030B104F0BCFB0020114908700F49087018
:103A60000F48007800287FF4D0AE60E61CB51B48F4
:103A70000A210023FA22CDE9001019A1AFF2673024
:103A800008F042F91CBD00009A0000209B000020B5
:103A90000000000053544F50000000009800002028
:103AA0009900002052554E00140100202C010020E6
:103AB000CC0000206400002000004842000048C202
:103AC000730000200000B0420000008013A64C40AC
:103AD0005C00002072000020000000209400002004
:103AE0005461736B357461736B00000010B509F09D
:103AF000DCF8012801D00AF0DDF910BD70B50446EC
:103B0000042005F0A1F83248047025464FF47A707D
:103B1000454301202F4908804FF0E020006940F024
:103B200002004FF0E021086108464561006940F05D
:103B30000100086170BD70B5034600224FF0E02619
:103B40007569234E367803FB06F44FF0E026B16921
:103B500010E04FF0E026B06988420BD0884202D2D4
:103B60000E1A324402E02E1A0E4432440146A2429A
:103B700000D300E0EDE700BF70BD70B5044609F06A
:103B800094F8012810D013480088844206D31148C5
:103B90000088B4FBF0F5284608F036FB0D48008895
:103BA000B4FBF0F100FB11444FF47A7104FB01F017
:103BB000FFF7C1FF70BD30B50446002504E04FF4A7
:103BC0007A70FFF7B8FF6D1CA542F8D330BD000036
:103BD0009C0000209E00002000BF704700BF604A8C
:103BE000128802F04002002AF9D0C2B25C4B9A80DF
:103BF000704710B588B004460121084605F0D2FE92
:103C00000121102005F028FF07220921554805F061
:103C1000B6FC07220A21534805F0B1FC4FF4C060FE
:103C2000069002208DF81C008DF81D0000208DF8F4
:103C30001E0001208DF81F0006A94A4805F014FC5B
:103C400002940020ADF80C00ADF80E00ADF81000A5
:103C5000ADF814000C20ADF8120002A9404806F09F
:103C6000F8FE01213E4806F07CFF012240F225517A
:103C70003B4807F02CF825208DF804000A208DF829
:103C8000050000208DF8060001208DF8070001A82E
:103C900004F08DFF08B010BD38B540F22551304812
:103CA00007F050F810B32E4806F08AFFC4B22E4831
:103CB000008800F40040C8B92B48008800F4804018
:103CC00060B10A2C03D000202749088020E0264854
:103CD000008840F400402449088019E00D2C06D1EA
:103CE0002148008840F480401F49088010E01E48A9
:103CF0000088C0F30D001D490C541B480088401C6F
:103D00001949088008460088C72801DD002008807E
:103D10001748007870B169461648006807F0E6FC5D
:103D2000009838B14FF0805013490860BFF34F8FAF
:103D3000BFF36F8F38BD70B505460E4600240CE00A
:103D4000295D074806F038FF00BF4021044806F00F
:103D5000E3FF0028F9D0601CC4B2B442F0DB70BDB0
:103D60000010014000000240A4000020B401002027
:103D7000020000201C00002004ED00E010B588B017
:103D800004460121084605F00DFE0121480405F016
:103D900052FE07220221544805F0F1FB07220321BD
:103DA000514805F0ECFB0C20069002208DF81C0019
:103DB0008DF81D0000208DF81E0001208DF81F00D9
:103DC00006A9494805F050FB02940020ADF80C000C
:103DD000ADF80E00ADF81000ADF814000C20ADF8F1
:103DE000120002A9414806F034FE01213F4806F0C6
:103DF000B8FE012240F225513C4806F068FF26201B
:103E00008DF804000B208DF8050000208DF80600C9
:103E100001208DF8070001A804F0C9FE08B010BD0C
:103E200038B540F22551314806F08CFF10B32F48C9
:103E300006F0C6FEC4B22E48008800F40040C8B99F
:103E40002B48008800F4804060B10A2C03D0002089
:103E50002749088020E02648008840F40040244993
:103E6000088019E00D2C06D12148008840F48040DC
:103E70001F49088010E01E480088C0F30D001D494E
:103E80000C541B480088401C1949088008460088CB
:103E9000C72801DD002008801748007870B1694606
:103EA0001648006807F022FC009838B14FF08050A7
:103EB00013490860BFF34F8FBFF36F8F38BD70B5E4
:103EC00005460E4600240CE0295D084806F074FE05
:103ED00000BF4021054806F01FFF0028F9D0601CF4
:103EE000C4B2B442F0DB70BD0000024000440040A8
:103EF000A60000207C020020020000201C00002000
:103F000004ED00E02DE9FC4105460E462F46072F43
:103F10002FD2DFE807F0040A10161C222800BA4C42
:103F20000121084605F03EFD23E0B84C01210220A6
:103F300005F038FD1DE0B64C0121042005F032FDEE
:103F400017E0B44C0121082005F02CFD11E0B24C23
:103F50000121102005F026FD0BE0B04C01212020AE
:103F600005F020FD05E0AE4C0121402005F01AFDD2
:103F700000BF00BF01208DF8040000208DF806006E
:103F8000009601208DF8070003208DF80500B1B2DE
:103F9000204605F0E5FA6946204605F065FABDE8D9
:103FA000FC812DE9FC4705460E461746B946A84652
:103FB000B8F1070F2FD2DFE808F0040A10161C2210
:103FC0002800914C0121084605F0ECFC23E08F4CC1
:103FD0000121022005F0E6FC1DE08D4C01210420AA
:103FE00005F0E0FC17E08B4C0121082005F0DAFC1D
:103FF00011E0894C0121102005F0D4FC0BE0874C26
:104000000121202005F0CEFC05E0854C0121402057
:1040100005F0C8FC00BF00BF00208DF8040000962A
:10402000B9F1000F03D001208DF8070002E0022053
:104030008DF8070003208DF805006946204605F03D
:1040400013FABDE8FC872DE9FE4F81460F46164660
:104050009846DDF830A02EB1002239464846FFF7D9
:10406000A0FF04E0012239464846FFF79AFF0121EC
:10407000880305F0F1FCB7F5807F63D012DC102FC8
:1040800044D008DC012F25D0022F2AD0042F2FD0B6
:10409000082F25D133E0202F3FD0402F44D0802F50
:1040A000F7D148E0B7F5805F6CD009DCB7F5007F49
:1040B00050D0B7F5806F55D0B7F5006FE9D159E012
:1040C000B7F5005F66D0B7F5804F6BD0B7F5004FFE
:1040D00078D16FE00021484605F0C9FD012406258E
:1040E00070E00121484605F0C2FD0224072569E081
:1040F0000221484605F0BBFD0424082562E00321A7
:10410000484605F0B4FD082409255BE00421484633
:1041100005F0ADFD10240A2554E00521484605F0C0
:10412000A6FD202417254DE00621484605F09FFDF9
:104130004024172546E00721484605F098FD8024D5
:1041400017253FE00821484605F091FD4FF48074A3
:10415000172537E00921484605F089FD4FF4007422
:1041600017252FE00A21484605F081FD4FF48064B1
:10417000282527E00B21484605F079FD4FF400641F
:1041800028251FE00C21484605F071FD4FF48054AE
:10419000282517E00D21484605F069FD4FF400542D
:1041A00028250FE00E21484605F061FD4FF48044BC
:1041B000282507E00F21484605F059FD4FF400443B
:1041C000282500BF00BF019401208DF80A000020BF
:1041D0008DF808001EB108208DF8090002E00C20BF
:1041E0008DF8090001A804F05BFD8DF80050012056
:1041F0008DF803008DF801808DF802A0684604F068
:10420000D6FCBDE8FE8F0000000002400004024022
:1042100000080240000C024000100240001402405E
:104220000018024030B58BB004460025B4F5AF6FDE
:1042300002D84FF4AF6403E0EC48844200D3044654
:10424000EB48B0FBF4F085B2EA480580012110206C
:1042500005F0A8FB01220921E74805F090F90122A9
:104260000B21E54805F08BF901220D21E24805F00C
:1042700086F901220E21E04805F081F902208DF82F
:10428000280000208DF82A004FF4D4400990012026
:104290008DF82B0003208DF8290009A9D64805F0D8
:1042A000E3F80121084605F0D7FB0020ADF8200017
:1042B000ADF81A00CF480088401E07900120ADF8E5
:1042C000180006A9CD4805F0B8FD6020ADF804003F
:1042D0000020ADF810000120ADF80600002003908A
:1042E00001A9C64805F03EFE0020039001A9C3487D
:1042F00005F071FE0020039001A9C04805F0B8FE4A
:104300000020039001A9BD4805F018FF0121BB481A
:1043100005F0B5FF0121B94805F0FAFD0121B748C4
:1043200006F005FA0121B54805F010FE0BB030BDCE
:1043300030B58BB004460025B4F5AF6F02D84FF40A
:10434000AF6403E0A948844200D30446A848B0FB08
:10435000F4F085B2AA4805800121084605F022FB49
:104360000121022005F01EFB02220621A54805F0CE
:1043700006F902220721A34805F001F902220021D3
:10438000A14805F0FCF8022201219F4805F0F7F84A
:1043900002208DF8280000208DF82A00C020099006
:1043A00001208DF82B0003208DF8290009A99548DC
:1043B00005F05AF80320099009A9934805F054F82C
:1043C0000121022005F037FB0020ADF82000ADF8F8
:1043D0001A008B480088401E07900020ADF8180096
:1043E00006A98A4805F029FD6020ADF804000020E8
:1043F000ADF810000120ADF8060049F640400390EA
:1044000001A9824805F0AEFD49F64040039001A99C
:104410007E4805F0E0FD49F64040039001A97B4845
:1044200005F026FE49F64040039001A9774805F0C3
:1044300085FE0121754805F022FF0121734805F032
:1044400067FD0121714805F081FD0BB030BD10B54D
:1044500002460020674B1B885343642493FBF4F30C
:1044600098B2012906D0022907D0032908D00429CF
:104470000CD108E0614B586308E0604B986305E09D
:104480005E4BD86302E05D4B186400BF00BF10BDF7
:1044900010B502460020574B1B885343642493FBFE
:1044A000F4F398B2012906D0022908D003290AD0D2
:1044B000042910D10BE0554B343318600BE0534BFB
:1044C0003833186007E0514B3C33186003E04F4B22
:1044D0004033186000BF00BF10BD70B504460D46E4
:1044E0001646611E454805F0F3FC424804802EB193
:1044F000681E81B20022414805F0DCFC70BD70B539
:1045000004460D461646611E404805F0E1FC3C4855
:1045100004802EB1681E81B200223C4805F0CAFC1E
:1045200070BD70B504460D46012D06D0022D09D090
:10453000032D0CD0042D14D10EE021462F4805F098
:104540006AFE0EE021462D4805F067FE09E021468F
:104550002A4805F064FE04E02146284805F061FE83
:1045600000BF00BF70BD70B504460D46012D06D0DA
:10457000022D09D0032D0CD0042D14D10EE02146BC
:10458000224805F048FE0EE02146204805F045FE91
:1045900009E021461D4805F042FE04E021461B4883
:1045A00005F03FFE00BF00BF70BD10B542F21070B5
:1045B000FFF7BEFE01222A2149F64040FFF79FFF88
:1045C00001214FF4FA60FFF7CEFF02214FF4FA60A9
:1045D000FFF7C9FF03214FF4FA60FFF7C4FF04217E
:1045E0004FF4FA60FFF7BFFF10BD000040900200DB
:1045F00000BD0105A800002000100240000001409D
:10460000AA00002000000240000402400004004014
:1046100001E0411E88B20028FBDC70471CB5012177
:10462000022005F0BFF91820009001208DF8040049
:1046300000208DF8060003208DF8050001208DF87C
:1046400007006946884804F00FFF01208749086089
:104650008749C1F88C021CBD00B58348006820F072
:10466000C000814908600846006840F040000860CA
:1046700001207E49091F08607D49C1F8900264202D
:10468000FFF7C6FF00207949091F08606420FFF783
:10469000BFFF00207649C1F8900200BD00B5724806
:1046A000006820F0C000704908600846006840F0CB
:1046B0004000086000206D4908606D49C1F88C0217
:1046C0006420FFF7A5FF0120684908606849C1F828
:1046D0008C026420FFF79CFF00BD10B500246248E7
:1046E000006820F0C0006049086008460068086063
:1046F00001205E49091F0860FFF71DFA01205C498F
:10470000C1F89002FFF717FA07E0601CC4B2FA2C58
:1047100003DDFFF7C3FF012010BD54488438006853
:104720000028F2D15149086000BFF5E700B500202C
:104730004E4908604C48006820F0C0004A490860B3
:104740000846006840F04000086000204849C1F871
:104750008C026420FFF75CFF01204449086064205C
:10476000FFF756FF00204249C1F8900200BD00B596
:1047700000203E4908603C48006820F0C0003A49EB
:1047800008600846006840F0400008600120384991
:10479000C1F88C026420FFF73BFF01203349086019
:1047A0006420FFF735FF00203149C1F8900200BDB9
:1047B00000B502462C48006820F0C0002A49086075
:1047C0000846006840F04000086000202749086063
:1047D000002317E0D0092549091F08605006020E82
:1047E0006420FFF715FF01202149C1F890026420E1
:1047F000FFF70EFF00201D4908606420FFF708FF47
:10480000581CC3B2082BE5DB00BD70B5054600247B
:104810001548006820F0C000134908600846006889
:104820000860002616E00020104908606420FFF7A9
:10483000EFFE01200E49C1F890026006040E0B48FD
:104840008438006808B1601CC4B20120FFF773F916
:10485000701CC6B2082EE6DB15B9FFF788FF01E031
:10486000FFF764FF204670BD000402409082404282
:104870000080404210B52DED048BFE4890F83000CA
:1048800028B3FD48007898B1FA4890F8310000EE5E
:10489000100AB8EE400AF94880ED000AF54890F891
:1048A000310000EE100AB8EE400AF44880ED010A2B
:1048B000F04890F8310000EE100AB8EE400AEF48D8
:1048C00080ED020A9FEDEE0A80ED030A73E0E948ED
:1048D000007E00286FD0E74890ED080AD0ED070A67
:1048E00030EE600AD0ED0A0A9FEDE61A00EE810A6A
:1048F000E24880ED020AE0480078002858D0DD4800
:1049000090ED080AD0ED070A30EE600AD0ED0A0AF1
:104910009FEDDC1A00EE810A10EE101A08460CF02A
:1049200003FC41EC190B9FEDD80B53EC102B0CF052
:104930003BF941EC180B0BF0ABFED0498860CD4839
:1049400090ED090AD0ED070A30EE600AD0ED0B0AAF
:104950009FEDCC1A00EE810A10EE101A08460CF0FA
:10496000E3FB41EC190B9FEDC80B53EC102B0CF043
:104970001BF941EC180B0BF08BFEC0494860084650
:1049800090ED020ADFEDC20A20EE200AD0ED010A06
:104990009FEDC01A70EE810A80EE201A80ED001A99
:1049A00090ED010ADFEDBC0A80EE801A80ED031A5B
:1049B0000020B0490876B94890F8300028B3AE48D6
:1049C000007898B1B54890F8310000EE100AB8EEC2
:1049D000400AB34880ED000AB04890F8310000EE7C
:1049E000100AB8EE400AAE4880ED010AAB4890F8D4
:1049F000310000EE100AB8EE400AA94880ED020A24
:104A00009FED9F0A80ED030A74E0A448007E002811
:104A100070D0A24890ED080AD0ED070A30EE600A87
:104A2000D0ED0A0A9FED971A00EE810A9C4880EDAE
:104A3000020A91480078E0B3984890ED080AD0ED5A
:104A4000070A30EE600AD0ED0A0A9FED8E1A00EEDA
:104A5000810A10EE101A08460CF066FB41EC190BA7
:104A60009FED890B53EC102B0CF09EF841EC180BCA
:104A70000BF00EFE8A498860884890ED090AD0ED57
:104A8000070A30EE600AD0ED0B0A9FED7E1A00EEA9
:104A9000810A10EE101A08460CF046FB41EC190B87
:104AA0009FED790B53EC102B0CF07EF841EC180BBA
:104AB00000E01CE00BF0ECFD79494860084690ED01
:104AC000020ADFED730A20EE200AD0ED010A9FED05
:104AD000711A70EE810A80EE201A80ED001A90EDB6
:104AE000010ADFED6D0A80EE801A80ED031A0020C6
:104AF0006A4908766B4890F8300028B35E48007821
:104B000098B1684890F8310000EE100AB8EE400AFB
:104B1000654880ED000A634890F8310000EE100A05
:104B2000B8EE400A604880ED010A5E4890F8310016
:104B300000EE100AB8EE400A5B4880ED020A9FEDD5
:104B4000500A80ED030A74E05648007E002870D0B9
:104B5000544890ED080AD0ED070A30EE600AD0ED17
:104B60000A0A9FED481A00EE810A4F4880ED020ABA
:104B700041480078F0B34B4890ED080AD0ED070AA1
:104B800030EE600AD0ED0A0A9FED3E1A00EE810A6F
:104B900010EE101A08460CF0C7FA41EC190B9FED05
:104BA0003A0B53EC102B0BF0FFFF41EC180B0BF002
:104BB0006FFD3D4988603B4890ED090AD0ED070A3A
:104BC00030EE600AD0ED0B0A9FED2E1A00EE810A3E
:104BD00010EE101A08460CF0A7FA41EC190B9FEDE5
:104BE0002A0B53EC102B0BF0DFFF41EC180B0BF0F2
:104BF0004FFD00E01AE02C494860084690ED020A9B
:104C0000DFED230A20EE200AD0ED010A9FED211AE4
:104C100070EE810A80EE201A80ED001A90ED010AF4
:104C2000DFED1D0A80EE801A80ED031A00201D4979
:104C300008761E4890F83000E0B30F48007898B12D
:104C40001A4890F8310000EE100AB8EE400A1848F1
:104C500080ED000A154890F8310000EE100AB8EE19
:104C6000400A134880ED010A104890F8310000EE28
:104C7000100A20E044030020AC000020E4040020DF
:104C80000000000000606A47A5E2ECC367D8153F4A
:104C90000000C842BD37863500007A447803002002
:104CA000F4040020AC03002004050020E0030020F1
:104CB0001405002009E0B8EE400AFE4880ED020A23
:104CC0001FED110A80ED030A74E0FB48007E002806
:104CD00070D0F94890ED080AD0ED070A30EE600A6E
:104CE000D0ED0A0A1FED191A00EE810AF14880ED95
:104CF000020AF2480078E0B3EF4890ED080AD0EDE0
:104D0000070A30EE600AD0ED0A0A1FED221A00EE03
:104D1000810A10EE101A08460CF006FA41EC190B45
:104D20001FED270B53EC102B0BF03EFF41EC180B43
:104D30000BF0AEFCDF498860DF4890ED090AD0ED4A
:104D4000070A30EE600AD0ED0B0A1FED321A00EEB2
:104D5000810A10EE101A08460CF0E6F941EC190B26
:104D60001FED370B53EC102B0BF01EFF41EC180B13
:104D700000E01CE00BF08CFCCE494860084690ED4A
:104D8000020A5FED3D0A20EE200AD0ED010A1FED78
:104D90003F1A70EE810A80EE201A80ED001A90ED25
:104DA000010A5FED430A80EE801A80ED031A0020AD
:104DB000C1490876C24890F8300028B3BF4800784F
:104DC00098B1BF4890F8310000EE100AB8EE400AE2
:104DD000BC4880ED000ABA4890F8310000EE100A95
:104DE000B8EE400AB74880ED010AB54890F83100A6
:104DF00000EE100AB8EE400AB24880ED020A1FED3C
:104E0000600A80ED030A74E0AD48007E002870D08F
:104E1000AB4890ED080AD0ED070A30EE600AD0EDFD
:104E20000A0A1FED681A00EE810AA64880ED020A00
:104E3000A2480078F0B3A24890ED080AD0ED070A26
:104E400030EE600AD0ED0A0A1FED721A00EE810AF8
:104E500010EE101A08460CF067F941EC190B1FED23
:104E6000760B53EC102B0BF09FFE41EC180B0BF064
:104E70000FFC94498860924890ED090AD0ED070A2A
:104E800030EE600AD0ED0B0A1FED821A00EE810AA7
:104E900010EE101A08460CF047F941EC190B1FED03
:104EA000860B53EC102B0BF07FFE41EC180B0BF034
:104EB000EFFB00E01AE083494860084690ED020AE3
:104EC0005FED8D0A20EE200AD0ED010A1FED8F1A4A
:104ED00070EE810A80EE201A80ED001A90ED010A32
:104EE0005FED930A80EE801A80ED031A002074496A
:104EF0000876754890F8300028B37048007898B16B
:104F0000714890F8310000EE100AB8EE400A6F4880
:104F100080ED000A6C4890F8310000EE100AB8EEFF
:104F2000400A6A4880ED010A674890F8310000EEB7
:104F3000100AB8EE400A654880ED020A1FEDB00A7B
:104F400080ED030A74E06048007EE0B35E4890EDB7
:104F5000080AD0ED070A30EE600AD0ED0A0A1FED0C
:104F6000B71A00EE810A594880ED020A53480078CA
:104F700050B3554890ED080AD0ED070A30EE600AAC
:104F8000D0ED0A0A1FEDC11A00EE810A10EE101AC8
:104F900008460CF0C9F841EC190B1FEDC50B53EC9A
:104FA000102B0BF001FE41EC180B0BF071FB474985
:104FB0008860454890ED090AD0ED070A30EE600A96
:104FC000D0ED0B0A01E033E02FE01FEDD21A00EE26
:104FD000810A10EE101A08460CF0A6F841EC190BE5
:104FE0001FEDD70B53EC102B0BF0DEFD41EC180B33
:104FF0000BF04EFB35494860084690ED020A5FED24
:10500000DC0A20EE200AD0ED010A1FEDDE1A70EE58
:10501000810A80EE201A80ED001A90ED010A5FED02
:10502000E20A80EE801A80ED031A002026490876F5
:10503000274890F8300028B32048007898B12448D9
:1050400090F8310000EE100AB8EE400A214880EDD9
:10505000000A1F4890F8310000EE100AB8EE400A2E
:105060001C4880ED010A1A4890F8310000EE100A41
:10507000B8EE400A174880ED020A9FED170A80ED4E
:10508000030A8BE01248007E50B3114890ED080AE5
:10509000D0ED070A30EE600AD0ED0A0A9FED0F1A34
:1050A00000EE810A0B4880ED020A04480078E8B35C
:1050B000074816E014050020E0030020AC000020A3
:1050C000140400202405002048040020340500209A
:1050D0007C040020440500200000000000606A47B6
:1050E0005CE090ED080AD0ED070A30EE600AD0EDE2
:1050F0000A0A1FED061A00EE810A10EE101A084681
:105100000CF012F841EC190B9FEDFE0B53EC102B39
:105110000BF04AFD41EC180B0BF0BAFAFB49886022
:10512000FB4890ED090AD0ED070A00E033E030EECD
:10513000600AD0ED0B0A1FED171A00EE810A10EE7F
:10514000101A08460BF0F0FF41EC190B9FEDED0B28
:1051500053EC102B0BF028FD41EC180B0BF098FAD8
:10516000EA494860084690ED020ADFEDEA0A20EEBF
:10517000200AD0ED010A9FEDE81A70EE810A80EE58
:10518000201A80ED001A90ED010ADFEDE40A80EEAE
:10519000801A80ED031A0020DD490876E04890F877
:1051A000300028B3DF48007898B1DD4890F831002E
:1051B00000EE100AB8EE400ADB4880ED000AD8483D
:1051C00090F8310000EE100AB8EE400AD64880EDA3
:1051D000010AD34890F8310000EE100AB8EE400AF8
:1051E000D14880ED020A1FED440A80ED030A74E005
:1051F000CB48007EF0B3CA4890ED080AD0ED070A0C
:1052000030EE600AD0ED0A0A1FED4C1A00EE810A5A
:10521000C54880ED020AC348007860B3C04890EDED
:10522000080AD0ED070A30EE600AD0ED0A0A1FED39
:10523000551A00EE810A10EE101A08460BF074FFA2
:1052400041EC190B9FEDAF0B53EC102B0BF0ACFCAA
:1052500041EC180B0BF01CFAB3498860B04890ED94
:10526000090AD0ED070A30EE600AD0ED0B0A1FEDF7
:10527000651A01E031E02DE000EE810A10EE101A0F
:1052800008460BF051FF41EC190B9FED9E0B53ECC0
:10529000102B0BF089FC41EC180B0BF0F9F9A2492B
:1052A0004860084690ED020ADFED9A0A20EE200AD7
:1052B000D0ED010A9FED981A70EE810A80EE201A57
:1052C00080ED001A90ED010ADFED940A80EE801A5D
:1052D00080ED031A002092490876BDEC048B10BDC6
:1052E00000B52DED108B8FB08F4890ED000A10EEB9
:1052F000101A08460BF018FF41EC180B834890ED8C
:10530000000A10EE101A08460BF00EFF41EC190BC4
:10531000864890ED000A10EE101A08460BF004FFC4
:1053200041EC1A0B824890ED000A10EE101A084664
:105330000BF0FAFE41EC1B0B7E4890ED000A10EEDC
:10534000101A08460BF0F0FE41EC1C0B7A4890ED69
:10535000000A10EE101A08460BF0E6FE41EC1D0B99
:10536000764890ED000A10EE101A08460BF0DCFEAD
:1053700041EC1E0B724890ED000A10EE101A084620
:105380000BF0D2FE41EC1F0B8DED0C8B8DED0A9BCB
:105390008DED08AB8DED06BB8DED04CB8DED02DB05
:1053A0008DED00EB53EC1F2B66A008F0F9FD0FB05C
:1053B000BDEC108B00BD00B52DED108B8FB05A48A1
:1053C00090ED010A10EE101A08460BF0ADFE41EC0C
:1053D000180B4E4890ED010A10EE101A08460BF01B
:1053E000A3FE41EC190B514890ED010A10EE101A82
:1053F00008460BF099FE41EC1A0B4D4890ED010A5E
:1054000010EE101A08460BF08FFE41EC1B0B4948BA
:1054100090ED010A10EE101A08460BF085FE41ECE3
:105420001C0B454890ED010A10EE101A08460BF0CF
:105430007BFE41EC1D0B414890ED010A10EE101A65
:1054400008460BF071FE41EC1E0B3D4890ED010A41
:1054500010EE101A08460BF067FE41EC1F0B8DEDA5
:105460000C8B8DED0A9B8DED08AB8DED06BB8DEDA4
:1054700004CB8DED02DB8DED00EB53EC1F2B31A047
:1054800008F08EFD0FB0BDEC108B00BD00B52DED0A
:10549000108B8FB0244890ED020A10EE101A0846C7
:1054A0000BF042FE41EC180B184890ED020A10EE8A
:1054B000101A08460BF038FE41EC190B1B4890ED12
:1054C000020A10EE101A08460BF02EFE41EC1A0BE1
:1054D000174890ED020A10EE101A08460BF024FE51
:1054E00041EC1B0B134890ED020A10EE101A08460F
:1054F0000BF01AFE41EC1C0B0F4890ED020A10EE67
:10550000101A2FE0A5E2ECC367D8153F4405002030
:105510007C0400200000C842BD37863500007A4474
:10552000B0040020AC000020540500203405002009
:10553000240500201405002004050020F4040020A8
:10554000E4040020256620202566202025662020F2
:10555000256620202566202025662020256620201F
:1055600025660A0008460BF0DFFD41EC1D0BFE48E6
:1055700090ED020A10EE101A08460BF0D5FD41EC32
:105580001E0BFA4890ED020A10EE101A08460BF0B6
:10559000CBFD41EC1F0B8DED0C8B8DED0A9B8DED42
:1055A00008AB8DED06BB8DED04CB8DED02DB8DEDF3
:1055B00000EB53EC1F2BAFF2740008F0F1FC0FB0BE
:1055C000BDEC108B00BD10B50446012C03D0022C9D
:1055D00001D0032C10D1012C04D0022C05D0032CB7
:1055E00009D105E0FFF752FF00BFFFF7E4FE00BF5F
:1055F000FFF776FE00BF02E0DDA008F0D1FC10BD91
:1056000000B589B00121082004F0CCF901218803FC
:1056100004F022FA02220C21D94803F0B0FF022242
:105620000D21D74803F0ABFF02220E21D44803F02E
:10563000A6FF02220F21D24803F0A1FF02208DF81D
:10564000200000208DF822004FF4805007900220A7
:105650008DF8230003208DF821004FF48051C848B5
:1056600003F080FF07A9C64803F0FEFE4FF4005088
:1056700007900146C24803F075FF07A9C04803F030
:10568000F3FE4FF4804007900146BD4803F06AFFE7
:1056900007A9BB4803F0E8FE4FF40040079001461D
:1056A000B74803F05FFF07A9B54803F0DDFE1E20F1
:1056B0008DF8000001208DF803008DF80100002016
:1056C0008DF80200684603F072FA0121042004F00C
:1056D000B2F90020ADF81800ADF812004EF65F20C8
:1056E00005900620ADF8100004A9A64804F0A5FB1B
:1056F0000020ADF80400ADF80C00ADF80600ADF8E0
:105700000A000120ADF8080001A99E4804F06CFFD2
:105710000420ADF8040001A99A4804F065FF0820B0
:10572000ADF8040001A9974804F05EFF0C20ADF825
:10573000040001A9934804F057FF01221F2191485A
:1057400005F01CF801218F4804F000FC1F218D4852
:1057500005F028F809B000BD00B589B00121084660
:1057600004F020F90121880304F076F902220021D7
:10577000854803F004FF02220121834803F0FFFE65
:1057800002221146804803F0FAFE022203217E48DD
:1057900003F0F5FE02208DF8200000208DF8220095
:1057A0000120079002208DF8230003208DF82100AE
:1057B0000121754803F0D6FE07A9734803F054FE93
:1057C000022007900221704803F0CCFE07A96E4822
:1057D00003F04AFE0420079004216B4803F0C2FE48
:1057E00007A9694803F040FE082007900821664891
:1057F00003F0B8FE07A9644803F036FE32208DF8A6
:10580000000001208DF803008DF801008DF80200E2
:10581000684603F0CCF90121082004F00CF90020BF
:10582000ADF81800ADF812004EF65F200590062086
:10583000ADF8100004A9554804F0FFFA0020ADF8B7
:105840000400ADF80C00ADF80600ADF80A00012028
:10585000ADF8080001A94D4804F0C6FE0420ADF8DB
:10586000040001A9494804F0BFFE0820ADF8040077
:1058700001A9464804F0B8FE0C20ADF8040001A9C7
:10588000424804F0B1FE01221F21404804F076FF97
:1058900001213E4804F05AFB1F213C4804F082FFDE
:1058A00009B000BD10B50221364804F07EFF002883
:1058B00077D037480078E8B332483430006800EEDB
:1058C000100AB8EE400A334880ED020A90ED030A50
:1058D00080ED050A90ED000A80ED070A90ED010ABF
:1058E00080ED080A90ED020A80ED090A90ED040AA5
:1058F00080ED0A0A90ED050A80ED0B0A012025498A
:105900000876002081F830001E483430006800EE30
:10591000100AB8EE400A084680ED000A9FED1E0A04
:1059200080ED030A00201A4908700221154804F08E
:1059300028FD15E0FFE713483430006800EE100A38
:10594000B8EE400A134880ED010A90ED030A80ED9D
:10595000040A00210B4804F014FD01200C490870D2
:105960004FF6FD7007491AE0F4040020E40400201B
:1059700073686F77206572726F72210A00000000F1
:10598000000C02400008004000000240000C0040F3
:10599000AE000020440300200000000001E01031B0
:1059A00008800421FE4804F000FF00285AD0FD487A
:1059B0004078E8B3FA4804F098FE00EE100AB8EE1A
:1059C000400AF94880ED020A90ED030A80ED050ACD
:1059D00090ED000A80ED070A90ED010A80ED080ABB
:1059E00090ED020A80ED090A90ED040A80ED0A0AA2
:1059F00090ED050A80ED0B0A0120EB4908760020A6
:105A000081F83000E64804F070FE00EE100AB8EEAF
:105A1000400AE54880ED000A1FED210A80ED030AE7
:105A20000020E04948700221DD4804F0BCFC15E08C
:105A3000FFE7DB4804F059FE00EE100AB8EE400A1A
:105A4000D94880ED010A90ED030A80ED040A002197
:105A5000D34804F0A8FC0120D24948700421D04862
:105A600004F0B4FE0821CE4804F09FFE00285AD06E
:105A7000CC488078E8B3CA4804F03AFE00EE100A39
:105A8000B8EE400AC94880ED020A90ED030A80EDA5
:105A9000050A90ED000A80ED070A90ED010A80EDFD
:105AA000080A90ED020A80ED090A90ED040A80EDE3
:105AB0000A0A90ED050A80ED0B0A0120BB49087621
:105AC000002081F83000B64804F012FE00EE100A03
:105AD000B8EE400AB54880ED000A1FED510A80ED8E
