:020000040800F2
:10000000780C0020DD3700088527000887270008C6
:100010008B2700088F2700089327000800000000A6
:10002000000000000000000000000000972700080A
:1000300099270008000000009B2700089D27000862
:10004000F7370008F7370008F7370008F7370008D8
:10005000F7370008F7370008F7370008F7370008C8
:10006000F7370008F7370008F7370008F7370008B8
:10007000F7370008F7370008F7370008F7370008A8
:10008000F7370008F7370008F7370008F737000898
:10009000F7370008F7370008F7370008F737000888
:1000A000F7370008F7370008F7370008F737000878
:1000B000F7370008F7370008F7370008F737000868
:1000C000F7370008F7370008F7370008F737000858
:1000D000F73700082F370008F7370008F737000810
:1000E000F7370008F7370008F737000800F002F884
:1000F00000F05AF80AA090E8000C82448344AAF168
:100100000107DA4501D100F04FF8AFF2090EBAE865
:100110000F0013F0010F18BFFB1A43F0010318473B
:10012000407C0000607C00000A444FF0000C10F896
:10013000013B13F0070408BF10F8014B1D1108BF65
:1001400010F8015B641E05D010F8016B641E01F805
:10015000016BF9D113F0080F1EBF10F8014BAD1C55
:100160000C1B09D16D1E58BF01F801CBFAD505E073
:1001700014F8016B01F8016B6D1EF9D59142D6D3CD
:10018000704700000023002400250026103A28BFF5
:1001900078C1FBD8520728BF30C148BF0B607047F9
:1001A0001FB51FBD10B510BD05F07AF81146FFF759
:1001B000F7FF00F01FFA05F098F803B4FFF7F2FF1D
:1001C00003BC03F057FA00002DE9F04704460D4642
:1001D0002046294606F024F8824606F050F80646E6
:1001E0000022F74B05F008FE804622462B4606F01B
:1001F00071F80AD20022F34B2046294605F0FCFD97
:10020000064606F00DF8BDE8F0872046294606F0C0
:1002100007F8F8E72DE9F04F8BB0824616461F46E7
:1002200032463B46DAE90081404606F0CFF9044603
:100230000D4622462B46DAE90C81404605F0DCFDEE
:10024000CAE90C01DAE90AB35A46DAE908814046FC
:1002500006F0BCF9CDE90801DAE90801CAE90A01AA
:10026000CAE90845DAE914B35A46DAE90C8140468E
:1002700006F06AF903D2DAE91401CAE90C01DAE9F5
:1002800016834246DAE90CB1584606F023F803D249
:10029000DAE91601CAE90C01DAE906814046DDE92E
:1002A000082306F053F8CDE90601DAE90C8342464B
:1002B000DAE904B1584606F049F8CDE902012246D0
:1002C0002B46DAE90281404606F040F8CDE900010C
:1002D000DDE9022305F090FDCDE90401DDE9062307
:1002E00005F08AFDCAE90E01DAE910834246DAE92F
:1002F0000EB1584606F028F903D2DAE91001CAE92E
:100300000E01DAE912834246DAE90EB1584605F0E9
:10031000E1FF03D2DAE91201CAE90E01DAE90E01BE
:100320000BB0BDE8F08F10B504466021204604F004
:1003300079FF10BD10B50446002C08DD0021A2484D
:1003400004F02EFFA1B2A04804F02CFF08E06042A8
:1003500081B29D4804F024FF00219B4804F022FF55
:1003600010BD10B50446002C08DD0021964804F0AD
:1003700013FFA1B2944804F011FF08E0604281B27B
:10038000914804F009FF00218F4804F007FF10BDD9
:1003900070B504460E46002C06DA604204B22D21E8
:1003A0008A4803F063FF03E02B21884803F05EFFD7
:1003B000874894FBF0F080B240F03005294683482E
:1003C00003F054FF824894FBF0F100FB1140814997
:1003D00090FBF1F080B240F0300529467B4803F0F5
:1003E00045FF7C4894FBF0F100FB114042F2107194
:1003F00090FBF1F080B240F030052946734803F0DD
:1004000035FF42F2107094FBF0F100FB11404FF405
:100410007A7190FBF1F080B240F0300529466B48CC
:1004200003F024FF4FF47A7094FBF0F100FB1140CD
:10043000642190FBF1F080B240F03005294663481A
:1004400003F014FF2E21614803F010FF642094FB99
:10045000F0F100FB11400A2190FBF1F080B240F076
:1004600030052946594803F001FF0A2094FBF0F1BA
:1004700000FB114080B240F030052946534803F09C
:10048000F5FE70BD10B500215348B0F90000FFF72C
:100490007FFF20214D4803F0E9FE00214F48B0F9CD
:1004A0000000FFF775FF2021484803F0DFFE0D2113
:1004B000464803F0DBFE0A21444803F0D7FE10BD96
:1004C0002DE9F04104460D464FF000021346204648
:1004D000294606F039F80CD2414A424B20462946BB
:1004E00005F034FF064600223F4B05F085FCBDE8D1
:1004F000F0813B4A3B4B2046294605F027FF064644
:100500000022394B06F062F8F1E72DE9F04104468C
:100510000D463648B0F90000002807DD2046294680
:1005200005F07EFE0646FFF71CFF08E085F000415F
:100530002746384605F074FE0646FFF712FFBDE871
:10054000F0812DE9F04104460D462948B0F900003C
:10055000002807DD2046294605F062FE0646FFF723
:10056000E9FE08E085F000412746384605F058FED0
:100570000646FFF7DFFEBDE8F08110B5A521134860
:1005800003F074FE5421114803F070FE40F2DC5079
:1005900003F030F840F2DC5003F02CF840F2DC506D
:1005A00003F028F840F2DC5003F024F8A5210748B6
:1005B00003F05CFE5221054803F058FE10BD000018
:1005C0000000E03F0000F03F000400400038014020
:1005D00040420F00A0860100EE010020EC01002047
:1005E0009A9999999999E93F0070C740AC00002009
:1005F000AE000020ADF5876D02F040F9482002F012
:10060000DFFF03F031F84FF4E13003F041F802F07E
:1006100032FC02F058FDFFF7B0FF02F0AFF9002006
:1006200002F0D0F902F05CFA02F0A4FF00BF02F081
:10063000BEFF0020FE4908803AE0FE480078401CDA
:10064000C0B21D9002F075FD462002F0D3FF4FF4BA
:100650000061F94802F058FA50B9F6480068401CA9
:10066000F449086008460068062801DD002008609B
:100670004FF48061F04802F047FA50B9ED48006845
:10068000401EEC49086008460068002801DA062090
:1006900008604FF40041E84802F036FA40B900BF64
:1006A0004FF40041E44802F02FFA0028F8D000E0AF
:1006B000C3E700BFDF480068072819D2DFE800F071
:1006C00004196EFCFBFAF9001E20DC490870D948B9
:1006D0000078401CC0B2002211461D9002F0D8FDE7
:1006E0004EF65F20FFF73DFE4FF4967002F082FF5A
:1006F00059E21920D149087045E0CE480078401CE5
:10070000C0B200221D90CD4801781D9802F0C0FDB6
:10071000462002F06FFF4FF48061C74802F0F4F901
:1007200050B9C6480078401CC44908700846007893
:100730001E2801DD0F2008704FF40061BE4802F052
:10074000E3F950B9BD480078401EBC49087008461E
:1007500000780F2801DA1E2008704FF40041B648D7
:1007600002F0D2F940B900BF4FF40041B24802F0A4
:10077000CBF90028F8D007E04FF48041AE4802F0F2
:10078000C3F900B953E7B8E700BF47F22F50FFF7AE
:10079000E8FD4FF4967002F02DFFF4E30020A84925
:1007A0000870FEE1A3480078401CC0B21D90A54827
:1007B0000268A54801681D9802F06AFD3C2002F01D
:1007C00019FF4FF480619C4802F09EF950B99E4891
:1007D0000068401C9C490860084600681E2801DD2E
:1007E0000F2008604FF40061934802F08DF950B972
:1007F00095480068401E94490860084600680F2824
:1008000001DA1E2008604FF400518B4802F07CF999
:1008100058B98C480068401D8A490860084600683D
:10082000B0F5B27F01DB002008604FF480518248B0
:1008300002F06AF958B983480068401F814908608E
:1008400008460068002802DA40F2631008604FF49E
:100850000041794802F058F900287DD100BF4FF4DB
:100860000041754802F050F90028F8D0754800683A
:1008700005F005FD754A764BCDE9120105F066FDE0
:100880000022744BCDE9140105F072FBCDE916018D
:1008900005F0EEF921F00041CDE91A016A4800683F
:1008A00005F0EDFCCDE91801DDE91A2305F04EFD58
:1008B00003E07BE27AE178E176E1CDE91C01FFF724
:1008C00083FC5E4908705F48006805F0D8FC5F4A09
:1008D0005F4BCDE9120105F039FD00225D4BCDE9FA
:1008E000140105F045FBCDE9160105F06BF921F087
:1008F0000041CDE91A015448006805F0C0FCCDE97B
:100900001801DDE91A2305F021FDCDE91C01FFF7EF
:100910005BFC514908704B480068B42804DD494825
:100920000068B438474908604648006805280ADA74
:100930000120434908704EF65F20FFF7FBFC4FF49F
:10094000967002F057FE3F48006805281ADB3D48C4
:1009500000680F2816DA00E01CE100213F48404AF9
:10096000C2E9001000203F493F4A03C23F484049C6
:1009700008604EF65F20FFF7DDFC4FF4967002F042
:1009800039FE06E12F4800682D2818DA0021334887
:10099000334AC2E90010344AC2E900104FF08140E6
:1009A000334908604EF65F20FFF7C4FC4EF65F2027
:1009B000FFF7D7FC4FF4967002F01CFEE9E02148E7
:1009C0000068372819DA00212648254AC2E90010B4
:1009D00000202249244A03C24FF081402449086084
:1009E0004CF24F30FFF7A6FC4EF65F20FFF7B9FC44
:1009F0004FF4967002F0FEFDCBE0124800684128EB
:100A00003FDA00211748164AC2E900101948164A71
:100A1000C2E9001018481649086047F22F50FFF746
:100A200089FC4EF65F20FFF79CFC4FF4967025E0A2
:100A3000D2000020C8000020000C0140BC000020B3
:100A4000F8000020C0000020CC000020A7E8482EBD
:100A5000FF21094000806640BD00002080841E41C7
:100A6000E8000020006AE840F00000200000A040FC
:100A7000D4000020D01253410000C04002F0BAFD63
:100A800087E0FE480068552818DA0020FC49FD4A36
:100A900003C20021FC48FD4AC2E90010FC48FD49A0
:100AA000086044F61F60FFF745FC4EF65F20FFF735
:100AB00058FC4FF4967002F09DFD6AE0EF48006824
:100AC0005F280BDA0220F44908704EF65F20FFF72A
:100AD00048FC4FF4967002F08DFD5AE0E74800683C
:100AE000732817DA0021E648E64AC2E90010E64812
:100AF000E64AC2E90010E648E6490860E748FFF721
:100B000019FC4EF65F20FFF72CFC4FF4967002F0B4
:100B100071FD3EE0D9480068912817DA0021E048CD
:100B2000D84AC2E900100020DD49D84A03C2D8489B
:100B3000D8490860DB48FFF7FDFB49F63F40FFF767
:100B400010FC4FF4967002F055FD22E0CB4800688F
:100B5000AF2817DA0021D248CA4AC2E90010C848B3
:100B6000CA4AC2E90010D048CA490860CD48FFF718
:100B7000E1FB47F22F50FFF7F4FB4FF4967002F0C1
:100B800039FD06E0BD480068B42802DC0120C249F6
:100B9000087007E04FF48041C44801F0B5FF00B988
:100BA00045E5FFE500BFEEE1EDE100BFFBE0C04839
:100BB0000078401CC0B200221D90BE4801781D98EC
:100BC00002F066FB462002F015FD4FF48061B74845
:100BD00001F09AFF50B9B7480078401CB549087039
:100BE00008460078232801DD0F2008704FF40061CB
:100BF000AE4801F089FF50B9AE480078401EAD49BB
:100C00000870084600780F2801DA232008704FF496
:100C10000041A64801F078FF002873D100BF4FF4CF
:100C20000041A24801F070FF0028F8D0A1480078E8
:100C300005F03CFB0022A04BCDE91C0105F04AFB6E
:100C400018D200219D489E4AC2E900109D4AC2E97F
:100C500000109D489D4AC2E900109D4AC2E900105B
:100C60009C4A116051609C4A116051609B488949BF
:100C7000086088E08F48007805F018FB0022984B48
:100C8000CDE91C0105F026FB18D2002195488C4ABD
:100C9000C2E90010002093498A4A03C292498B4A54
:100CA00003C28B4A03C200218A4A116051608A4AFA
:100CB000116051608D487749086064E07D48007894
:100CC00005F0F4FA00228A4BCDE91C0105F002FB85
:100CD00019D2002187487A4AC2E90010794AC2E94C
:100CE00000108548794AC2E90010794AC2E900102B
:100CF000784A11605160784A116051607F486549B7
:100D0000086040E048E06B48007805F0CFFA002228
:100D10007B4BCDE91C0105F0DDFA1BD2002179489F
:100D2000674AC2E9001000207649664A03C20021E2
:100D30007548664AC2E90010654AC2E90010002001
:100D4000644A10605060644A106050606F485149B6
:100D5000086018E000216E48594AC2E90010594A5B
:100D6000C2E900106848594AC2E90010584AC2E96D
:100D700000100020574A10605060574A11605160BF
:100D800064484449086047F22F50FFF7EAFA4FF4ED
:100D9000967002F02FFC07E04FF48041434801F0C9
:100DA000B3FE00B943E402E700BFECE00F205A496C
:100DB0000870524837490860E2E03D480078401C1E
:100DC000C0B200221D90544801781D9802F060FACC
:100DD000462002F00FFC4FF48061344801F094FE8D
:100DE00010B919204C4908704FF400612F4801F0E8
:100DF0008BFE10B90F20484908704FF400412B4872
:100E000001F082FEC0BB00BF4FF40041274801F053
:100E10007BFE0028F8D0404800780F281AD1002126
:100E20003E483F4AC2E900103E483F4AC2E900102E
:100E300000203A493D4A03C2002138483C4AC2E9F1
:100E400000103C483C4AC2E9001000203B493C4AA3
:100E500003C285E000213B48314AC2E90010314815
:100E6000314AC2E900101848374AC2E90010002090
:100E70001549364A03C26BE07BE00000C000002049
:100E8000006AE840E8000020D0125341F000002042
:100E90000000C040D4000020F8000020E1B1FFFFB6
:100EA00080841E41A115FFFF0000A040000C0140FE
:100EB000C8000020C40000200080314000C057401E
:100EC0000001002008010020006A284110010020D4
:100ED00018010020200100202801002000008C4281
:100EE0000080364000805640A0F029410000B44206
:100EF00000803B4000805140804F32410000F04272
:100F0000004040400000494060E336410000964305
:100F100000003E400000C843BC00002000406F407D
:100F200030010020000069403801002050010020FD
:100F30005801002000002440D800002000002E406E
:100F4000E00000200000794040010020480100201E
:100F5000FD49FE4A03C20021FD48FE4AC2E90010D5
:100F600047F22F50FFF7FDF94FF4967002F042FB65
:100F700007E04FF48041F84801F0C6FD00B90FE6E4
:100F80001BE700BF00BF00BFF6A8FFF7CCF90020A9
:100F9000F249F991F8900021FA91FB91F04AFD9203
:100FA000FC91F04A0DF5836006C0EF4A0DF58460B0
:100FB00006C0EE4A0DF5856006C00022EC49CDF86A
:100FC0003024CDF834140021F691F791DEA8FFF714
:100FD000AAF90021E14AE192E091E291E391002235
:100FE000DF49E492E5910021DE4AEF92EE91DE4A7C
:100FF000F192F091DD4AF392F291DD4AF592F4918B
:10100000DE91DF91C6A8FFF78EF90021D94AC99277
:10101000C891D94ACB92CA91CC91CD91D14AD7925D
:10102000D691D14AD992D891D44ADB92DA91002252
:10103000D349DC92DD91D348D349097850F8211087
:1010400008461D9105F0ACFBC791C690AEA8FFF70E
:101050006AF90022C749B092B191C749B292B391DF
:10106000B492B592BF49BE92BF91BF49C092C1919F
:101070000021C24AC392C2910022C149C492C591C3
:10108000C048C249097850F8211008461D9105F062
:1010900087FBAF91AE9096A8FFF745F90021989194
:1010A00099919A919B91BA4806C89D929C91002172
:1010B000AC4AA792A691AC4AA992A891AD4AAB922C
:1010C000AA910022A549AC92AD91969297927EA8E2
:1010D000FFF729F900228092819200218291839169
:1010E000AC4806C88592849100229E498E928F91C9
:1010F00000219D4A919290919E4A93929291974A93
:10110000959294917E917F9166A8FFF70CF9A24881
:1011100006C869926891A14806C86B926A91A04876
:1011200006C86D926C9100218E4A779276918E4A14
:10113000799278919B499C4A7B927A919B4A7D92C5
:101140007C910021669167914EA8FFF7ECF89848D2
:1011500006C851925091974806C8539252919648AA
:1011600006C85592549100217E4A5F925E917E4A54
:10117000619260918B498C4A639262918B4A65922D
:10118000649100214E914F9136A8FFF7CCF88B481F
:1011900006C8CDE9381200213A913B91884806C82B
:1011A000CDE93C1200216F4A479246916E4A49921E
:1011B0004891844A4B924A91834A4D924C91369180
:1011C00037911EA8FFF7AFF8804806C8CDE9201276
:1011D0000021229123917E4806C8CDE924120022E5
:1011E0006049CDE92E2100215F4ACDE93012754AD0
:1011F000CDE93212744ACDE934121E911F9102F0EA
:101200000CF801F036BA73480078012841F02A82C0
:101210007148008871490988401A00B270490880F5
:101220007048008870490988401A00B26F490880E8
:101230006F480068012872DC6948B0F90000002896
:1012400004DB6C48B0F90000002807DB6448B0F903
:101250000000002866DD67480088E0BB5E48B0F902
:10126000000005F00CF821F00041CDE91C0104F06C
:1012700091FD614908600846006805F091FA024650
:101280000B46CDE91C01C6A8FEF7C4FF5B4A03C2AA
:101290005A4903C9FFF714F9584A03C23A4800787B
:1012A00005F004F8CDE91A015348006805F078FA12
:1012B000534A544BCDE9100105F048F80022524B37
:1012C000CDE9120104F054FECDE9140104F028FD2B
:1012D00000224E4B00E025E0CDE9160105F036F87E
:1012E000CDE91801DDE91A2305F070F921F000417C
:1012F0000022474BCDE91C0104F0ECFF05D2454824
:101300000088401C4349088002E0002041490880D1
:1013100040480088012803DD02F043F902E08CE038
:1013200002F045F9354903C9FFF7EFF82D48B0F948
:10133000000004F0A4FF02460B46CDE91C01F6A80C
:10134000FEF768FF344A69E000002E40D800002014
:1013500000003940E0000020000C0140000059C0AE
:101360000040AF40E04BED40E04BEDC00088E34073
:101370000088E3C0000059400000F03F0088C340EF
:101380000088C3C000000020BC000020BD00002079
:10139000E8000020F00000200001002010010020E3
:1013A000200100203BDF4F8D976E823F976E82BFFA
:1013B0000801002018010020280100203001002031
:1013C0005001002000004440000044C038010020CB
:1013D00058010020F0010020EC010020A8000020AE
:1013E000AC000020EE010020AA000020AE0000208A
:1013F000C8000020B0000020B400002060010020E0
:10140000A7E8482EFF2109400094D14000E0544055
:1014100000000440D20000206801002003C2A2F1B5
:10142000080103C9FFF74CF8FE4A03C2FD4903C98E
:1014300004F0F6FE1D90FEF77DFFFB4800680228D1
:101440007DD1FA48007800287AD1F948B0F9000037
:10145000002804DBF748B0F90000002807DBF44857
:10146000B0F90000002822DDF2480088F8B9F248FF
:10147000B0F9000004F003FF21F00041CDE91C01A8
:1014800004F088FCED4908600846006805F088F91A
:1014900002460B46CDE91C01C6A8FEF7BBFEE84A92
:1014A00003C2E74903C9FFF70BF8E54A03C2E54861
:1014B00000781D9000EBD07041101D98B0EB4100FA
:1014C00003D1DF4903C9FFF720F8DF48B0F9000076
:1014D000002804DBDD48B0F90000002807DBDA480B
:1014E000B0F90000002822DDD8480088F8B9D848B3
:1014F000B0F9000004F0C3FE21F00041CDE91C0169
:1015000004F048FCD34908600846006805F048F933
:1015100002460B46CDE91C01AEA8FEF77BFEC14A90
:1015200003C2C04903C9FEF7CBFFBE4A03C2C54888
:1015300000781D9000EBD07041101D9801E06CE226
:10154000D2E1B0EB410003D1B64903C9FEF7F9FF80
:10155000C148006804F093FEC04AC14BCDE91401B4
:1015600004F0F4FE0022BF4BCDE9160104F000FDAB
:10157000CDE9180104F0D4FBCDE91C01AE48B0F967
:10158000000004F07CFEB54AB54BCDE9120104F031
:10159000DDFE0022B44BCDE9140104F0E9FCCDE9F5
:1015A000160104F0BDFB0022B04BCDE9180104F098
:1015B000CDFECDE91A01DDE91C2304F0D9FC7F91B1
:1015C0007E90A348B0F9000004F059FEA34AA44B52
:1015D000CDE9160104F0BAFE0022A34BCDE91801B3
:1015E00004F0C6FCCDE91A0104F09AFB00229F4BDF
:1015F000CDE91C0104F0AAFE9D4A03C29C480CC818
:101600007EA8FEF707FE9B4A03C29A4903C9FEF76C
:1016100057FF984A03C28B4800781D9000EBD070AA
:1016200042101D98A0EB4200012806D1914903C940
:1016300004F0F6FD1D90FEF77DFE8748006804F07B
:101640001EFE864A864BCDE9140104F07FFE00227F
:10165000844BCDE9160104F08BFCCDE9180104F0B0
:101660005FFBCDE91C017A48B0F9000004F007FEE9
:101670007A4A7B4BCDE9120104F068FE00227A4BD6
:10168000CDE9140104F074FCCDE9160104F048FB27
:101690000022764BCDE9180104F058FECDE91A017D
:1016A000DDE91C2304F052FE979196906248B0F950
:1016B000000004F0E4FD694A694BCDE9160104F02D
:1016C00045FE0022684BCDE9180104F051FCCDE93C
:1016D0001A0104F025FB0022644BCDE91C0104F043
:1016E00035FE654A03C264480CC896A8FEF792FD11
:1016F000624A03C2614903C9FEF7E2FE5F4A03C2C0
:10170000504800781D9000EBD07042101D98A0EB5F
:101710004200012806D1594903C904F081FD1D90FA
:10172000FEF71FFE5648006805F03AF8CDE91C01A7
:101730007F997E98CDE918014D480CC8189804F09F
:1017400045FF21F00041CDE91A01DDE91C2304F039
:10175000C1FD65D24A48006805F022F8CDE91C01B8
:1017600097999698CDE9180143480CC8189804F049
:101770002DFF21F00041CDE91A01DDE91C2304F021
:10178000A9FD4DD23E48006805F00AF8CDE91C01DC
:101790003C48007804F08AFDCDE91801274800682C
:1017A00004F0FEFF2D4A2E4BCDE90E0104F0CEFDD4
:1017B00000222D4BCDE9100104F0DAFBCDE9120136
:1017C00004F0AEFA0022294BCDE9140104F0BEFD6D
:1017D000CDE91601DDE9182304F0F8FE21F00041FF
:1017E000CDE91A01DDE91C2304F074FD6FD2244811
:1017F000006804F0D5FFCDE91C012248007804F010
:1018000055FDCDE918010D48006804F0C9FF134AE1
:10181000134BCDE90E0104F099FD0022124B33E089
:1018200055E0000068010020C8000020F8000020FA
:10183000AC000020B0000020EC010020B40000202B
:1018400060010020D0000020AE000020B200002087
:10185000EE010020B8000020C0000020A7E8482EBC
:10186000FF210940008066400094D14000E05440D0
:1018700078010020880100207001002080010020F4
:10188000D4000020BC000020CDE9100104F070FB62
:10189000CDE9120104F044FA0022FE4BCDE9140117
:1018A00004F054FDCDE91601DDE9182304F08EFEA5
:1018B00021F00041CDE91A01DDE91C2304F00AFD05
:1018C00005D2F5480088401CF349088002E000205A
:1018D000F1490880F0480088322802DD01F061FEFD
:1018E00030E101F064FE2DE1EC480078012872D16E
:1018F000EB48B0F90000002804DBEA48B0F900002A
:10190000002807DBE648B0F90000002866DDE5485E
:101910000088E0BBE448B0F9000004F0B0FC21F01E
:101920000041CDE91C0104F035FAE04908600846A1
:10193000006804F035FF02460B46CDE91C01AEA855
:10194000FEF768FCDA4A03C2D94903C9FEF7B8FDBD
:10195000D74A03C2D748007804F0A8FCCDE91A01A1
:10196000D248006804F01CFFD34AD44BCDE91001E3
:1019700004F0ECFC0022D24BCDE9120104F0F8FA9D
:10198000CDE9140104F0CCF90022C24B00E025E0BF
:10199000CDE9160104F0DAFCCDE91801DDE91A23DE
:1019A00004F014FE21F000410022C64BCDE91C01D9
:1019B00004F090FC05D2B8480088401CB649088065
:1019C00002E00020B4490880B3480088012803DD04
:1019D00001F0E7FD02E021E001F0E9FDB44903C9AF
:1019E000FEF7AFFDB848B0F9000004F048FC02462D
:1019F0000B46CDE91C01DEA8FEF70CFCB34A03C27E
:101A0000B24903C9FEF75CFDB04A03C2AF4903C93E
:101A100004F006FC1D90FEF7A4FC93E0AC48B0F97E
:101A20000000002804DBAB48B0F90000002807DB09
:101A3000A748B0F90000002865DDA6480088E0BB93
:101A4000A148B0F9000004F01AFC21F00041CDE9F2
:101A50001C0104F09FF9A04908600846006804F0E2
:101A60009FFE02460B46CDE91C01C6A8FEF7D2FB3D
:101A7000964A03C2954903C9FEF722FD934A03C261
:101A80009648007804F012FCCDE91A0192480068EB
:101A900004F086FE884A894BCDE9100104F056FC1B
:101AA0000022874BCDE9120104F062FACDE914015E
:101AB00004F036F90022774B00E024E0CDE916016E
:101AC00004F044FCCDE91801DDE91A2304F07EFDA1
:101AD00021F0004100227B4BCDE91C0104F0FAFB10
:101AE00005D26D480088401C6B49088002E0002048
:101AF0006949088068480088012802DD01F051FD2D
:101B000001E001F054FD714903C9FEF7FEFC66488F
:101B1000B0F9000004F0B3FB02460B46CDE91C010E
:101B2000F6A8FEF777FB624A03C2614903C9FEF7D4
:101B3000C7FC5F4A03C25E4903C904F071FB1D90F4
:101B4000FEF7F8FB6648006803287CD15648B0F9D8
:101B5000000004F094FB02460B46CDE91C01F6A8F8
:101B6000FEF758FB524A03C25748B0F9000004F090
:101B700086FB02460B46CDE91C01DEA8FEF74AFBB8
:101B8000524A03C24648B0F9000004F078FB21F045
:101B900000410022534BCDE91C0104F09BFB13D202
:101BA0004148B0F9000004F06AFB21F00041002236
:101BB0004D4BCDE91C0104F08DFB05D24B4800686C
:101BC000401C4A49086002E0002048490860474834
:101BD00000680A2803DD0021354A1160516034494C
:101BE00003C904F01DFB1D90FEF7A4FB374903C990
:101BF00004F016FB1D90FEF7B4FB3348B0F900006B
:101C000004F03DFB2C4A2D4BCDE9140104F09EFB62
:101C100000222B4BCDE9160104F0AAF9CDE91801F9
:101C200004F07EF800221B4BCDE91A0104F08EFB74
:101C300021F0004100222E4BCDE91C0104F04AFBAB
:101C40005CD2194800E065E0B0F9000004F017FB31
:101C5000194A1A4BCDE9140104F078FB0022184B05
:101C6000CDE9160104F084F9CDE9180104F058F823
:101C70000022084BCDE91A0104F068FB21F0004175
:101C800000221B4BCDE91C0104F024FB36D2024894
:101C900000882FE000E05440D2000020F80000202F
:101CA000AE000020B2000020EE010020B8000020AD
:101CB00068010020BD000020A7E8482EFF21094050
:101CC0000094D14000000C40EC0100206001002095
:101CD000AC000020B0000020B4000020BC000020B8
:101CE000C80000200000204000406540A400002003
:101CF00000000440401CFE49088002E00020FC492E
:101D00000880FB480088642802DD01F04AFC01E0FD
:101D100001F04DFCF7480068042803D0F54800683E
:101D200005287CD1F448B0F90000F449B1F900105D
:101D30004843002874D0F248B0F9000004F09FFA3C
:101D4000F04AF14BCDE90C0104F000FB0022EF4B0F
:101D5000CDE90E0104F00CF9CDE9100103F0E0FF2C
:101D6000CDE91401E648B0F9000004F088FAE54A2C
:101D7000E54BCDE9080104F0E9FA0022E34BCDE997
:101D80000A0104F0F5F8CDE90C0103F0C9FF0022C7
:101D9000DF4BCDE90E0104F0D9FA0022DC4BCDE98E
:101DA000100104F0D3FACDE91201DDE9142304F0A7
:101DB000CDFACDE91801D74800784043159004F0DA
:101DC0005EFACDE91601DDE9182304F0FFFBCDE949
:101DD0001C01C948B0F9000004F051FA21F000419B
:101DE000CDE91801C448B0F9000004F048FACDE983
:101DF0001601DDE9182304F0BBF8CDE91A01DDE98D
:101E00001C2304F0A3FA4F914E90C348B0F9000090
:101E100004F035FABB4ABC4BCDE9120101E0A5E163
:101E200042E104F093FA0022B84BCDE9140104F02A
:101E30009FF8CDE9160103F073FF0022B44BCDE902
:101E4000180104F083FACDE91C01B348B0F9000091
:101E500004F015FAAB4AAC4BCDE90E0104F076FA6A
:101E60000022AA4BCDE9100104F082F8CDE912015D
:101E700003F056FF0022A64BCDE9140104F066FAE8
:101E8000CDE918019C48B0F9000004F0F8F921F000
:101E90000041CDE914019848B0F9000004F0EFF9D1
:101EA000CDE91201DDE9142304F062F8CDE9160151
:101EB000DDE9182304F04AFACDE91A01DDE91C2313
:101EC00004F044FA954A03C294480CC84EA8FEF7A1
:101ED000A1F9934A03C2924903C9FEF7F1FA904A65
:101EE00003C28F4903C904F09BF91D90FEF722FA43
:101EF0008948B0F9000004F0C2F9824A824BCDE96A
:101F00000C0104F023FA0022804BCDE90E0104F00D
:101F10002FF8CDE9100103F003FFCDE914017E484D
:101F2000B0F9000004F0ABF9764A774BCDE908012F
:101F300004F00CFA0022754BCDE90A0104F018F800
:101F4000CDE90C0103F0ECFE0022714BCDE90E014E
:101F500004F0FCF900226E4BCDE9100104F0F6F913
:101F6000CDE91201DDE9142304F0F0F9CDE91801FF
:101F7000684800784043159004F081F9CDE91601D6
:101F8000DDE9182304F022FBCDE91C015B48B0F920
:101F9000000004F074F921F00041CDE91801574820
:101FA000B0F90000404204F06AF9CDE91601DDE91C
:101FB000182303F0DDFFCDE91A01DDE91C2304F04D
:101FC000C5F9679166904E48B0F9000004F057F9E2
:101FD0004C4A4D4BCDE9120104F0B8F900224B4BAD
:101FE000CDE9140103F0C4FFCDE9160103F098FE1A
:101FF0000022474BCDE9180104F0A8F9CDE91C01F6
:102000003F48B0F9000004F03AF93E4A3E4BCDE9B2
:102010000E0104F09BF900223C4BCDE9100103F0C6
:10202000A7FFCDE9120103F07BFE0022384BCDE97A
:10203000140104F08BF9CDE918013048B0F9000023
:1020400004F01DF921F00041CDE914012B48B0F94D
:102050000000404204F013F9CDE91201DDE9142338
:1020600003F086FFCDE91601DDE9182304F06EF9CF
:10207000CDE91A01DDE91C2304F068F9294A03C2FD
:1020800028480CC866A8FEF7C5F8274A03C22649A7
:1020900003C9FEF715FA244A03C2234903C904F011
:1020A000BFF81D90FEF75DF92048006804F078FB4A
:1020B000CDE91C014F994E98184BCDE918010CCB76
:1020C00004F078FA21F00041CDE91A01DDE91C2382
:1020D00004F000F93ED21548006804F061FBCDE938
:1020E0001C0167996698CDE918010E480CC81FE0DD
:1020F000D2000020C8000020AC000020AE0000206C
:10210000EC010020A7E8482EFF2109400094D140AF
:1021100000E05440C4000020EE010020A001002097
:1021200098010020A801002090010020D400002088
:10213000189804F04BFA21F00041CDE91A01DDE9CD
:102140001C2304F0C7F805D2FE480088401CFD4956
:10215000088002E00020FB490880FA4800889628A1
:1021600002DD01F01EFA01E001F021FAF6480068F4
:1021700006287DD1F548B0F90000F549B1F9001005
:102180004843002875D0F348B0F9000004F077F810
:10219000F14AF24BCDE9040104F0D8F80022F04BEB
:1021A000CDE9060103F0E4FECDE9080103F0B8FD36
:1021B000CDE90C01E748B0F9000004F060F8E64A08
:1021C000E64BCDE9000104F0C1F80022E44BCDE973
:1021D000020103F0CDFECDE9040103F0A1FD0022D0
:1021E000E04BCDE9060104F0B1F80022DD4BCDE96A
:1021F000080104F0ABF8CDE90A01DDE90C2304F095
:10220000A5F8CDE90E01D8480CC80E9804F09EF848
:10221000CDE91001D4480CC8109804F097F8CDE926
:102220001201D2480CC8129803F0A2FECDE91401A5
:10223000CE480CC8149803F09BFECDE91801CA489B
:1022400001460CC803C904F081F8CDE91601DDE9A7
:10225000182304F0BBF9CDE91C01BC48B0F900001B
:1022600004F00DF821F00041CDE91801B74801E074
:10227000DAE198E1B0F9000004F001F8CDE91601C7
:10228000DDE9182303F074FECDE91A01DDE91C2312
:1022900004F05CF8CDE91E01B548B0F9000003F088
:1022A000EEFFAD4AAD4BCDE9120104F04FF800222C
:1022B000AB4BCDE9140103F05BFECDE9160103F051
:1022C0002FFD0022A74BCDE9180104F03FF8CDE91E
:1022D0001C01A748B0F9000003F0D1FF9E4A9F4BB4
:1022E000CDE90E0104F032F800229D4BCDE910013A
:1022F00003F03EFECDE9120103F012FD0022994BDE
:10230000CDE9140104F022F8CDE918018F48B0F9A5
:10231000000003F0B4FF21F00041CDE914018B4827
:10232000B0F9000003F0ABFFCDE91201DDE91423A1
:1023300003F01EFECDE91601DDE9182304F006F8CE
:10234000CDE91A01DDE91C2304F000F8894A03C233
:1023500088480CC81EA8FDF75DFF874A03C286495E
:1023600003C9FEF7ADF8844A03C2834903C903F0E9
:1023700057FF1D90FDF7DEFF7D48B0F9000003F028
:102380007EFF754A754BCDE9040103F0DFFF0022A3
:10239000734BCDE9060103F0EBFDCDE9080103F035
:1023A000BFFCCDE90C017248B0F9000003F067FFF3
:1023B000694A6A4BCDE9000103F0C8FF0022684B6F
:1023C000CDE9020103F0D4FDCDE9040103F0A8FC3E
:1023D0000022644BCDE9060103F0B8FF0022614BF7
:1023E000CDE9080103F0B2FFCDE90A01DDE90C23D4
:1023F00003F0ACFFCDE90E015C480CC80E9803F069
:10240000A5FFCDE9100159480CC8109803F09EFFB4
:10241000CDE9120154480CC8129803F0A9FDCDE98A
:10242000140151480CC8149803F0A2FDCDE918011D
:102430004E4801460CC803C903F088FFCDE91601D8
:10244000DDE9182304F0C2F8CDE91C014048B0F9D9
:10245000000003F014FF21F00041CDE918013C48D1
:10246000B0F90000404203F00AFFCDE91601DDE9B2
:10247000182303F07DFDCDE91A01DDE91C2303F0EB
:1024800065FFCDE936013348B0F9000003F0F7FEEF
:10249000314A324BCDE9120103F058FF0022304B94
:1024A000CDE9140103F064FDCDE9160103F038FC19
:1024B00000222C4BCDE9180103F048FFCDE91C01A7
:1024C0002448B0F9000003F0DAFE234A234BCDE99B
:1024D0000E0103F03BFF0022214BCDE9100103F078
:1024E00047FDCDE9120103F01BFC00221D4BCDE995
:1024F000140103F02BFFCDE918011548B0F90000D5
:1025000003F0BDFE21F00041CDE914011048B0F9FF
:102510000000404203F0B3FECDE91201DDE91423CF
:1025200003F026FDCDE91601DDE9182303F00EFFC7
:10253000CDE91A01DDE91C2303F008FF0F4A03C2AD
:102540000E481DE0D2000020C8000020AC00002092
:10255000AE000020EC010020A7E8482EFF21094032
:102560000094D14000E05440E0000020D80000205A
:10257000EE010020C0010020B8010020C8010020A9
:102580000CC836A8FDF746FE6D4A03C26C4903C964
:10259000FDF796FF6A4A03C2694903C903F040FE8A
:1025A0001D90FDF7DEFE6748006804F0F9F8CDE9FC
:1025B0001C01DDE91E01644BCDE918010CCB03F0D1
:1025C000F9FF21F00041CDE91A01DDE91C2303F0F8
:1025D00081FE1DD25B48006804F0E2F8CDE91C01E1
:1025E000DDE93601CDE9180158480CC8189803F008
:1025F000EDFF21F00041CDE91A01DDE91C2303F0D4
:1026000069FE05D252480088401C5149088002E00A
:1026100000204F4908804E480088642802DD00F001
:10262000C0FF01E000F0C3FF4A48B0F900004A498A
:1026300008804A48B0F90000494908804948B0F983
:102640000000494908804948B0F90000484908801D
:1026500048480078401C47490870FDF713FF0020E8
:10266000454908704FF48041444800F04DFA00B9E4
:1026700001E0FEF7C8BD00BF0020FDF772FE00209C
:10268000FDF758FEFDF7D3BF70B504460E46002C8B
:1026900005DA64422D213A4801F0E8FD03E02B21E0
:1026A000374801F0E3FD42F2107094FBF0F080B285
:1026B00040F030052946324801F0D8FD42F2107052
:1026C00094FBF0F100FB11404FF47A7190FBF1F0B4
:1026D00080B240F030052946294801F0C7FD4FF48B
:1026E0007A7094FBF0F100FB1140642190FBF1F053
:1026F00080B240F030052946214801F0B7FD642042
:1027000094FBF0F100FB11400A2190FBF1F080B244
:1027100040F0300529461A4801F0A8FD0A2094FB34
:10272000F0F100FB114080B240F03005294614481A
:1027300001F09CFD2C21124801F098FD70BD0000B5
:10274000B0010020D4000020C0010020C8010020FA
:10275000D2000020EC010020A8000020EE010020A3
:10276000AA000020AC000020B0000020AE00002035
:10277000B2000020D0000020F0010020000C014039
:1027800000380140704700BFFEE700BFFEE700BF12
:10279000FEE700BFFEE770477047704770470000D4
:1027A0000CB50020019000906B48006840F4803028
:1027B0006949086000BF6848006800F40030009074
:1027C0000198401C0190009818B90198B0F5A06FCD
:1027D000F1D16148006810F4003F02D00120009060
:1027E00001E0002000900098012842D15B48006879
:1027F00040F01000594908600846006820F00300C6
:1028000008600846006840F00200086052484068CE
:10281000514948600846406848600846406840F4AE
:10282000806048600846406820F47C104860084694
:10283000406840F4E81048600846006840F0807046
:10284000086000BF4448006810F0007FFAD042489A
:10285000406820F00300404948600846406840F066
:102860000200486000BF3C48406800F00C000828A7
:10287000F9D10CBD10B5FFF793FF10BD10B5364868
:10288000006840F001003449086008464068344957
:1028900008403149486008460068324908402E49DE
:1028A00008600846006820F48020086008464068F8
:1028B00020F4FE0048604FF41F008860FFF7DAFF45
:1028C0004FF000602849086010BD10B500210020BD
:1028D0000022214B5B6803F00C0121B1042906D0D2
:1028E000082928D107E0214B214C236027E01F4B0A
:1028F0001F4C236023E0184B5B6803F47010164BE9
:102900005B6803F48032022303EB904022B9194B39
:102910004343174C23600DE00F4B5B6813F4003FFB
:1029200004D0144B4343124C236003E00F4B43434A
:102930000F4C236003E00D4B0D4C236000BF00BF24
:10294000054B5B68C3F303130B4CE15C084B1B683E
:10295000CB40074C236010BD001002400020024015
:102960000000FFF8FFFFF6FE08ED00E000127A001D
:10297000D001002000093D00D401002008B501214C
:10298000042001F0CFFAC020ADF8000018208DF827
:10299000030003208DF8020069464E4801F00CF850
:1029A0000121082001F0BEFA0320ADF80000182034
:1029B0008DF8030003208DF802006946464800F0B8
:1029C000FBFF08BD2DE9F04188B00446012102203B
:1029D00001F0B5FA4EF65F20ADF818000220ADF810
:1029E00014000020ADF81A00ADF8160005A93B4808
:1029F00001F0DEFD6020ADF804004EF65F2060437C
:102A0000642190FBF1F085B20120ADF80600ADF82D
:102A10000A500020ADF80C0001A9304801F005FE75
:102A200008212E4802F050FA4EF65F2060436421E0
:102A300090FBF1F086B20120ADF80600ADF80A6017
:102A40000020ADF80C0001A9244801F030FE082157
:102A5000224802F042FA4EF65F206043642190FB68
:102A6000F1F087B20120ADF80600ADF80A70002041
:102A7000ADF80C0001A9194801F066FE08211748BD
:102A800002F038FA4EF65F206043642190FBF1F0CB
:102A90001FFA80F80120ADF80600ADF80A8000208A
:102AA000ADF80C0001A90D4801F099FE08210B4872
:102AB00002F029FA0121094802F0D6F9012107485C
:102AC00002F0D2F808B0BDE8F08104493431088042
:102AD0007047000000080140000C01400004004065
:102AE00008B50121082001F01DFA4FF47F40ADF830
:102AF000000001208DF8020048208DF8030069468F
:102B00000C4800F059FF08BD70B504460D46294633
:102B1000204600F0E2FF58B91E2000F06BFD294668
:102B2000204600F0DAFF08B9002070BD0120FCE764
:102B30000120FAE7000C014070B504460E4626B1AC
:102B40000421FE4800F0E3FF03E00421FB4800F00D
:102B5000E0FF1021F94800F0DCFF002517E002211A
:102B6000F64800F0D6FF14F0800F04D00121F3489E
:102B700000F0CDFF03E00121F04800F0CAFF022180
:102B8000EE4800F0C4FF6006040E681CC5B2082DB4
:102B9000E5DB1021E94800F0BAFF0421E74800F026
:102BA000B6FF70BD70B500241CE004F1B001C8B2DE
:102BB0000021FFF7C1FF00210846FFF7BDFF0021FC
:102BC0001020FFF7B9FF002508E0DD4901EBC50142
:102BD000085D0121FFF7B0FF681CC5B2802DF4DB52
:102BE000601CC4B2082CE0DB70BD10B500218D2044
:102BF000FFF7A2FF00211420FFF79EFF0021AF2066
:102C0000FFF79AFF10BD10B500218D20FFF794FF4C
:102C100000211020FFF790FF0021AE20FFF78CFF6E
:102C200010BD70B500240CE0002506E00020C4496A
:102C300001EBC5010855681CC5B2802DF6DB601C90
:102C4000C4B2082CF0DBFFF7ADFF70BDF0B5144641
:102C500000267F2801DC3F2900DDF0BD0B46CF17A1
:102C600001EB5777FF10C7F10707FAB2CF1701EB57
:102C70005777FF10A1EBC707FDB2C5F10707012386
:102C8000BB40DEB24CB1AE4B03EBC0039B5C3343A5
:102C9000AB4F07EBC007BB5408E0A94B03EBC003E5
:102CA0009B5CB343A64F07EBC007BB5400BFD4E700
:102CB0002DE9F04706460F4690469946DDF820A0DC
:102CC00034460CE03D4606E0524629462046FFF7D2
:102CD000BDFF681CC5B24D45F6DD601CC4B244455D
:102CE000F0DDFFF75FFFBDE8F0872DE9F04F80468C
:102CF0000C4615461E46A346A5F12000C5B2002786
:102D00003EE00C2E07D105EB45008E4901EB80001B
:102D100010F8079004E08C4800EB051010F80790BD
:102D20004FF0000A26E019F0800F05D021464046FA
:102D3000099AFFF78BFF09E0099808B9012000E024
:102D40000020024621464046FFF780FF4FEA4960D7
:102D50004FEA1069601CC4B2A4EB0B00B04205D16D
:102D60005C4608F1010000F0FF0806E00AF10100EE
:102D700000F0FF0ABAF1080FD5DB00BF781CC7B21C
:102D8000B742BEDBBDE8F08F10B50246012000E07F
:102D900050430B00A1F10104E1B2F9D110BD2DE9BE
:102DA000FF4F81B0074691461E460E9D4FF0000A28
:102DB000002439E0301B401EC1B20A20FFF7E4FFB7
:102DC000B9FBF0F00A21B0FBF1F201FB1208BAF1F5
:102DD000000F16D1701EA04213DDB8F1000F0ED106
:102DE0000120AB4605EBDB71491001FB047100903B
:102DF000C8B22B4620220299FFF777FF12E04FF06E
:102E0000010A0120AB4605EBDB71491001FB04719F
:102E10000090C8B208F13001CAB22B460299FFF700
:102E200064FF00BF601CC4B2B442C3DB05B0BDE8A0
:102E3000F08FF8B505460E46144618E07A2D03DDEE
:102E4000002506F11000C6B23A2E04DD002005462A
:102E50000646FFF7E6FE0120009022781023314657
:102E60002846FFF742FF05F10800C5B2641C207830
:102E70000028E3D1F8BD08B50121042001F052F883
:102E80001F20ADF8000010208DF8030003208DF8FE
:102E900002006946294800F08FFD0821274800F00C
:102EA00038FE642000F0A6FB0821244800F02FFE25
:102EB0000021AE20FFF740FE0021D520FFF73CFEA9
:102EC00000215020FFF738FE0021A820FFF734FE34
:102ED00000213F20FFF730FE0021D320FFF72CFE1A
:102EE00000210846FFF728FE00214020FFF724FEBE
:102EF00000218D20FFF720FE00211420FFF71CFE8B
:102F000000212020FFF718FE00210220FFF714FE09
:102F10000021A120FFF710FE0021C020FFF70CFECA
:102F20000021DA20FFF708FE00211220FFF704FE3F
:102F300000218120FFF700FE002107E0000801408A
:102F400014020020EC6B000860700008EF20FFF70F
:102F5000F3FD0021D920FFF7EFFD0021F120FFF75D
:102F6000EBFD0021DB20FFF7E7FD00213020FFF71C
:102F7000E3FD0021A420FFF7DFFD0021A620FFF7DD
:102F8000DBFD0021AF20FFF7D7FDFFF74AFE08BDAC
:102F900070B504460D4605F1B001C8B20021FFF737
:102FA000CBFD102141EA14100021FFF7C5FD04F00C
:102FB0000F0141F001000021FFF7BEFD70BD2DE9BA
:102FC000F04180460E46174600247D0131464046BA
:102FD000FFF7DEFF00BF08E0FE49485D0121FFF773
:102FE000ABFD681C85B2601CC4B2102CF4DB701EF3
:102FF000C1B24046FFF7CCFF002408E0F549485D28
:103000000121FFF799FD681C85B2601CC4B2102C29
:10301000F4DBBDE8F0812DE9F04180460E4617460D
:1030200000243D0131464046FFF7B2FF00BF08E0F3
:10303000E949485D0121FFF77FFD681C85B2601CEE
:10304000C4B2082CF4DB701EC1B24046FFF7A0FFEB
:10305000002408E0E049485D0121FFF76DFD681C90
:1030600085B2601CC4B2082CF4DBBDE8F0812DE908
:10307000F04180460E46174600243D013146404649
:10308000FFF786FF00BF08E0D449485D0121FFF744
:1030900053FD681C85B2601CC4B2082CF4DB701EA2
:1030A000C1B24046FFF774FF002408E0CB49485DF9
:1030B0000121FFF741FD681C85B2601CC4B2082CD9
:1030C000F4DBBDE8F08110B5FFF7ABFD1D22052153
:1030D0000120FFF774FF1E2205211120FFF76FFF6B
:1030E0001F2205212120FFF76AFF2422052131201C
:1030F000FFF7BDFF0F2203212120FFF760FF102201
:1031000003213120FFF75BFF112203214120FFF74C
:1031100056FF262203215120FFF7A9FF2622032173
:103120005920FFF7A4FF262203216120FFF79FFF0C
:1031300010BD70B50646FFF774FD0022072101207F
:10314000FFF73DFF012207211220FFF738FF02227F
:1031500007212220FFF733FF032207213220FFF748
:103160002EFF042203210120FFF729FF052203215E
:103170001220FFF724FF062203212220FFF71FFF62
:10318000072203213220FFF71AFF01220521102018
:10319000FFF76DFF022205213020FFF768FF0322B1
:1031A00005215020FFF763FF042205217020FFF75F
:1031B0005EFF012211461020FFF759FF0222012174
:1031C0003020FFF754FF032201215020FFF74FFF6B
:1031D000082E1AD2DFE806F01904070A0D1013169C
:1031E0000525002412E0052520240FE005254024B4
:1031F0000CE00525602409E00125002406E00125F6
:10320000202403E00125402400E000BF00BF082285
:1032100029462046FFF7D3FE70BD10B5FFF701FD2C
:103220000F2205210120FFF7CAFE102205211120DF
:10323000FFF7C5FE112205212120FFF7C0FE26223F
:1032400005213120FFF713FF262205213920FFF742
:103250000EFF262205214120FFF709FF122203213C
:103260000120FFF7ACFE132203211120FFF7A7FE78
:10327000142203212120FFF7A2FE15220321312071
:10328000FFF79DFE162203214120FFF798FE10BD97
:103290002DE9F05F05460E4614460A2096FBF0F035
:1032A000C7B207EB8700A6EB400000F0FF096420DF
:1032B00094FBF0F000F0FF0808EBC80000EB0810EA
:1032C000A4EB80000A2190FBF1F000F0FF0A0A2035
:1032D00094FBF0F100FB114000F0FF0BFFF7A1FCA5
:1032E000082D7DD2DFE805F07C041E4C9BB5E3FE83
:1032F000002207210120FFF762FE01220721122090
:10330000FFF75DFE022207212220FFF758FE03226D
:1033100007213220FFF753FE172207214220FFF733
:103320004EFE23E1002207210120FFF748FE012283
:1033300007211220FFF743FE022207212220FFF778
:103340003EFE032207213220FFF739FE1822072113
:103350004220FFF734FE092205210120FFF72FFE4E
:103360000A2205211220FFF72AFE3A4605212820CD
:10337000FFF77DFE4A4605213220FFF778FEF5E093
:10338000002207210120FFF71AFE01220721122047
:10339000FFF715FE022207212220FFF710FE03226D
:1033A00007213220FFF70BFE192207214220FFF7E9
:1033B00006FE0B2205210120FFF701FE0C2205214C
:1033C0001220FFF7FCFD424605214C20FFF74FFE7F
:1033D000524606E050760008507A00087C690008E2
:1033E000C3E005215420FFF742FE5A4605215C2028
:1033F000FFF73DFE092203210120FFF7E0FD0A222D
:1034000003211220FFF7DBFD3A4603214C20FFF792
:103410002EFE4A4603215420FFF729FEA6E0002293
:1034200007210120FFF7CBFD012207211220FFF722
:10343000C6FD022207212220FFF7C1FD032207213A
:103440003220FFF7BCFD1A2207214220FFF7B7FD0B
:103450008CE0042207210120FFF7B1FD052207219E
:103460001220FFF7ACFD062207212220FFF7A7FD5F
:10347000072211463220FFF7A2FD17220721422022
:10348000FFF79DFD0D2205210120FFF798FD0E227B
:1034900005211220FFF793FD3A4605214C20FFF746
:1034A000E6FD4A4605215420FFF7E1FD5EE00422D7
:1034B00007210120FFF783FD052207211220FFF7D6
:1034C0007EFD062207212220FFF779FD0722114603
:1034D0003220FFF774FD182207214220FFF76FFD0D
:1034E0000D2200E013E005210120FFF768FD0E2208
:1034F00005211220FFF763FD3A4605214C20FFF716
:10350000B6FD4A4605215420FFF7B1FD2EE0042206
:1035100007210120FFF753FD052207211220FFF7A5
:103520004EFD062207212220FFF749FD0722114602
:103530003220FFF744FD192207214220FFF73FFD0B
:103540000D2205210120FFF73AFD0E220521122050
:10355000FFF735FD3A4605214C20FFF788FD4A4626
:1035600005215420FFF783FD00E000BF00BFBDE848
:10357000F09F000008B50121082000F0D3FC0420D2
:10358000ADF8000010208DF8030003208DF8020034
:1035900069460A4800F010FA0421084800F0B9FA18
:1035A00008BD10B50421054800F0B1FA10BD10B5F2
:1035B0000421024800F0ADFA10BD0000000C0140EB
:1035C00010B504466FF0040000F078F9E11704EB41
:1035D0005171C1F3C701224A11701046007800EB07
:1035E0004001C1EBC0104FF6FF7101EAC0001D4958
:1035F000088010BD01461B4A12884A434FF0E02361
:103600005A6100229A6101221A6100BF4FF0E02244
:10361000106910F0010F02D010F4803FF6D00022A4
:103620004FF0E0231A619A61704701460C4A127804
:103630004A434FF0E0235A6100229A6101221A6145
:1036400000BF4FF0E022106910F0010F02D010F41B
:10365000803FF6D000224FF0E0231A619A61704754
:10366000E4010020E601002010B54FF4A06000F056
:10367000D5F810BD014600BF704700BF4F4A128801
:1036800012F0400FFAD0C2B24C4B1B1D1A8070478B
:1036900010B586B00446012144F2050000F042FC5A
:1036A0004FF40070ADF8140003208DF816001820B8
:1036B0008DF8170005A9424800F07EF94FF48060AC
:1036C000ADF8140004208DF8170005A93C4800F05F
:1036D00073F925208DF8000002208DF801008DF887
:1036E000020001208DF80300684600F09CF8334882
:1036F00000F080FC01940020ADF80800ADF80A004D
:10370000ADF80C00ADF810000C20ADF80E0001A9CA
:103710002A4800F0B2FC012240F22551274800F06F
:1037200044FD0121254800F034FD06B010BD10B560
:1037300040F22551214800F023FE00283CD01F48CC
:1037400000F09EFDC1B21F4802780078401C1D4B5E
:1037500018701D4881540078AA2804D0002019460A
:1037600008701949087017480078082824D11648AD
:10377000C07955281DD1144880781349497840EA0A
:10378000012000B2114908800F4800790E49C9781C
:1037900040EA012000B20E4908800B4880790A49AE
:1037A000497940EA012000B20A49088001200A490B
:1037B000087000200349087010BD00000038014067
:1037C00000080140F1010020F2010020EA01002080
:1037D000EC010020EE010020F001002009488047A4
:1037E00009480047FEE7FEE7FEE7FEE7FEE7FEE7E3
:1037F000FEE7FEE7FEE7FEE704480549054A064BFB
:10380000704700007D280008ED00000878060020C1
:10381000780C002078080020780800203149014306
:10382000314A1160704770B5002100230F22C4781F
:103830000CB32D4C246804F4E064C4F5E064210A60
:10384000C1F10403CA40447804FA03F184781440B7
:1038500021430901254C0678A155047804F01F0581
:103860000124AC4005786D114FF0E02606EB85058C
:10387000C5F8004109E0047804F01F050124AC40BC
:103880001B4D0678761145F8264070BD194A0A404E
:103890000243154B1B1F1A60704739B1124A121DA3
:1038A00012680243104B1B1D1A6006E00E4A121DDF
:1038B000126882430C4B1B1D1A607047042808D104
:1038C0004FF0E021096941F004014FF0E02211615D
:1038D00007E04FF0E021096921F004014FF0E022F8
:1038E000116170470000FA050CED00E000E400E013
:1038F00080E100E080FFFF1F10B50446CA48844203
:1039000008D10121042000F027FB0021042000F051
:1039100023FB46E0C548844208D10121082000F07D
:103920001BFB0021082000F017FB3AE0C04884424E
:1039300008D10121102000F00FFB0021102000F021
:103940000BFB2EE0BB48844208D10121202000F06F
:1039500003FB0021202000F0FFFA22E0B648844259
:1039600008D10121402000F0F7FA0021402000F0AA
:10397000F3FA16E0B148844208D10121802000F01A
:10398000EBFA0021802000F0E7FA0AE0AC4884421C
:1039900007D10121801500F0DFFA0021A01500F009
:1039A000DBFA10BD10B50121084600F0D5FA002160
:1039B000012000F0D1FA10BD2DE9F04102460025AA
:1039C0000026002000230024002791F803C00CF0FB
:1039D0000F0591F803C01CF0100F03D091F802C03E
:1039E0004CEA050591F800C0BCF1000F31D0146815
:1039F00000202BE04FF0010C0CFA00F3B1F800C0EE
:103A00000CEA03069E4220D183004FF00F0C0CFA03
:103A100003F7BC4305FA03FC4CEA040491F803C025
:103A2000BCF1280F06D14FF0010C0CFA00FCC2F8D3
:103A300014C00AE091F803C0BCF1480F05D14FF063
:103A4000010C0CFA00FCC2F810C0401C0828D1D3AD
:103A50001460B1F800C0BCF1FF0F34DD54680020E1
:103A60002EE000F1080C4FF0010808FA0CF3B1F851
:103A700000C00CEA03069E4221D183004FF00F0CD8
:103A80000CFA03F7BC4305FA03FC4CEA040491F872
:103A900003C0BCF1280F05D100F1080C08FA0CF89E
:103AA000C2F8148091F803C0BCF1480F07D100F1AF
:103AB000080C4FF0010808FA0CF8C2F81080401CFE
:103AC0000828CED35460BDE8F0814FF6FF71018025
:103AD000022181700421C170704702460020936862
:103AE0000B4201D0012000E00020704701468868A9
:103AF00080B2704702460020D3680B4201D00120FB
:103B000000E0002070470146C86880B2704701613C
:103B10007047416170470AB1016100E0416170473F
:103B2000C16070474FF480320A43826181618261D3
:103B300082698269704702460020424B18684FF63E
:103B40008073184040EA021008433E4B18607047EB
:103B50003D49C8617047F0B50A46002300240021A2
:103B6000002500F00046B6F1004F02D1354EF16954
:103B700001E0344E7168C0F3034583B200F440168F
:103B8000B6F5401F08D121F070612E4E766826F000
:103B900070662C4F7E6012E000F48016B6F5801F30
:103BA00006D1032606FA05F4A14341F0706106E050
:103BB000460D360103FA06F6B14341F0706122B1B9
:103BC000460D360103FA06F6314300F00046B6F121
:103BD000004F02D11B4EF16101E01A4E7160F0BD41
:103BE00030B500228B071C0F0F2303FA04F2154B8C
:103BF00008338C1053F824309343124C08348D1042
:103C000044F8253023468C1053F824308C07240FB9
:103C100000FA04F423430B4C08348D1044F825308B
:103C200030BD0A490860704700080140000C01409F
:103C3000001001400014014000180140001C014028
:103C4000002001400000014000002042DC00204232
:103C5000DD48006840F00100DB4908600846406824
:103C6000DA490840D849486008460068D849084001
:103C7000D54908600846006820F48020086008469E
:103C8000406820F4FE0048604FF41F0088607047D1
:103C9000CD49096821F48031CB4A11601146096889
:103CA00021F480211160B0F5803F03D0B0F5802F62
:103CB0000ED106E0C449096841F48031C24A11605E
:103CC00007E0C149096841F4A021BF4A116000E042
:103CD00000BF00BF704710B501460022002300203E
:103CE0004A11012A02D1B84C236806E0022A02D107
:103CF000B54C236A01E0B44C636A01F01F02012451
:103D000094401C4201D0012000E0002010BD38B5D5
:103D1000002000900024002500BF3120FFF7DBFFCA
:103D200005460098401C00900098B0F5A06F01D0A7
:103D3000002DF2D03120FFF7CEFF08B1012400E0C2
:103D40000024204638BD014600209F4A106820F01C
:103D5000F80040EAC100106070479E490860704753
:103D600002460020984B586820F47C1042EA010378
:103D70001843954B5860704796490866704701464E
:103D80000020914A506820F00300084350607047BB
:103D90008D48406800F00C007047014600208A4AB8
:103DA000506820F0F0000843506070470146002042
:103DB000854A506820F4E06008435060704701462F
:103DC0000020814A506820F4605040EAC1005060F1
:103DD000704729B17C4A527A02437B4B5A7204E005
:103DE000794A527A8243784B5A7270477A4908600E
:103DF000704701460020744A506820F44040084350
:103E0000506070470021754A11706F4A82F8201087
:103E1000012802D0042808D103E001216F4A117063
:103E200004E005216D4A117000E000BF00BF70473B
:103E30006B49086070476449096A0143624A11622C
:103E40007047674944390860704730B50021002247
:103E5000002400235C4D6D6805F00C0121B104299C
:103E600005D0082923D105E05E4D056022E05D4DB7
:103E700005601FE0544D6D6805F47012524D6D6879
:103E800005F48034022505EB92421CB9564D55438A
:103E900005600BE04C4D6D6815F4003F03D0524DAA
:103EA0005543056002E04F4D5543056002E04D4D1E
:103EB000056000BF00BF444D6D6805F0F0010909C1
:103EC0004A4D6B5C0568DD4045603F4D6D6805F40B
:103ED000E061090A454D6B5C4568DD4085603A4DFF
:103EE0006D6805F46051C90A404D6B5C4568DD4062
:103EF000C560354D6D6805F44041890B3C4D6B5CE8
:103F0000C568B5FBF3F5056130BD29B12E4A52698C
:103F100002432D4B5A6104E02B4A526982432A4BDB
:103F20005A61704729B1284A92690243264B9A6127
:103F300004E0254A92698243234B9A61704729B174
:103F4000214AD2690243204BDA6104E01E4AD26959
:103F500082431D4BDA61704729B11B4AD268024384
:103F6000194BDA6004E0184AD2688243164BDA60D3
:103F7000704729B1144A12690243134B1A6104E0D5
:103F8000114A12698243104B1A6170471449403933
:103F9000086070470F49C86470470B49C871704783
:103FA0000948406A40F080700749486270470146FE
:103FB0000020054A92680A4201D0012000E000205A
:103FC0007047014988727047001002400000FFF8F6
:103FD000FFFFF6FE00004242D8004242201002409D
:103FE0008004424200127A0000093D0000020020D5
:103FF0001002002010B50446F648844209D1012180
:104000008803FFF7A9FF00214FF48040FFF7A4FFCA
:1040100032E0F148844209D101214804FFF7A9FFA9
:1040200000214FF40030FFF7A4FF25E0EB48844265
:1040300009D101218804FFF79CFF00214FF4802063
:10404000FFF797FF18E0E648844209D10121C80430
:10405000FFF78FFF00214FF40020FFF78AFF0BE0EE
:10406000E048844208D101210805FFF782FF0021C2
:104070004FF48010FFF77DFF10BD2DE9F04786B0AB
:1040800005460E460024A24600BFA1460027B0897F
:1040900000B100BF2F462C8A4CF6FF700440F08818
:1040A00004432C82AC894EF6F3100440B088318969
:1040B0000843718908430443AC81AC8A4FF6FF4042
:1040C0000440B0890443AC8201A8FFF7BEFEC1489A
:1040D000874202D1DDF810A001E0DDF80CA0A8892C
:1040E00010F4004F08D00AEBCA0000EB0A10316848
:1040F0004900B0FBF1F807E00AEBCA0000EB0A1038
:1041000031688900B0FBF1F86420B8FBF0F00401DD
:104110002009642101FB1089A88910F4004F08D000
:10412000322000EBC900B0FBF1F000F007000443BF
:1041300008E0322000EB09106421B0FBF1F000F040
:104140000F0004432C8106B0BDE8F0874FF41651F0
:10415000016000218180C18001810C214181002109
:104160008181704710B502460020108A4FF2FF038C
:1041700018400B884C8823438C882343CC882343E6
:104180001843108210BD0021018041808180C180D0
:10419000704721B1828942F40052828104E0828911
:1041A0004DF6FF731A4082817047F0B50346002434
:1041B000002600250020A1F510676A3F00D100BF4E
:1041C0001846C1F3421401F01F06012707FA06F54D
:1041D000012C01D10C3004E0022C01D1103000E0A0
:1041E00014301AB107682F43076002E00768AF4335
:1041F0000760F0BD1AB1838A0B43838202E0838A91
:104200008B4383827047028A4FF6F0731A40028212
:10421000028A0A430282704782894FF2FF731A4072
:10422000828182890A438281704721B1828942F06A
:104230000202828104E082894FF6FD731A40828176
:104240007047028A4FF6DF731A400282028A0A43DD
:104250000282704721B1028A42F48042028204E065
:10426000028A4BF6FF731A400282704700BF594A18
:10427000128812F0400FFAD0C1F308028280704712
:1042800001468888C0F308007047818941F0010128
:1042900081817047028BD2B20283028B42EA0122F3
:1042A00002837047028B02F47F420283028B0A432F
:1042B0000283704721B1828A42F02002828204E0A8
:1042C000828A4FF6DF731A408282704721B1828A58
:1042D00042F01002828204E0828A4FF6EF731A40A5
:1042E0008282704721B1828A42F00802828204E011
:1042F000828A4FF6F7731A408282704721B1828911
:1043000042F40042828103E08289C2F30E0282817C
:10431000704721B1828A42F40062828204E0828A7C
:104320004FF2FF731A4082827047828A4FF6FB7306
:104330001A408282828A0A438282704721B1828A2D
:1043400042F00202828204E0828A4FF6FD731A4034
:104350008282704702460020B1F5007F00D100BF85
:1043600013880B4201D0012000E00020704701F4C7
:104370000072B2F5007F00D100BFCA4302807047CF
:1043800070B502460024002300250020A1F5106628
:104390006A3E00D100BFC1F3421501F01F030126A0
:1043A00006FA03F3012D02D19689334006E0022D6F
:1043B00002D1168A334001E0968A33400C1201265E
:1043C00006FA04F41688344013B10CB1012000E061
:1043D000002070BD0038014000440040004800400B
:1043E000004C00400050004010B500220023A1F511
:1043F00010646A3C00D100BF0A1201249440A3B2A9
:10440000DC43048010BD000010B50446FE48844221
:1044100008D10121C014FFF79FFD0021E014FFF730
:104420009BFDC4E0B4F1804F08D101210846FFF79D
:10443000A0FD00210120FFF79CFDB8E0F348844275
:1044400008D101210220FFF794FD00210220FFF78F
:1044500090FDACE0EE48844208D101210420FFF732
:1044600088FD00210420FFF784FDA0E0E948844294
:1044700008D101210820FFF77CFD00210820FFF76B
:1044800078FD94E0E448844208D101211020FFF730
:1044900070FD00211020FFF76CFD88E0DF488442AA
:1044A00008D101212020FFF764FD00212020FFF723
:1044B00060FD7CE0DA48844208D101214014FFF716
:1044C0004BFD00216014FFF747FD70E0D5488442A2
:1044D00009D10121C804FFF73FFD00214FF400205E
:1044E000FFF73AFD63E0D048844209D10121080575
:1044F000FFF732FD00214FF48010FFF72DFD56E04D
:10450000CA48844209D101214805FFF725FD002151
:104510004FF40010FFF720FD49E0C548844208D160
:1045200001214020FFF725FD00214020FFF721FD5C
:104530003DE0C048844208D101218020FFF719FDE9
:1045400000218020FFF715FD31E0BB48844208D1EF
:1045500001218015FFF70DFD0021A015FFF709FDD2
:1045600025E0B648844209D101210804FFF7F4FC94
:1045700000214FF48030FFF7EFFC18E0B048844290
:1045800009D101214804FFF7E7FC00214FF4003076
:10459000FFF7E2FC0BE0AB48844208D1012188041C
:1045A000FFF7DAFC00214FF48020FFF7D5FC10BDA7
:1045B00000220288944B98420ED0994B98420BD01F
:1045C000B0F1804F08D0914B984205D0904B984263
:1045D00002D0904B984204D14FF68F731A404B880B
:1045E0001A438D4B984207D08C4B984204D04FF61B
:1045F000FF431A40CB881A4302808B8883850B883F
:104600000385814B98420BD0854B984208D08B4B49
:10461000984205D08A4B984202D08A4B984201D1E9
:104620000B7A038601238382704770B50024002231
:104630000023058C4FF6FE7635400584028C838876
:10464000048B4FF68F752C40B51E2C400D882C43E3
:10465000751E2A400D892A434D882A436A4DA84277
:104660000BD06F4DA84208D0744DA84205D0744DB0
:10467000A84202D0734DA84213D14FF6F7752A40D5
:104680004D892A434FF6FB752A408D882A434FF601
:10469000FF652B404FF6FF552B408D892B43CD896D
:1046A0002B4383800483CD888586028470BD70B5DA
:1046B000002400220023058C4FF6EF763540058458
:1046C000028C8388048B48F6FF752C404FF6FF451B
:1046D0002C400D884FF6FF7606EA05252C434FF651
:1046E000DF752A400D8906EA05152A434D8806EA3A
:1046F00005152A43444DA84202D0494DA8421DD178
:104700004FF67F752A404D894FF6FF7606EA05156C
:104710002A434FF6BF752A408D8806EA05152A43BD
:104720004FF6FF352B404FF2FF752B408D8906EA7F
:1047300085052B43CD8906EA85052B4383800483B9
:10474000CD880587028470BD70B500240022002347
:10475000058C4FF6FF6635400584028C8388848B78
:104760004FF68F752C404FF6FC752C400D882C436E
:104770004FF6FF552A400D894FF6FF7606EA0525CC
:104780002A434D8806EA05252A431F4DA84202D038
:10479000234DA8421DD14FF2FF752A404D894FF697
:1047A000FF7606EA05252A434FF6FF352A408D8815
:1047B00006EA05252A434EF6FF752B404DF6FF7598
:1047C0002B408D8906EA05152B43CD8906EA051590
:1047D0002B4383808483CD888587028470BD70B528
:1047E000002200230024058C4EF6FF763540058418
:1047F000038C8488828B48F6FF752A404FF6FF456C
:104800002A400D8820E00000002C014000040040F8
:1048100000080040000C0040001000400014004060
:1048200000340140004C0140005001400054014060
:1048300000180040001C00400020004000400140E3
:1048400000440140004801404FF6FF7606EA052586
:104850002A434DF6FF752B400D8906EA05352B439B
:104860004D8806EA05352B43FA4DA84202D0FA4D91
:10487000A84208D14BF6FF752C408D894FF6FF7684
:1048800006EA85152C4384808283CD88A0F84050A9
:10489000038470BD828B4FF2FF331A408283828B78
:1048A0004FF6FF7303EA01231A4382837047F0B582
:1048B0000C461546002200210026078C4EF6FF7C90
:1048C00007EA0C070784828B018C4FF6FF7707EA13
:1048D000043640F6FF473A404FF6FF7707EA0527D0
:1048E0003A434FF6FF7707EA03373A43D94FB842C6
:1048F0000ED0D94FB8420BD0B0F1804F08D0D74F6F
:10490000B84205D0D64FB84202D0D64FB84206D1F1
:104910004DF6FF77394046F48057394305E047F6B6
:10492000FF57394044F48057394382830184F0BDF6
:10493000828B4FF6F3731A408283828B0A43828301
:104940007047F0B50C461546002200210026078C62
:104950004FF6FF6C07EA0C070784828B018C4FF639
:10496000FF7707EA04264FF60C773A404FF6FF77B9
:1049700007EA03172F433A43B64FB8420ED0B64F5B
:10498000B8420BD0B0F1804F08D0B44FB84205D038
:10499000B34FB84202D0B34FB84206D14FF6FF57DB
:1049A000394046F48077394305E04FF2FF573940EC
:1049B00044F48077394382830184F0BD028B4FF247
:1049C000FF331A400283028B4FF6FF7303EA012381
:1049D0001A4302837047F0B50C46154600220021A9
:1049E0000026078C4FF6EF7C07EA0C070784028B42
:1049F000018C4FF6FF7707EA041640F6FF473A406E
:104A00004FF6FF7707EA03373A434FF6FF7707EA97
:104A100005273A438F4FB8420ED08F4FB8420BD084
:104A2000B0F1804F08D08D4FB84205D08C4FB842BE
:104A300002D08C4FB84206D14FF6DF77394046F0AE
:104A40001007394305E04FF65F77394044F010070F
:104A5000394302830184F0BD028B4FF6F3731A4091
:104A60000283028B0A4302837047F0B50C46154659
:104A700000220021068C4FF6FE773E400684028B12
:104A8000018C4FF60C7632407E1C06EA03162E434C
:104A90003243704EB0420ED06F4EB0420BD0B0F1E8
:104AA000804F08D06D4EB04205D06D4EB04202D05E
:104AB0006C4EB04206D14FF6FD76314044F001060F
:104AC000314305E04FF6F576314044F001063143BD
:104AD00002830184F0BD70B505460C465D488542F1
:104AE0000ED05D4885420BD0B5F1804F08D05B48B1
:104AF000854205D05A48854202D05A48854200D1A5
:104B000000E000BF208850B92389A2886188284628
:104B1000FFF7ABFFE1882846FFF79EFF25E02088DE
:104B200004280AD12389A28861882846FFF753FF09
:104B3000E1882846FFF742FF17E0208808280AD1BD
:104B40002389A28861882846FFF7FBFEE188284672
:104B5000FFF7EEFE09E02389A28861882846FFF767
:104B6000A6FEE1882846FFF795FE70BD2DE9F041CD
:104B700005460C4600260127608808B9022600E099
:104B80000026A088012801D1022700E00127208803
:104B9000A0B92389A28861882846FFF766FFE188CB
:104BA0002846FFF759FF23893A4631462846FFF742
:104BB00012FFE1882846FFF701FF13E02389A2884E
:104BC00061882846FFF707FFE1882846FFF7F6FED1
:104BD00023893A4631462846FFF747FFE1882846B1
:104BE000FFF73AFFBDE8F0810A884B881A438B88AB
:104BF0001A43CB881A430B891A434B891A438B8972
:104C00001A43A0F8442070474FF6FF7181800021BD
:104C10000180C18041800172704700210180418084
:104C20008180C180018141818181C18170470021E2
:104C300001804180012181800021C1800181704774
:104C40000021018041808180C18001814181818179
:104C500070470000002C0140003401400004004077
:104C600000080040000C004021B1028842F001021F
:104C7000028004E002884FF6FE731A4002807047FB
:104C800031B1B0F8442042F40042A0F8442005E0DD
:104C9000B0F84420C2F30E02A0F8442070471AB1C5
:104CA00083890B43838102E083898B43838170472F
:104CB0008182704741EA0203A0F8483070471AB178
:104CC00083890B43838102E083898B43838170470F
:104CD00001894FF6F8721140018170470A460021A0
:104CE00001894FF68F73194011430181704730B528
:104CF00004460D4629462046FFF7F0FF208940F084
:104D00000700208130BD2DE9F04104460D461646CE
:104D10001F46602D06D13B46012231462046FFF753
:104D20005AFE05E03B46012231462046FFF79DFE34
:104D300029462046FFF7D2FF208940F00700208156
:104D4000BDE8F08130B50C4600210189C9B24FF6AB
:104D5000FF7505EA0325154325432943018130BD2D
:104D60002DE9F04105460E46174698460024434675
:104D70003A4631462846FFF7E5FF2C894FF6F87092
:104D8000044044F007044FF68F70044044F0700470
:104D90002C81BDE8F081F0B504460D4616461F464D
:104DA0003B46324629462046FFF7CCFF208940F497
:104DB00080402081F0BD0185828270470A46002133
:104DC00001884FF68F731940114301807047F0B589
:104DD0000C4615461E460021002200230189028B45
:104DE000038C4FF6F877394021434FF6FC473A40A1
:104DF00040F201173A434FF6DD773B404FF6FF771D
:104E000007EA06172F433B43018102830384F0BD69
:104E10000A460021018B4FF68F731940114301831D
:104E200070470A460021018B48F6FF7319404FF680
:104E3000FF7303EA02231943018370470A460021E6
:104E4000818B4FF68F7319401143818370470A4657
:104E50000021818B48F6FF7319404FF6FF7303EA78
:104E6000022319438183704721B1028842F08002F6
:104E7000028004E002884FF67F731A400280704778
:104E800021B1828842F00402828004E082884FF6D9
:104E9000FB731A408280704721B1828842F0080279
:104EA000828004E082884FF6F7731A408280704750
:104EB00021B1828842F00102828004E082884FF6AC
:104EC000FE731A40828070470A460021018B4FF61C
:104ED000F77319401143018370470A460021018B83
:104EE0004FF2FF7319404FF6FF7303EA0223194391
:104EF000018370470A460021818B4FF6F7731940F2
:104F00001143818370470A460021818B4FF2FF7362
:104F100019404FF6FF7303EA022319438183704758
:104F20000A460021018B4FF6FB73194011430183A0
:104F300070470A460021018B4FF6FF3319404FF6A8
:104F4000FF7303EA02231943018370470A460021D5
:104F5000818B4FF6FB7319401143818370470A46DA
:104F60000021818B4FF6FF3319404FF6FF7303EAA0
:104F700002231943818370470A460021018B4FF6B3
:104F80007F7319401143018370470A460021018B4A
:104F9000C1F30E014FF6FF7303EA022319430183A5
:104FA00070470A460021818B4FF67F7319401143E9
:104FB000818370470A460021818BC1F30E014FF6B1
:104FC000FF7303EA02231943818370470A460021D5
:104FD000018C4FF6FD7319401143018470470A4656
:104FE0000021018C4FF6F77319401143018470477B
:104FF0000A460021018C4FF6DF7319404FF6FF730C
:1050000003EA02131943018470470A460021018C08
:105010004FF67F7319404FF6FF7303EA02131943EB
:10502000018470470A460021018C4FF6FF53194056
:105030004FF6FF7303EA02231943018470470A46BF
:105040000021018C4FF2FF7319404FF6FF7303EA02
:1050500002231943018470470A460021018C4DF652
:10506000FF7319404FF6FF7303EA023319430184BB
:10507000704730B5002301248C40A3B2048C9C43BC
:105080000484048C02FA01F5ADB22C43048430BDD3
:1050900030B5002304248C40A3B2048C9C430484C8
:1050A000048C02FA01F5ADB22C43048430BD70B516
:1050B0000346002000241846183001258D40ACB26C
:1050C0001D8CA5431D8409B1082909D100EB61009D
:1050D000056825F0700505600568154305600EE05C
:1050E0000D1FC5F34E052844056825F4E04505600D
:1050F00005684FF6FF7606EA02263543056070BD67
:1051000021B1028842F00202028004E002884FF6D8
:10511000FD731A400280704721B1028842F00402F8
:10512000028004E002884FF6FB731A400280704749
:1051300021B1828842F08002828004E082884FF6AA
:105140007F731A408280704702884FF6F7731A40C7
:10515000028002880A430280704782884FF68F736C
:105160001A40828082880A438280704702894FF603
:10517000F8731A40028102890A430281704702894A
:105180004FF67F731A40028102890A4302817047F9
:105190008184704781857047818670470187704799
:1051A00081877047A0F84010704702884FF6FF4390
:1051B0001A40028002880A43028070470146888EA6
:1051C00070470146088F70470146888F7047014637
:1051D000B1F8400070470146888C70470146088D41
:1051E000704702460020138A0B4201D0012000E0E4
:1051F00000207047CA430282704730B50246002043
:1052000000230024158A05EA0103958905EA0104B3
:1052100013B10CB1012000E0002030BDCA4302826E
:10522000704770474FF0000200B51346944696460B
:10523000203922BFA0E80C50A0E80C50B1F12001A9
:10524000BFF4F7AF090728BFA0E80C5048BF0CC057
:105250005DF804EB890028BF40F8042B08BF7047B5
:1052600048BF20F8022B11F0804F18BF00F8012B27
:105270007047704770477047704710B500F008F8E6
:10528000006810BD10B5044600F002F8046010BDBF
:10529000004870471406002000487047140600209C
:1052A0007546FFF7F9FFAE4605006946534620F004
:1052B0000700854618B020B5FEF79EFABDE82040ED
:1052C0004FF000064FF000074FF000084FF0000BC2
:1052D00021F00701AC46ACE8C009ACE8C009ACE875
:1052E000C009ACE8C0098D4670470446AFF30080A2
:1052F0002046FAF762FF490050EAC12018BF042097
:105300004A0D18BF40F0010040F2FF72B2EB515F4E
:1053100008BF40F00200012808BF052070470000C8
:105320002DE9F74F144696B00021C4E902111799F0
:10533000089121F00045CA498D4206DC1799C4E95D
:10534000000119B00020BDE8F08FC649DFF818A3AE
:10535000A9423CDD0899C54E0029C54FC54A179999
:10536000534619DD01F032F9554506D0C24AC34B08
:1053700001F02CF9C4E900010AE04FF0D352BF4B11
:1053800001F024F932463B4601F020F9C4E900015E
:1053900019B00120BDE8F08F00F02EFD554506D074
:1053A000B54AB64B00F028FDC4E900010AE04FF011
:1053B000D352B24B00F020FD32463B4600F01CFDBC
:1053C000C4E9000119B04FF0FF30BDE8F08FAC49DF
:1053D000A942179978DB21F000488346A94AAA4BD5
:1053E000414600F0B3FF0022A84B00F005FD00F09D
:1053F00017FF099000F043FF06460F469D4A5346AB
:1054000000F0A4FF5A46434601F0D4F880468A468D
:10541000994A9A4B3046394600F098FF2A0D0125EB
:105420000B924246534601F0C5F8032DC4E9000132
:1054300039D00B98C1F30A51401A05EB45111139C7
:10544000814230DA9248C346784400EB0510CDF82B
:105450001CA00C90D0E900233046394600F076FFBE
:10546000CDE9020102460B465846079901F0AEF815
:1054700080468A4602460B465846079901F0A6F830
:10548000DDE9022301F0A2F883460C980391394626
:10549000D0E90223304600F059FF5A46039B01F041
:1054A00095F86D1CBDE708980028A2BF099819B0AF
:1054B000BDE8F08F616881F000416160099819B022
:1054C0004042BDE8F08FFFE7C1F3130141F48011C2
:1054D0000E911799C1F30A51A1F2F532511102F060
:1054E0001F08C8F12002129200220C920D92694A04
:1054F0007A4402EB810101F1140C0DA95FF006075B
:10550000DCF80020DCF8045002FA08F3129AD1F813
:1055100000A025FA02F21A430E9BA2FB0356A2FB3F
:1055200000329A4415449A4534BF4FF0010B4FF0B6
:10553000000B51F8043C05EB0B0E7344954234BF4D
:10554000012200221644BBF1000F02D0AB4202D967
:1055500003E0AB4201D2012200E000223244C1F854
:1055600000A041E90223091FACF1040C7F1EC7D142
:105570000898DDE90A6500F10050800F1190089845
:10558000099F800000F07BFE80468A46384600F086
:105590008DFE6FF01D0201F0ABF907463046059114
:1055A00000F084FE6FF03D0201F0A2F9CDE9031096
:1055B000284600F07BFE6FF05D0201F099F9064687
:1055C00002460B460191DDE9031000F015FC3A4656
:1055D000059B00F011FC4246534600F00DFC0020F4
:1055E0000D4683464246534600F0F0FF3A46059B7F
:1055F00000F0ECFFDDE9033200F0E8FF3246019BEA
:1056000000F0D8FFDFF89480234A434600F09EFE66
:1056100006460F46224A234B5846294600F096FE7E
:1056200032463B4600F0E8FB0F4606464FF0A842E4
:1056300043465846294600F089FE32463B4600F074
:10564000DBFB179A12F0004F04D0119A81F0004151
:1056500052421192C4E90001119819B0BDE8F08FCF
:10566000FB21E93F7CD90240FB21F93F7370032EF7
:105670008A19A33B000040543163621A61B4D03DE3
:10568000FB21394183C8C96D305FE43F0000E03F32
:10569000C42700004C270000182D4454FB21F93D7D
:1056A0003326A611460B113C2DE9FF4D21F0004891
:1056B00007460C46B8F1795F08DA00F0B1FD002822
:1056C00001BF0020324904B0BDE8F08D3A462346C0
:1056D0001046194600F03AFE054602462D480E4691
:1056E0000B460621784400F05DF82A46334600F068
:1056F0002DFEDDE9022382468B463846214600F026
:1057000025FE04460F4652465B462846314600F0C9
:105710001DFE22463B4600F059FF07468A464FF0E1
:10572000FF322846314601F0E3F81B4A90450ADA79
:105730003A46534600F04AFF04B00022BDE8F04D5F
:10574000134B00F037BF154A4245A8BFA8F5001516
:105750004FF00004B8BF124D22462B4600F036FF32
:105760000646884622462B460020094900F02EFFB7
:1057700004460D463A4653463046414600F026FF61
:1057800004B022462B46BDE8F04D00F013BF0000E8
:105790000000F03FF82400003333D33F0000E93F1E
:1057A0000000D23F2DE9F0414F1E00EBC701044637
:1057B000D1E9000115461E4637F006020DD02A46F3
:1057C000334600F0C3FD7F1E04EBC703D3E900237B
:1057D00000F012FB37F00602F1D1022F25D0042F82
:1057E00013D0062F18BFBDE8F0812A46334600F0DB
:1057F000ADFDD4E90A2300F0FFFA2A46334600F053
:10580000A5FDD4E9082300F0F7FA2A46334600F054
:105810009DFDD4E9062300F0EFFA2A46334600F056
:1058200095FDD4E9042300F0E7FA2A46334600F058
:105830008DFDD4E9022300F0DFFA2A46334600F05A
:1058400085FDD4E90023BDE8F04100F0D5BA0000A1
:105850002DE9FF4D054621F0004084B00C46B0F123
:10586000795F0BDA2846FFF746FD042808BF00F0F1
:10587000A1F9284608B02146BDE8F08D2A460B461E
:10588000104600F063FD06460F462A46234600F008
:105890005DFD804626488A4632463B4605217844CF
:1058A000FFF780FF83461098029160B3214A224B94
:1058B0004046514600F04AFDCDE900015A464046B7
:1058C0005146029B00F042FD82468846DDE9060112
:1058D0004FF0FF3201F00CF85246434600F076FEDE
:1058E00032463B4600F032FDDDE9062300F06EFE55
:1058F000DDE9002300F06AFE08B02A462346BDE831
:10590000F04D00F057BE0B465A463046394600F07F
:105910001DFD084A084B00F06FFA4246534600F05E
:1059200015FD08B02A462346BDE8F04D00F064BAE4
:1059300036240000495555555555C5BF2DE9F04D44
:10594000044688B08F4821F00047164698460D4619
:105950000691874206DA2046294600F061FC0028BD
:1059600000F0AC808848B8421CDC06980028BCBF18
:1059700085F0004588F00048844A854B204629463A
:1059800000F018FE04460D463246434681488249DF
:1059900000F01CFE22462B4600F02EFA002604469C
:1059A0000D46B04622462B461046194600F0CEFC66
:1059B0008B46824602460B4600F0C8FCCDE9020148
:1059C000024676480B4606217844FFF7EBFECDE908
:1059D0000001734806217844DDE90223FFF7E2FE67
:1059E00052465B4600F0B2FCCDE9020152465B46EE
:1059F0002046294600F0AAFCCDE904019DE80F00ED
:105A000000F0FAF9DDE9042300F0A0FC3246434639
:105A100000F0F2F952465B4600F098FC32464346ED
:105A200000F0EAF980460E46DDE904015D4A5E4B6E
:105A300000F08CFC4246334600F0DEF982468B468D
:105A400022462B4600F0D8F980464F480E46B84211
:105A500010985BDC00F013FC074642463346029187
:105A600000F0CAF9CDE90001424633461046194616
:105A700000F06CFCDDE9002300F07AFA52465B4648
:105A800000F0A4FD22462B4600F094FD012200F018
:105A90002FFF3A46029B00F08DFD04460D46069806
:105AA000022101EAA070C0F1010000F0E8FB08B09B
:105AB00022462B46BDE8F04D00F048BC1098401C33
:105AC000384320430BD01098012812D008B022464A
:105AD0002B46BDE8F04D0020344900F049BA08B02B
